{
	"contracts/MyToken.sol": {
		"MyToken": {
			"abi": [
				{
					"inputs": [],
					"stateMutability": "nonpayable",
					"type": "constructor"
				},
				{
					"inputs": [
						{
							"internalType": "address",
							"name": "target",
							"type": "address"
						}
					],
					"name": "AddressEmptyCode",
					"type": "error"
				},
				{
					"inputs": [],
					"name": "ECDSAInvalidSignature",
					"type": "error"
				},
				{
					"inputs": [
						{
							"internalType": "uint256",
							"name": "length",
							"type": "uint256"
						}
					],
					"name": "ECDSAInvalidSignatureLength",
					"type": "error"
				},
				{
					"inputs": [
						{
							"internalType": "bytes32",
							"name": "s",
							"type": "bytes32"
						}
					],
					"name": "ECDSAInvalidSignatureS",
					"type": "error"
				},
				{
					"inputs": [
						{
							"internalType": "address",
							"name": "implementation",
							"type": "address"
						}
					],
					"name": "ERC1967InvalidImplementation",
					"type": "error"
				},
				{
					"inputs": [],
					"name": "ERC1967NonPayable",
					"type": "error"
				},
				{
					"inputs": [
						{
							"internalType": "address",
							"name": "spender",
							"type": "address"
						},
						{
							"internalType": "uint256",
							"name": "allowance",
							"type": "uint256"
						},
						{
							"internalType": "uint256",
							"name": "needed",
							"type": "uint256"
						}
					],
					"name": "ERC20InsufficientAllowance",
					"type": "error"
				},
				{
					"inputs": [
						{
							"internalType": "address",
							"name": "sender",
							"type": "address"
						},
						{
							"internalType": "uint256",
							"name": "balance",
							"type": "uint256"
						},
						{
							"internalType": "uint256",
							"name": "needed",
							"type": "uint256"
						}
					],
					"name": "ERC20InsufficientBalance",
					"type": "error"
				},
				{
					"inputs": [
						{
							"internalType": "address",
							"name": "approver",
							"type": "address"
						}
					],
					"name": "ERC20InvalidApprover",
					"type": "error"
				},
				{
					"inputs": [
						{
							"internalType": "address",
							"name": "receiver",
							"type": "address"
						}
					],
					"name": "ERC20InvalidReceiver",
					"type": "error"
				},
				{
					"inputs": [
						{
							"internalType": "address",
							"name": "sender",
							"type": "address"
						}
					],
					"name": "ERC20InvalidSender",
					"type": "error"
				},
				{
					"inputs": [
						{
							"internalType": "address",
							"name": "spender",
							"type": "address"
						}
					],
					"name": "ERC20InvalidSpender",
					"type": "error"
				},
				{
					"inputs": [
						{
							"internalType": "uint256",
							"name": "deadline",
							"type": "uint256"
						}
					],
					"name": "ERC2612ExpiredSignature",
					"type": "error"
				},
				{
					"inputs": [
						{
							"internalType": "address",
							"name": "signer",
							"type": "address"
						},
						{
							"internalType": "address",
							"name": "owner",
							"type": "address"
						}
					],
					"name": "ERC2612InvalidSigner",
					"type": "error"
				},
				{
					"inputs": [],
					"name": "EnforcedPause",
					"type": "error"
				},
				{
					"inputs": [],
					"name": "ExpectedPause",
					"type": "error"
				},
				{
					"inputs": [],
					"name": "FailedInnerCall",
					"type": "error"
				},
				{
					"inputs": [
						{
							"internalType": "address",
							"name": "account",
							"type": "address"
						},
						{
							"internalType": "uint256",
							"name": "currentNonce",
							"type": "uint256"
						}
					],
					"name": "InvalidAccountNonce",
					"type": "error"
				},
				{
					"inputs": [],
					"name": "InvalidInitialization",
					"type": "error"
				},
				{
					"inputs": [],
					"name": "NotInitializing",
					"type": "error"
				},
				{
					"inputs": [
						{
							"internalType": "address",
							"name": "owner",
							"type": "address"
						}
					],
					"name": "OwnableInvalidOwner",
					"type": "error"
				},
				{
					"inputs": [
						{
							"internalType": "address",
							"name": "account",
							"type": "address"
						}
					],
					"name": "OwnableUnauthorizedAccount",
					"type": "error"
				},
				{
					"inputs": [],
					"name": "UUPSUnauthorizedCallContext",
					"type": "error"
				},
				{
					"inputs": [
						{
							"internalType": "bytes32",
							"name": "slot",
							"type": "bytes32"
						}
					],
					"name": "UUPSUnsupportedProxiableUUID",
					"type": "error"
				},
				{
					"anonymous": false,
					"inputs": [
						{
							"indexed": true,
							"internalType": "address",
							"name": "owner",
							"type": "address"
						},
						{
							"indexed": true,
							"internalType": "address",
							"name": "spender",
							"type": "address"
						},
						{
							"indexed": false,
							"internalType": "uint256",
							"name": "value",
							"type": "uint256"
						}
					],
					"name": "Approval",
					"type": "event"
				},
				{
					"anonymous": false,
					"inputs": [],
					"name": "EIP712DomainChanged",
					"type": "event"
				},
				{
					"anonymous": false,
					"inputs": [
						{
							"indexed": false,
							"internalType": "uint64",
							"name": "version",
							"type": "uint64"
						}
					],
					"name": "Initialized",
					"type": "event"
				},
				{
					"anonymous": false,
					"inputs": [
						{
							"indexed": true,
							"internalType": "address",
							"name": "previousOwner",
							"type": "address"
						},
						{
							"indexed": true,
							"internalType": "address",
							"name": "newOwner",
							"type": "address"
						}
					],
					"name": "OwnershipTransferred",
					"type": "event"
				},
				{
					"anonymous": false,
					"inputs": [
						{
							"indexed": false,
							"internalType": "address",
							"name": "account",
							"type": "address"
						}
					],
					"name": "Paused",
					"type": "event"
				},
				{
					"anonymous": false,
					"inputs": [
						{
							"indexed": true,
							"internalType": "address",
							"name": "from",
							"type": "address"
						},
						{
							"indexed": true,
							"internalType": "address",
							"name": "to",
							"type": "address"
						},
						{
							"indexed": false,
							"internalType": "uint256",
							"name": "value",
							"type": "uint256"
						}
					],
					"name": "Transfer",
					"type": "event"
				},
				{
					"anonymous": false,
					"inputs": [
						{
							"indexed": false,
							"internalType": "address",
							"name": "account",
							"type": "address"
						}
					],
					"name": "Unpaused",
					"type": "event"
				},
				{
					"anonymous": false,
					"inputs": [
						{
							"indexed": true,
							"internalType": "address",
							"name": "implementation",
							"type": "address"
						}
					],
					"name": "Upgraded",
					"type": "event"
				},
				{
					"inputs": [],
					"name": "DOMAIN_SEPARATOR",
					"outputs": [
						{
							"internalType": "bytes32",
							"name": "",
							"type": "bytes32"
						}
					],
					"stateMutability": "view",
					"type": "function"
				},
				{
					"inputs": [],
					"name": "UPGRADE_INTERFACE_VERSION",
					"outputs": [
						{
							"internalType": "string",
							"name": "",
							"type": "string"
						}
					],
					"stateMutability": "view",
					"type": "function"
				},
				{
					"inputs": [
						{
							"internalType": "address",
							"name": "owner",
							"type": "address"
						},
						{
							"internalType": "address",
							"name": "spender",
							"type": "address"
						}
					],
					"name": "allowance",
					"outputs": [
						{
							"internalType": "uint256",
							"name": "",
							"type": "uint256"
						}
					],
					"stateMutability": "view",
					"type": "function"
				},
				{
					"inputs": [
						{
							"internalType": "address",
							"name": "spender",
							"type": "address"
						},
						{
							"internalType": "uint256",
							"name": "value",
							"type": "uint256"
						}
					],
					"name": "approve",
					"outputs": [
						{
							"internalType": "bool",
							"name": "",
							"type": "bool"
						}
					],
					"stateMutability": "nonpayable",
					"type": "function"
				},
				{
					"inputs": [
						{
							"internalType": "address",
							"name": "account",
							"type": "address"
						}
					],
					"name": "balanceOf",
					"outputs": [
						{
							"internalType": "uint256",
							"name": "",
							"type": "uint256"
						}
					],
					"stateMutability": "view",
					"type": "function"
				},
				{
					"inputs": [
						{
							"internalType": "uint256",
							"name": "value",
							"type": "uint256"
						}
					],
					"name": "burn",
					"outputs": [],
					"stateMutability": "nonpayable",
					"type": "function"
				},
				{
					"inputs": [
						{
							"internalType": "address",
							"name": "account",
							"type": "address"
						},
						{
							"internalType": "uint256",
							"name": "value",
							"type": "uint256"
						}
					],
					"name": "burnFrom",
					"outputs": [],
					"stateMutability": "nonpayable",
					"type": "function"
				},
				{
					"inputs": [],
					"name": "decimals",
					"outputs": [
						{
							"internalType": "uint8",
							"name": "",
							"type": "uint8"
						}
					],
					"stateMutability": "view",
					"type": "function"
				},
				{
					"inputs": [],
					"name": "eip712Domain",
					"outputs": [
						{
							"internalType": "bytes1",
							"name": "fields",
							"type": "bytes1"
						},
						{
							"internalType": "string",
							"name": "name",
							"type": "string"
						},
						{
							"internalType": "string",
							"name": "version",
							"type": "string"
						},
						{
							"internalType": "uint256",
							"name": "chainId",
							"type": "uint256"
						},
						{
							"internalType": "address",
							"name": "verifyingContract",
							"type": "address"
						},
						{
							"internalType": "bytes32",
							"name": "salt",
							"type": "bytes32"
						},
						{
							"internalType": "uint256[]",
							"name": "extensions",
							"type": "uint256[]"
						}
					],
					"stateMutability": "view",
					"type": "function"
				},
				{
					"inputs": [
						{
							"internalType": "address",
							"name": "initialOwner",
							"type": "address"
						}
					],
					"name": "initialize",
					"outputs": [],
					"stateMutability": "nonpayable",
					"type": "function"
				},
				{
					"inputs": [
						{
							"internalType": "address",
							"name": "to",
							"type": "address"
						},
						{
							"internalType": "uint256",
							"name": "amount",
							"type": "uint256"
						}
					],
					"name": "mint",
					"outputs": [],
					"stateMutability": "nonpayable",
					"type": "function"
				},
				{
					"inputs": [],
					"name": "name",
					"outputs": [
						{
							"internalType": "string",
							"name": "",
							"type": "string"
						}
					],
					"stateMutability": "view",
					"type": "function"
				},
				{
					"inputs": [
						{
							"internalType": "address",
							"name": "owner",
							"type": "address"
						}
					],
					"name": "nonces",
					"outputs": [
						{
							"internalType": "uint256",
							"name": "",
							"type": "uint256"
						}
					],
					"stateMutability": "view",
					"type": "function"
				},
				{
					"inputs": [],
					"name": "owner",
					"outputs": [
						{
							"internalType": "address",
							"name": "",
							"type": "address"
						}
					],
					"stateMutability": "view",
					"type": "function"
				},
				{
					"inputs": [],
					"name": "pause",
					"outputs": [],
					"stateMutability": "nonpayable",
					"type": "function"
				},
				{
					"inputs": [],
					"name": "paused",
					"outputs": [
						{
							"internalType": "bool",
							"name": "",
							"type": "bool"
						}
					],
					"stateMutability": "view",
					"type": "function"
				},
				{
					"inputs": [
						{
							"internalType": "address",
							"name": "owner",
							"type": "address"
						},
						{
							"internalType": "address",
							"name": "spender",
							"type": "address"
						},
						{
							"internalType": "uint256",
							"name": "value",
							"type": "uint256"
						},
						{
							"internalType": "uint256",
							"name": "deadline",
							"type": "uint256"
						},
						{
							"internalType": "uint8",
							"name": "v",
							"type": "uint8"
						},
						{
							"internalType": "bytes32",
							"name": "r",
							"type": "bytes32"
						},
						{
							"internalType": "bytes32",
							"name": "s",
							"type": "bytes32"
						}
					],
					"name": "permit",
					"outputs": [],
					"stateMutability": "nonpayable",
					"type": "function"
				},
				{
					"inputs": [],
					"name": "proxiableUUID",
					"outputs": [
						{
							"internalType": "bytes32",
							"name": "",
							"type": "bytes32"
						}
					],
					"stateMutability": "view",
					"type": "function"
				},
				{
					"inputs": [],
					"name": "renounceOwnership",
					"outputs": [],
					"stateMutability": "nonpayable",
					"type": "function"
				},
				{
					"inputs": [],
					"name": "symbol",
					"outputs": [
						{
							"internalType": "string",
							"name": "",
							"type": "string"
						}
					],
					"stateMutability": "view",
					"type": "function"
				},
				{
					"inputs": [],
					"name": "totalSupply",
					"outputs": [
						{
							"internalType": "uint256",
							"name": "",
							"type": "uint256"
						}
					],
					"stateMutability": "view",
					"type": "function"
				},
				{
					"inputs": [
						{
							"internalType": "address",
							"name": "to",
							"type": "address"
						},
						{
							"internalType": "uint256",
							"name": "value",
							"type": "uint256"
						}
					],
					"name": "transfer",
					"outputs": [
						{
							"internalType": "bool",
							"name": "",
							"type": "bool"
						}
					],
					"stateMutability": "nonpayable",
					"type": "function"
				},
				{
					"inputs": [
						{
							"internalType": "address",
							"name": "from",
							"type": "address"
						},
						{
							"internalType": "address",
							"name": "to",
							"type": "address"
						},
						{
							"internalType": "uint256",
							"name": "value",
							"type": "uint256"
						}
					],
					"name": "transferFrom",
					"outputs": [
						{
							"internalType": "bool",
							"name": "",
							"type": "bool"
						}
					],
					"stateMutability": "nonpayable",
					"type": "function"
				},
				{
					"inputs": [
						{
							"internalType": "address",
							"name": "newOwner",
							"type": "address"
						}
					],
					"name": "transferOwnership",
					"outputs": [],
					"stateMutability": "nonpayable",
					"type": "function"
				},
				{
					"inputs": [],
					"name": "unpause",
					"outputs": [],
					"stateMutability": "nonpayable",
					"type": "function"
				},
				{
					"inputs": [
						{
							"internalType": "address",
							"name": "newImplementation",
							"type": "address"
						},
						{
							"internalType": "bytes",
							"name": "data",
							"type": "bytes"
						}
					],
					"name": "upgradeToAndCall",
					"outputs": [],
					"stateMutability": "payable",
					"type": "function"
				}
			],
			"devdoc": {
				"errors": {
					"AddressEmptyCode(address)": [
						{
							"details": "There's no code at `target` (it is not a contract)."
						}
					],
					"ECDSAInvalidSignature()": [
						{
							"details": "The signature derives the `address(0)`."
						}
					],
					"ECDSAInvalidSignatureLength(uint256)": [
						{
							"details": "The signature has an invalid length."
						}
					],
					"ECDSAInvalidSignatureS(bytes32)": [
						{
							"details": "The signature has an S value that is in the upper half order."
						}
					],
					"ERC1967InvalidImplementation(address)": [
						{
							"details": "The `implementation` of the proxy is invalid."
						}
					],
					"ERC1967NonPayable()": [
						{
							"details": "An upgrade function sees `msg.value > 0` that may be lost."
						}
					],
					"ERC20InsufficientAllowance(address,uint256,uint256)": [
						{
							"details": "Indicates a failure with the `spender`s `allowance`. Used in transfers.",
							"params": {
								"allowance": "Amount of tokens a `spender` is allowed to operate with.",
								"needed": "Minimum amount required to perform a transfer.",
								"spender": "Address that may be allowed to operate on tokens without being their owner."
							}
						}
					],
					"ERC20InsufficientBalance(address,uint256,uint256)": [
						{
							"details": "Indicates an error related to the current `balance` of a `sender`. Used in transfers.",
							"params": {
								"balance": "Current balance for the interacting account.",
								"needed": "Minimum amount required to perform a transfer.",
								"sender": "Address whose tokens are being transferred."
							}
						}
					],
					"ERC20InvalidApprover(address)": [
						{
							"details": "Indicates a failure with the `approver` of a token to be approved. Used in approvals.",
							"params": {
								"approver": "Address initiating an approval operation."
							}
						}
					],
					"ERC20InvalidReceiver(address)": [
						{
							"details": "Indicates a failure with the token `receiver`. Used in transfers.",
							"params": {
								"receiver": "Address to which tokens are being transferred."
							}
						}
					],
					"ERC20InvalidSender(address)": [
						{
							"details": "Indicates a failure with the token `sender`. Used in transfers.",
							"params": {
								"sender": "Address whose tokens are being transferred."
							}
						}
					],
					"ERC20InvalidSpender(address)": [
						{
							"details": "Indicates a failure with the `spender` to be approved. Used in approvals.",
							"params": {
								"spender": "Address that may be allowed to operate on tokens without being their owner."
							}
						}
					],
					"ERC2612ExpiredSignature(uint256)": [
						{
							"details": "Permit deadline has expired."
						}
					],
					"ERC2612InvalidSigner(address,address)": [
						{
							"details": "Mismatched signature."
						}
					],
					"EnforcedPause()": [
						{
							"details": "The operation failed because the contract is paused."
						}
					],
					"ExpectedPause()": [
						{
							"details": "The operation failed because the contract is not paused."
						}
					],
					"FailedInnerCall()": [
						{
							"details": "A call to an address target failed. The target may have reverted."
						}
					],
					"InvalidAccountNonce(address,uint256)": [
						{
							"details": "The nonce used for an `account` is not the expected current nonce."
						}
					],
					"InvalidInitialization()": [
						{
							"details": "The contract is already initialized."
						}
					],
					"NotInitializing()": [
						{
							"details": "The contract is not initializing."
						}
					],
					"OwnableInvalidOwner(address)": [
						{
							"details": "The owner is not a valid owner account. (eg. `address(0)`)"
						}
					],
					"OwnableUnauthorizedAccount(address)": [
						{
							"details": "The caller account is not authorized to perform an operation."
						}
					],
					"UUPSUnauthorizedCallContext()": [
						{
							"details": "The call is from an unauthorized context."
						}
					],
					"UUPSUnsupportedProxiableUUID(bytes32)": [
						{
							"details": "The storage `slot` is unsupported as a UUID."
						}
					]
				},
				"events": {
					"Approval(address,address,uint256)": {
						"details": "Emitted when the allowance of a `spender` for an `owner` is set by a call to {approve}. `value` is the new allowance."
					},
					"EIP712DomainChanged()": {
						"details": "MAY be emitted to signal that the domain could have changed."
					},
					"Initialized(uint64)": {
						"details": "Triggered when the contract has been initialized or reinitialized."
					},
					"Paused(address)": {
						"details": "Emitted when the pause is triggered by `account`."
					},
					"Transfer(address,address,uint256)": {
						"details": "Emitted when `value` tokens are moved from one account (`from`) to another (`to`). Note that `value` may be zero."
					},
					"Unpaused(address)": {
						"details": "Emitted when the pause is lifted by `account`."
					},
					"Upgraded(address)": {
						"details": "Emitted when the implementation is upgraded."
					}
				},
				"kind": "dev",
				"methods": {
					"DOMAIN_SEPARATOR()": {
						"details": "Returns the domain separator used in the encoding of the signature for {permit}, as defined by {EIP712}."
					},
					"allowance(address,address)": {
						"details": "See {IERC20-allowance}."
					},
					"approve(address,uint256)": {
						"details": "See {IERC20-approve}. NOTE: If `value` is the maximum `uint256`, the allowance is not updated on `transferFrom`. This is semantically equivalent to an infinite approval. Requirements: - `spender` cannot be the zero address."
					},
					"balanceOf(address)": {
						"details": "See {IERC20-balanceOf}."
					},
					"burn(uint256)": {
						"details": "Destroys a `value` amount of tokens from the caller. See {ERC20-_burn}."
					},
					"burnFrom(address,uint256)": {
						"details": "Destroys a `value` amount of tokens from `account`, deducting from the caller's allowance. See {ERC20-_burn} and {ERC20-allowance}. Requirements: - the caller must have allowance for ``accounts``'s tokens of at least `value`."
					},
					"constructor": {
						"custom:oz-upgrades-unsafe-allow": "constructor"
					},
					"decimals()": {
						"details": "Returns the number of decimals used to get its user representation. For example, if `decimals` equals `2`, a balance of `505` tokens should be displayed to a user as `5.05` (`505 / 10 ** 2`). Tokens usually opt for a value of 18, imitating the relationship between Ether and Wei. This is the default value returned by this function, unless it's overridden. NOTE: This information is only used for _display_ purposes: it in no way affects any of the arithmetic of the contract, including {IERC20-balanceOf} and {IERC20-transfer}."
					},
					"eip712Domain()": {
						"details": "See {IERC-5267}."
					},
					"name()": {
						"details": "Returns the name of the token."
					},
					"nonces(address)": {
						"details": "Returns the current nonce for `owner`. This value must be included whenever a signature is generated for {permit}. Every successful call to {permit} increases ``owner``'s nonce by one. This prevents a signature from being used multiple times."
					},
					"owner()": {
						"details": "Returns the address of the current owner."
					},
					"paused()": {
						"details": "Returns true if the contract is paused, and false otherwise."
					},
					"permit(address,address,uint256,uint256,uint8,bytes32,bytes32)": {
						"details": "Sets `value` as the allowance of `spender` over ``owner``'s tokens, given ``owner``'s signed approval. IMPORTANT: The same issues {IERC20-approve} has related to transaction ordering also apply here. Emits an {Approval} event. Requirements: - `spender` cannot be the zero address. - `deadline` must be a timestamp in the future. - `v`, `r` and `s` must be a valid `secp256k1` signature from `owner` over the EIP712-formatted function arguments. - the signature must use ``owner``'s current nonce (see {nonces}). For more information on the signature format, see the https://eips.ethereum.org/EIPS/eip-2612#specification[relevant EIP section]. CAUTION: See Security Considerations above."
					},
					"proxiableUUID()": {
						"details": "Implementation of the ERC1822 {proxiableUUID} function. This returns the storage slot used by the implementation. It is used to validate the implementation's compatibility when performing an upgrade. IMPORTANT: A proxy pointing at a proxiable contract should not be considered proxiable itself, because this risks bricking a proxy that upgrades to it, by delegating to itself until out of gas. Thus it is critical that this function revert if invoked through a proxy. This is guaranteed by the `notDelegated` modifier."
					},
					"renounceOwnership()": {
						"details": "Leaves the contract without owner. It will not be possible to call `onlyOwner` functions. Can only be called by the current owner. NOTE: Renouncing ownership will leave the contract without an owner, thereby disabling any functionality that is only available to the owner."
					},
					"symbol()": {
						"details": "Returns the symbol of the token, usually a shorter version of the name."
					},
					"totalSupply()": {
						"details": "See {IERC20-totalSupply}."
					},
					"transfer(address,uint256)": {
						"details": "See {IERC20-transfer}. Requirements: - `to` cannot be the zero address. - the caller must have a balance of at least `value`."
					},
					"transferFrom(address,address,uint256)": {
						"details": "See {IERC20-transferFrom}. Emits an {Approval} event indicating the updated allowance. This is not required by the EIP. See the note at the beginning of {ERC20}. NOTE: Does not update the allowance if the current allowance is the maximum `uint256`. Requirements: - `from` and `to` cannot be the zero address. - `from` must have a balance of at least `value`. - the caller must have allowance for ``from``'s tokens of at least `value`."
					},
					"transferOwnership(address)": {
						"details": "Transfers ownership of the contract to a new account (`newOwner`). Can only be called by the current owner."
					},
					"upgradeToAndCall(address,bytes)": {
						"custom:oz-upgrades-unsafe-allow-reachable": "delegatecall",
						"details": "Upgrade the implementation of the proxy to `newImplementation`, and subsequently execute the function call encoded in `data`. Calls {_authorizeUpgrade}. Emits an {Upgraded} event."
					}
				},
				"version": 1
			},
			"evm": {
				"assembly": "    /* \"contracts/MyToken.sol\":660:1840  contract MyToken is Initializable, ERC20Upgradeable, ERC20BurnableUpgradeable, ERC20PausableUpgradeable, OwnableUpgradeable, ERC20PermitUpgradeable, UUPSUpgradeable {... */\n  mstore(0x40, 0xa0)\n    /* \"@openzeppelin/contracts-upgradeable/proxy/utils/UUPSUpgradeable.sol\":1171:1175  this */\n  address\n    /* \"@openzeppelin/contracts-upgradeable/proxy/utils/UUPSUpgradeable.sol\":1128:1176  address private immutable __self = address(this) */\n  0x80\n  mstore\n    /* \"contracts/MyToken.sol\":884:937  constructor() {... */\n  callvalue\n  dup1\n  iszero\n  tag_1\n  jumpi\n  0x00\n  dup1\n  revert\ntag_1:\n  pop\n    /* \"contracts/MyToken.sol\":908:930  _disableInitializers() */\n  tag_4\n    /* \"contracts/MyToken.sol\":908:928  _disableInitializers */\n  tag_5\n    /* \"contracts/MyToken.sol\":908:930  _disableInitializers() */\n  jump\t// in\ntag_4:\n    /* \"contracts/MyToken.sol\":660:1840  contract MyToken is Initializable, ERC20Upgradeable, ERC20BurnableUpgradeable, ERC20PausableUpgradeable, OwnableUpgradeable, ERC20PermitUpgradeable, UUPSUpgradeable {... */\n  jump(tag_15)\n    /* \"@openzeppelin/contracts-upgradeable/proxy/utils/Initializable.sol\":7711:8133  function _disableInitializers() internal virtual {... */\ntag_5:\n    /* \"@openzeppelin/contracts-upgradeable/proxy/utils/Initializable.sol\":8870:8891  INITIALIZABLE_STORAGE */\n  0xf0c57e16840df040f15088dc2f81fe391c3923bec73e23a9662efc9c229c6a00\n    /* \"@openzeppelin/contracts-upgradeable/proxy/utils/Initializable.sol\":7900:7915  $._initializing */\n  dup1\n  sload\n  0x010000000000000000\n  swap1\n  div\n  0xff\n  and\n    /* \"@openzeppelin/contracts-upgradeable/proxy/utils/Initializable.sol\":7896:7972  if ($._initializing) {... */\n  iszero\n  tag_10\n  jumpi\n    /* \"@openzeppelin/contracts-upgradeable/proxy/utils/Initializable.sol\":7938:7961  InvalidInitialization() */\n  mload(0x40)\n  shl(0xe0, 0xf92ee8a9)\n  dup2\n  mstore\n  0x04\n  add\n  mload(0x40)\n  dup1\n  swap2\n  sub\n  swap1\n  revert\n    /* \"@openzeppelin/contracts-upgradeable/proxy/utils/Initializable.sol\":7896:7972  if ($._initializing) {... */\ntag_10:\n    /* \"@openzeppelin/contracts-upgradeable/proxy/utils/Initializable.sol\":7985:7999  $._initialized */\n  dup1\n  sload\n  sub(shl(0x40, 0x01), 0x01)\n  swap1\n  dup2\n  and\n    /* \"@openzeppelin/contracts-upgradeable/proxy/utils/Initializable.sol\":7985:8019  $._initialized != type(uint64).max */\n  eq\n    /* \"@openzeppelin/contracts-upgradeable/proxy/utils/Initializable.sol\":7981:8127  if ($._initialized != type(uint64).max) {... */\n  tag_11\n  jumpi\n    /* \"@openzeppelin/contracts-upgradeable/proxy/utils/Initializable.sol\":8035:8068  $._initialized = type(uint64).max */\n  dup1\n  sload\n  not(sub(shl(0x40, 0x01), 0x01))\n  and\n  sub(shl(0x40, 0x01), 0x01)\n  swap1\n  dup2\n  or\n  dup3\n  sstore\n    /* \"@openzeppelin/contracts-upgradeable/proxy/utils/Initializable.sol\":8087:8116  Initialized(type(uint64).max) */\n  mload(0x40)\n    /* \"#utility.yul\":158:208   */\n  swap1\n  dup2\n  mstore\n    /* \"@openzeppelin/contracts-upgradeable/proxy/utils/Initializable.sol\":8087:8116  Initialized(type(uint64).max) */\n  0xc7f505b2f371ae2175ee4913f4499e1f2633a7b5936321eed1cdaeb6115181d2\n  swap1\n    /* \"#utility.yul\":146:148   */\n  0x20\n    /* \"#utility.yul\":131:149   */\n  add\n    /* \"@openzeppelin/contracts-upgradeable/proxy/utils/Initializable.sol\":8087:8116  Initialized(type(uint64).max) */\n  mload(0x40)\n  dup1\n  swap2\n  sub\n  swap1\n  log1\n    /* \"@openzeppelin/contracts-upgradeable/proxy/utils/Initializable.sol\":7981:8127  if ($._initialized != type(uint64).max) {... */\ntag_11:\n    /* \"@openzeppelin/contracts-upgradeable/proxy/utils/Initializable.sol\":7760:8133  {... */\n  pop\n    /* \"@openzeppelin/contracts-upgradeable/proxy/utils/Initializable.sol\":7711:8133  function _disableInitializers() internal virtual {... */\n  jump\t// out\n    /* \"#utility.yul\":14:214   */\ntag_15:\n    /* \"contracts/MyToken.sol\":660:1840  contract MyToken is Initializable, ERC20Upgradeable, ERC20BurnableUpgradeable, ERC20PausableUpgradeable, OwnableUpgradeable, ERC20PermitUpgradeable, UUPSUpgradeable {... */\n  mload(0x80)\n  codecopy(0x00, dataOffset(sub_0), dataSize(sub_0))\n  0x00\n  assignImmutable(\"0x0b83f23a4eeb8c3f5f7d5934a2289bcf0186d09a12e1b7f20adf54e4b179db15\")\n  return(0x00, dataSize(sub_0))\nstop\n\nsub_0: assembly {\n        /* \"contracts/MyToken.sol\":660:1840  contract MyToken is Initializable, ERC20Upgradeable, ERC20BurnableUpgradeable, ERC20PausableUpgradeable, OwnableUpgradeable, ERC20PermitUpgradeable, UUPSUpgradeable {... */\n      mstore(0x40, 0x80)\n      jumpi(tag_1, lt(calldatasize, 0x04))\n      shr(0xe0, calldataload(0x00))\n      dup1\n      0x715018a6\n      gt\n      tag_28\n      jumpi\n      dup1\n      0x95d89b41\n      gt\n      tag_29\n      jumpi\n      dup1\n      0xc4d66de8\n      gt\n      tag_30\n      jumpi\n      dup1\n      0xc4d66de8\n      eq\n      tag_24\n      jumpi\n      dup1\n      0xd505accf\n      eq\n      tag_25\n      jumpi\n      dup1\n      0xdd62ed3e\n      eq\n      tag_26\n      jumpi\n      dup1\n      0xf2fde38b\n      eq\n      tag_27\n      jumpi\n      0x00\n      dup1\n      revert\n    tag_30:\n      dup1\n      0x95d89b41\n      eq\n      tag_21\n      jumpi\n      dup1\n      0xa9059cbb\n      eq\n      tag_22\n      jumpi\n      dup1\n      0xad3cb1cc\n      eq\n      tag_23\n      jumpi\n      0x00\n      dup1\n      revert\n    tag_29:\n      dup1\n      0x715018a6\n      eq\n      tag_15\n      jumpi\n      dup1\n      0x79cc6790\n      eq\n      tag_16\n      jumpi\n      dup1\n      0x7ecebe00\n      eq\n      tag_17\n      jumpi\n      dup1\n      0x8456cb59\n      eq\n      tag_18\n      jumpi\n      dup1\n      0x84b0196e\n      eq\n      tag_19\n      jumpi\n      dup1\n      0x8da5cb5b\n      eq\n      tag_20\n      jumpi\n      0x00\n      dup1\n      revert\n    tag_28:\n      dup1\n      0x3f4ba83a\n      gt\n      tag_31\n      jumpi\n      dup1\n      0x4f1ef286\n      gt\n      tag_32\n      jumpi\n      dup1\n      0x4f1ef286\n      eq\n      tag_11\n      jumpi\n      dup1\n      0x52d1902d\n      eq\n      tag_12\n      jumpi\n      dup1\n      0x5c975abb\n      eq\n      tag_13\n      jumpi\n      dup1\n      0x70a08231\n      eq\n      tag_14\n      jumpi\n      0x00\n      dup1\n      revert\n    tag_32:\n      dup1\n      0x3f4ba83a\n      eq\n      tag_8\n      jumpi\n      dup1\n      0x40c10f19\n      eq\n      tag_9\n      jumpi\n      dup1\n      0x42966c68\n      eq\n      tag_10\n      jumpi\n      0x00\n      dup1\n      revert\n    tag_31:\n      dup1\n      0x06fdde03\n      eq\n      tag_2\n      jumpi\n      dup1\n      0x095ea7b3\n      eq\n      tag_3\n      jumpi\n      dup1\n      0x18160ddd\n      eq\n      tag_4\n      jumpi\n      dup1\n      0x23b872dd\n      eq\n      tag_5\n      jumpi\n      dup1\n      0x313ce567\n      eq\n      tag_6\n      jumpi\n      dup1\n      0x3644e515\n      eq\n      tag_7\n      jumpi\n    tag_1:\n      0x00\n      dup1\n      revert\n        /* \"@openzeppelin/contracts-upgradeable/token/ERC20/ERC20Upgradeable.sol\":3011:3155  function name() public view virtual returns (string memory) {... */\n    tag_2:\n      callvalue\n      dup1\n      iszero\n      tag_33\n      jumpi\n      0x00\n      dup1\n      revert\n    tag_33:\n      pop\n      tag_34\n      tag_35\n      jump\t// in\n    tag_34:\n      mload(0x40)\n      tag_36\n      swap2\n      swap1\n      tag_37\n      jump\t// in\n    tag_36:\n      mload(0x40)\n      dup1\n      swap2\n      sub\n      swap1\n      return\n        /* \"@openzeppelin/contracts-upgradeable/token/ERC20/ERC20Upgradeable.sol\":5505:5691  function approve(address spender, uint256 value) public virtual returns (bool) {... */\n    tag_3:\n      callvalue\n      dup1\n      iszero\n      tag_38\n      jumpi\n      0x00\n      dup1\n      revert\n    tag_38:\n      pop\n      tag_39\n      tag_40\n      calldatasize\n      0x04\n      tag_41\n      jump\t// in\n    tag_40:\n      tag_42\n      jump\t// in\n    tag_39:\n      mload(0x40)\n        /* \"#utility.yul\":1372:1386   */\n      swap1\n      iszero\n        /* \"#utility.yul\":1365:1387   */\n      iszero\n        /* \"#utility.yul\":1347:1388   */\n      dup2\n      mstore\n        /* \"#utility.yul\":1335:1337   */\n      0x20\n        /* \"#utility.yul\":1320:1338   */\n      add\n        /* \"@openzeppelin/contracts-upgradeable/token/ERC20/ERC20Upgradeable.sol\":5505:5691  function approve(address spender, uint256 value) public virtual returns (bool) {... */\n      tag_36\n        /* \"#utility.yul\":1207:1394   */\n      jump\n        /* \"@openzeppelin/contracts-upgradeable/token/ERC20/ERC20Upgradeable.sol\":4191:4343  function totalSupply() public view virtual returns (uint256) {... */\n    tag_4:\n      callvalue\n      dup1\n      iszero\n      tag_45\n      jumpi\n      0x00\n      dup1\n      revert\n    tag_45:\n      pop\n        /* \"@openzeppelin/contracts-upgradeable/token/ERC20/ERC20Upgradeable.sol\":4322:4336  $._totalSupply */\n      sload(0x52c63247e1f47db19d5ce0460030c497f067ca4cebf71ba98eeadabe20bace02)\n        /* \"@openzeppelin/contracts-upgradeable/token/ERC20/ERC20Upgradeable.sol\":4191:4343  function totalSupply() public view virtual returns (uint256) {... */\n    tag_46:\n      mload(0x40)\n        /* \"#utility.yul\":1545:1570   */\n      swap1\n      dup2\n      mstore\n        /* \"#utility.yul\":1533:1535   */\n      0x20\n        /* \"#utility.yul\":1518:1536   */\n      add\n        /* \"@openzeppelin/contracts-upgradeable/token/ERC20/ERC20Upgradeable.sol\":4191:4343  function totalSupply() public view virtual returns (uint256) {... */\n      tag_36\n        /* \"#utility.yul\":1399:1576   */\n      jump\n        /* \"@openzeppelin/contracts-upgradeable/token/ERC20/ERC20Upgradeable.sol\":6251:6495  function transferFrom(address from, address to, uint256 value) public virtual returns (bool) {... */\n    tag_5:\n      callvalue\n      dup1\n      iszero\n      tag_50\n      jumpi\n      0x00\n      dup1\n      revert\n    tag_50:\n      pop\n      tag_39\n      tag_52\n      calldatasize\n      0x04\n      tag_53\n      jump\t// in\n    tag_52:\n      tag_54\n      jump\t// in\n        /* \"@openzeppelin/contracts-upgradeable/token/ERC20/ERC20Upgradeable.sol\":4049:4131  function decimals() public view virtual returns (uint8) {... */\n    tag_6:\n      callvalue\n      dup1\n      iszero\n      tag_56\n      jumpi\n      0x00\n      dup1\n      revert\n    tag_56:\n      pop\n      mload(0x40)\n        /* \"@openzeppelin/contracts-upgradeable/token/ERC20/ERC20Upgradeable.sol\":4122:4124  18 */\n      0x12\n        /* \"#utility.yul\":2056:2092   */\n      dup2\n      mstore\n        /* \"#utility.yul\":2044:2046   */\n      0x20\n        /* \"#utility.yul\":2029:2047   */\n      add\n        /* \"@openzeppelin/contracts-upgradeable/token/ERC20/ERC20Upgradeable.sol\":4049:4131  function decimals() public view virtual returns (uint8) {... */\n      tag_36\n        /* \"#utility.yul\":1914:2098   */\n      jump\n        /* \"@openzeppelin/contracts-upgradeable/token/ERC20/extensions/ERC20PermitUpgradeable.sol\":3082:3194  function DOMAIN_SEPARATOR() external view virtual returns (bytes32) {... */\n    tag_7:\n      callvalue\n      dup1\n      iszero\n      tag_61\n      jumpi\n      0x00\n      dup1\n      revert\n    tag_61:\n      pop\n      tag_46\n      tag_63\n      jump\t// in\n        /* \"contracts/MyToken.sol\":1297:1360  function unpause() public onlyOwner {... */\n    tag_8:\n      callvalue\n      dup1\n      iszero\n      tag_66\n      jumpi\n      0x00\n      dup1\n      revert\n    tag_66:\n      pop\n      tag_67\n      tag_68\n      jump\t// in\n    tag_67:\n      stop\n        /* \"contracts/MyToken.sol\":1366:1459  function mint(address to, uint256 amount) public onlyOwner {... */\n    tag_9:\n      callvalue\n      dup1\n      iszero\n      tag_69\n      jumpi\n      0x00\n      dup1\n      revert\n    tag_69:\n      pop\n      tag_67\n      tag_71\n      calldatasize\n      0x04\n      tag_41\n      jump\t// in\n    tag_71:\n      tag_72\n      jump\t// in\n        /* \"@openzeppelin/contracts-upgradeable/token/ERC20/extensions/ERC20BurnableUpgradeable.sol\":931:1018  function burn(uint256 value) public virtual {... */\n    tag_10:\n      callvalue\n      dup1\n      iszero\n      tag_73\n      jumpi\n      0x00\n      dup1\n      revert\n    tag_73:\n      pop\n      tag_67\n      tag_75\n      calldatasize\n      0x04\n      tag_76\n      jump\t// in\n    tag_75:\n      tag_77\n      jump\t// in\n        /* \"@openzeppelin/contracts-upgradeable/proxy/utils/UUPSUpgradeable.sol\":4158:4372  function upgradeToAndCall(address newImplementation, bytes memory data) public payable virtual onlyProxy {... */\n    tag_11:\n      tag_67\n      tag_79\n      calldatasize\n      0x04\n      tag_80\n      jump\t// in\n    tag_79:\n      tag_81\n      jump\t// in\n        /* \"@openzeppelin/contracts-upgradeable/proxy/utils/UUPSUpgradeable.sol\":3705:3839  function proxiableUUID() external view virtual notDelegated returns (bytes32) {... */\n    tag_12:\n      callvalue\n      dup1\n      iszero\n      tag_82\n      jumpi\n      0x00\n      dup1\n      revert\n    tag_82:\n      pop\n      tag_46\n      tag_84\n      jump\t// in\n        /* \"@openzeppelin/contracts-upgradeable/utils/PausableUpgradeable.sol\":2692:2837  function paused() public view virtual returns (bool) {... */\n    tag_13:\n      callvalue\n      dup1\n      iszero\n      tag_86\n      jumpi\n      0x00\n      dup1\n      revert\n    tag_86:\n      pop\n      0x00\n      dup1\n      mload\n      0x20\n      data_c0c65a3718f3702d917c44106b91645b509d2e2d0979b70495c3babce192339f\n      dup4\n      codecopy\n      dup2\n      mload\n      swap2\n      mstore\n        /* \"@openzeppelin/contracts-upgradeable/utils/PausableUpgradeable.sol\":2821:2830  $._paused */\n      sload\n      0xff\n      and\n        /* \"@openzeppelin/contracts-upgradeable/utils/PausableUpgradeable.sol\":2692:2837  function paused() public view virtual returns (bool) {... */\n      jump(tag_39)\n        /* \"@openzeppelin/contracts-upgradeable/token/ERC20/ERC20Upgradeable.sol\":4401:4572  function balanceOf(address account) public view virtual returns (uint256) {... */\n    tag_14:\n      callvalue\n      dup1\n      iszero\n      tag_90\n      jumpi\n      0x00\n      dup1\n      revert\n    tag_90:\n      pop\n      tag_46\n      tag_92\n      calldatasize\n      0x04\n      tag_93\n      jump\t// in\n    tag_92:\n      tag_94\n      jump\t// in\n        /* \"@openzeppelin/contracts-upgradeable/access/OwnableUpgradeable.sol\":3155:3256  function renounceOwnership() public virtual onlyOwner {... */\n    tag_15:\n      callvalue\n      dup1\n      iszero\n      tag_96\n      jumpi\n      0x00\n      dup1\n      revert\n    tag_96:\n      pop\n      tag_67\n      tag_98\n      jump\t// in\n        /* \"@openzeppelin/contracts-upgradeable/token/ERC20/extensions/ERC20BurnableUpgradeable.sol\":1334:1492  function burnFrom(address account, uint256 value) public virtual {... */\n    tag_16:\n      callvalue\n      dup1\n      iszero\n      tag_99\n      jumpi\n      0x00\n      dup1\n      revert\n    tag_99:\n      pop\n      tag_67\n      tag_101\n      calldatasize\n      0x04\n      tag_41\n      jump\t// in\n    tag_101:\n      tag_102\n      jump\t// in\n        /* \"@openzeppelin/contracts-upgradeable/token/ERC20/extensions/ERC20PermitUpgradeable.sol\":2821:2975  function nonces(address owner) public view virtual override(IERC20Permit, NoncesUpgradeable) returns (uint256) {... */\n    tag_17:\n      callvalue\n      dup1\n      iszero\n      tag_103\n      jumpi\n      0x00\n      dup1\n      revert\n    tag_103:\n      pop\n      tag_46\n      tag_105\n      calldatasize\n      0x04\n      tag_93\n      jump\t// in\n    tag_105:\n      tag_106\n      jump\t// in\n        /* \"contracts/MyToken.sol\":1232:1291  function pause() public onlyOwner {... */\n    tag_18:\n      callvalue\n      dup1\n      iszero\n      tag_108\n      jumpi\n      0x00\n      dup1\n      revert\n    tag_108:\n      pop\n      tag_67\n      tag_110\n      jump\t// in\n        /* \"@openzeppelin/contracts-upgradeable/utils/cryptography/EIP712Upgradeable.sol\":5173:6076  function eip712Domain()... */\n    tag_19:\n      callvalue\n      dup1\n      iszero\n      tag_111\n      jumpi\n      0x00\n      dup1\n      revert\n    tag_111:\n      pop\n      tag_112\n      tag_113\n      jump\t// in\n    tag_112:\n      mload(0x40)\n      tag_36\n      swap8\n      swap7\n      swap6\n      swap5\n      swap4\n      swap3\n      swap2\n      swap1\n      tag_115\n      jump\t// in\n        /* \"@openzeppelin/contracts-upgradeable/access/OwnableUpgradeable.sol\":2441:2585  function owner() public view virtual returns (address) {... */\n    tag_20:\n      callvalue\n      dup1\n      iszero\n      tag_116\n      jumpi\n      0x00\n      dup1\n      revert\n    tag_116:\n      pop\n        /* \"@openzeppelin/contracts-upgradeable/access/OwnableUpgradeable.sol\":1313:1335  OwnableStorageLocation */\n      0x9016d09d72d40fdae2fd8ceac6b6234c7706214fd39c1cd1e609a0528c199300\n        /* \"@openzeppelin/contracts-upgradeable/access/OwnableUpgradeable.sol\":2570:2578  $._owner */\n      sload\n        /* \"@openzeppelin/contracts-upgradeable/access/OwnableUpgradeable.sol\":2441:2585  function owner() public view virtual returns (address) {... */\n      mload(0x40)\n      sub(shl(0xa0, 0x01), 0x01)\n        /* \"@openzeppelin/contracts-upgradeable/access/OwnableUpgradeable.sol\":2570:2578  $._owner */\n      swap1\n      swap2\n      and\n        /* \"#utility.yul\":5203:5254   */\n      dup2\n      mstore\n        /* \"#utility.yul\":5191:5193   */\n      0x20\n        /* \"#utility.yul\":5176:5194   */\n      add\n        /* \"@openzeppelin/contracts-upgradeable/access/OwnableUpgradeable.sol\":2441:2585  function owner() public view virtual returns (address) {... */\n      tag_36\n        /* \"#utility.yul\":5057:5260   */\n      jump\n        /* \"@openzeppelin/contracts-upgradeable/token/ERC20/ERC20Upgradeable.sol\":3268:3416  function symbol() public view virtual returns (string memory) {... */\n    tag_21:\n      callvalue\n      dup1\n      iszero\n      tag_121\n      jumpi\n      0x00\n      dup1\n      revert\n    tag_121:\n      pop\n      tag_34\n      tag_123\n      jump\t// in\n        /* \"@openzeppelin/contracts-upgradeable/token/ERC20/ERC20Upgradeable.sol\":4767:4945  function transfer(address to, uint256 value) public virtual returns (bool) {... */\n    tag_22:\n      callvalue\n      dup1\n      iszero\n      tag_125\n      jumpi\n      0x00\n      dup1\n      revert\n    tag_125:\n      pop\n      tag_39\n      tag_127\n      calldatasize\n      0x04\n      tag_41\n      jump\t// in\n    tag_127:\n      tag_128\n      jump\t// in\n        /* \"@openzeppelin/contracts-upgradeable/proxy/utils/UUPSUpgradeable.sol\":1819:1877  string public constant UPGRADE_INTERFACE_VERSION = \"5.0.0\" */\n    tag_23:\n      callvalue\n      dup1\n      iszero\n      tag_130\n      jumpi\n      0x00\n      dup1\n      revert\n    tag_130:\n      pop\n      tag_34\n      mload(0x40)\n      dup1\n      0x40\n      add\n      0x40\n      mstore\n      dup1\n      0x05\n      dup2\n      mstore\n      0x20\n      add\n      shl(0xdc, 0x0352e302e3)\n      dup2\n      mstore\n      pop\n      dup2\n      jump\n        /* \"contracts/MyToken.sol\":943:1226  function initialize(address initialOwner) initializer public {... */\n    tag_24:\n      callvalue\n      dup1\n      iszero\n      tag_134\n      jumpi\n      0x00\n      dup1\n      revert\n    tag_134:\n      pop\n      tag_67\n      tag_136\n      calldatasize\n      0x04\n      tag_93\n      jump\t// in\n    tag_136:\n      tag_137\n      jump\t// in\n        /* \"@openzeppelin/contracts-upgradeable/token/ERC20/extensions/ERC20PermitUpgradeable.sol\":2095:2767  function permit(... */\n    tag_25:\n      callvalue\n      dup1\n      iszero\n      tag_138\n      jumpi\n      0x00\n      dup1\n      revert\n    tag_138:\n      pop\n      tag_67\n      tag_140\n      calldatasize\n      0x04\n      tag_141\n      jump\t// in\n    tag_140:\n      tag_142\n      jump\t// in\n        /* \"@openzeppelin/contracts-upgradeable/token/ERC20/ERC20Upgradeable.sol\":5003:5198  function allowance(address owner, address spender) public view virtual returns (uint256) {... */\n    tag_26:\n      callvalue\n      dup1\n      iszero\n      tag_143\n      jumpi\n      0x00\n      dup1\n      revert\n    tag_143:\n      pop\n      tag_46\n      tag_145\n      calldatasize\n      0x04\n      tag_146\n      jump\t// in\n    tag_145:\n      tag_147\n      jump\t// in\n        /* \"@openzeppelin/contracts-upgradeable/access/OwnableUpgradeable.sol\":3405:3620  function transferOwnership(address newOwner) public virtual onlyOwner {... */\n    tag_27:\n      callvalue\n      dup1\n      iszero\n      tag_149\n      jumpi\n      0x00\n      dup1\n      revert\n    tag_149:\n      pop\n      tag_67\n      tag_151\n      calldatasize\n      0x04\n      tag_93\n      jump\t// in\n    tag_151:\n      tag_152\n      jump\t// in\n        /* \"@openzeppelin/contracts-upgradeable/token/ERC20/ERC20Upgradeable.sol\":3011:3155  function name() public view virtual returns (string memory) {... */\n    tag_35:\n        /* \"@openzeppelin/contracts-upgradeable/token/ERC20/ERC20Upgradeable.sol\":3056:3069  string memory */\n      0x60\n        /* \"@openzeppelin/contracts-upgradeable/token/ERC20/ERC20Upgradeable.sol\":3081:3103  ERC20Storage storage $ */\n      0x00\n      0x00\n      dup1\n      mload\n      0x20\n      data_3874827173e8df9f34323b12b251d1d3c53926ce129e30a0d69f1d47c277041b\n      dup4\n      codecopy\n      dup2\n      mload\n      swap2\n      mstore\n        /* \"@openzeppelin/contracts-upgradeable/token/ERC20/ERC20Upgradeable.sol\":3106:3124  _getERC20Storage() */\n    tag_154:\n        /* \"@openzeppelin/contracts-upgradeable/token/ERC20/ERC20Upgradeable.sol\":3081:3124  ERC20Storage storage $ = _getERC20Storage() */\n      swap1\n      pop\n        /* \"@openzeppelin/contracts-upgradeable/token/ERC20/ERC20Upgradeable.sol\":3141:3142  $ */\n      dup1\n        /* \"@openzeppelin/contracts-upgradeable/token/ERC20/ERC20Upgradeable.sol\":3141:3148  $._name */\n      0x03\n      add\n        /* \"@openzeppelin/contracts-upgradeable/token/ERC20/ERC20Upgradeable.sol\":3134:3148  return $._name */\n      dup1\n      sload\n      tag_156\n      swap1\n      tag_157\n      jump\t// in\n    tag_156:\n      dup1\n      0x1f\n      add\n      0x20\n      dup1\n      swap2\n      div\n      mul\n      0x20\n      add\n      mload(0x40)\n      swap1\n      dup2\n      add\n      0x40\n      mstore\n      dup1\n      swap3\n      swap2\n      swap1\n      dup2\n      dup2\n      mstore\n      0x20\n      add\n      dup3\n      dup1\n      sload\n      tag_158\n      swap1\n      tag_157\n      jump\t// in\n    tag_158:\n      dup1\n      iszero\n      tag_159\n      jumpi\n      dup1\n      0x1f\n      lt\n      tag_160\n      jumpi\n      0x0100\n      dup1\n      dup4\n      sload\n      div\n      mul\n      dup4\n      mstore\n      swap2\n      0x20\n      add\n      swap2\n      jump(tag_159)\n    tag_160:\n      dup3\n      add\n      swap2\n      swap1\n      0x00\n      mstore\n      keccak256(0x00, 0x20)\n      swap1\n    tag_161:\n      dup2\n      sload\n      dup2\n      mstore\n      swap1\n      0x01\n      add\n      swap1\n      0x20\n      add\n      dup1\n      dup4\n      gt\n      tag_161\n      jumpi\n      dup3\n      swap1\n      sub\n      0x1f\n      and\n      dup3\n      add\n      swap2\n    tag_159:\n      pop\n      pop\n      pop\n      pop\n      pop\n      swap2\n      pop\n      pop\n        /* \"@openzeppelin/contracts-upgradeable/token/ERC20/ERC20Upgradeable.sol\":3011:3155  function name() public view virtual returns (string memory) {... */\n      swap1\n      jump\t// out\n        /* \"@openzeppelin/contracts-upgradeable/token/ERC20/ERC20Upgradeable.sol\":5505:5691  function approve(address spender, uint256 value) public virtual returns (bool) {... */\n    tag_42:\n        /* \"@openzeppelin/contracts-upgradeable/token/ERC20/ERC20Upgradeable.sol\":5578:5582  bool */\n      0x00\n        /* \"@openzeppelin/contracts-upgradeable/utils/ContextUpgradeable.sol\":966:976  msg.sender */\n      caller\n        /* \"@openzeppelin/contracts-upgradeable/token/ERC20/ERC20Upgradeable.sol\":5632:5663  _approve(owner, spender, value) */\n      tag_165\n        /* \"@openzeppelin/contracts-upgradeable/utils/ContextUpgradeable.sol\":966:976  msg.sender */\n      dup2\n        /* \"@openzeppelin/contracts-upgradeable/token/ERC20/ERC20Upgradeable.sol\":5648:5655  spender */\n      dup6\n        /* \"@openzeppelin/contracts-upgradeable/token/ERC20/ERC20Upgradeable.sol\":5657:5662  value */\n      dup6\n        /* \"@openzeppelin/contracts-upgradeable/token/ERC20/ERC20Upgradeable.sol\":5632:5640  _approve */\n      tag_166\n        /* \"@openzeppelin/contracts-upgradeable/token/ERC20/ERC20Upgradeable.sol\":5632:5663  _approve(owner, spender, value) */\n      jump\t// in\n    tag_165:\n        /* \"@openzeppelin/contracts-upgradeable/token/ERC20/ERC20Upgradeable.sol\":5680:5684  true */\n      0x01\n        /* \"@openzeppelin/contracts-upgradeable/token/ERC20/ERC20Upgradeable.sol\":5673:5684  return true */\n      swap2\n      pop\n      pop\n        /* \"@openzeppelin/contracts-upgradeable/token/ERC20/ERC20Upgradeable.sol\":5505:5691  function approve(address spender, uint256 value) public virtual returns (bool) {... */\n    tag_162:\n      swap3\n      swap2\n      pop\n      pop\n      jump\t// out\n        /* \"@openzeppelin/contracts-upgradeable/token/ERC20/ERC20Upgradeable.sol\":6251:6495  function transferFrom(address from, address to, uint256 value) public virtual returns (bool) {... */\n    tag_54:\n        /* \"@openzeppelin/contracts-upgradeable/token/ERC20/ERC20Upgradeable.sol\":6338:6342  bool */\n      0x00\n        /* \"@openzeppelin/contracts-upgradeable/utils/ContextUpgradeable.sol\":966:976  msg.sender */\n      caller\n        /* \"@openzeppelin/contracts-upgradeable/token/ERC20/ERC20Upgradeable.sol\":6394:6431  _spendAllowance(from, spender, value) */\n      tag_171\n        /* \"@openzeppelin/contracts-upgradeable/token/ERC20/ERC20Upgradeable.sol\":6410:6414  from */\n      dup6\n        /* \"@openzeppelin/contracts-upgradeable/utils/ContextUpgradeable.sol\":966:976  msg.sender */\n      dup3\n        /* \"@openzeppelin/contracts-upgradeable/token/ERC20/ERC20Upgradeable.sol\":6425:6430  value */\n      dup6\n        /* \"@openzeppelin/contracts-upgradeable/token/ERC20/ERC20Upgradeable.sol\":6394:6409  _spendAllowance */\n      tag_172\n        /* \"@openzeppelin/contracts-upgradeable/token/ERC20/ERC20Upgradeable.sol\":6394:6431  _spendAllowance(from, spender, value) */\n      jump\t// in\n    tag_171:\n        /* \"@openzeppelin/contracts-upgradeable/token/ERC20/ERC20Upgradeable.sol\":6441:6467  _transfer(from, to, value) */\n      tag_173\n        /* \"@openzeppelin/contracts-upgradeable/token/ERC20/ERC20Upgradeable.sol\":6451:6455  from */\n      dup6\n        /* \"@openzeppelin/contracts-upgradeable/token/ERC20/ERC20Upgradeable.sol\":6457:6459  to */\n      dup6\n        /* \"@openzeppelin/contracts-upgradeable/token/ERC20/ERC20Upgradeable.sol\":6461:6466  value */\n      dup6\n        /* \"@openzeppelin/contracts-upgradeable/token/ERC20/ERC20Upgradeable.sol\":6441:6450  _transfer */\n      tag_174\n        /* \"@openzeppelin/contracts-upgradeable/token/ERC20/ERC20Upgradeable.sol\":6441:6467  _transfer(from, to, value) */\n      jump\t// in\n    tag_173:\n        /* \"@openzeppelin/contracts-upgradeable/token/ERC20/ERC20Upgradeable.sol\":6484:6488  true */\n      0x01\n        /* \"@openzeppelin/contracts-upgradeable/token/ERC20/ERC20Upgradeable.sol\":6477:6488  return true */\n      swap2\n      pop\n      pop\n        /* \"@openzeppelin/contracts-upgradeable/token/ERC20/ERC20Upgradeable.sol\":6251:6495  function transferFrom(address from, address to, uint256 value) public virtual returns (bool) {... */\n    tag_169:\n      swap4\n      swap3\n      pop\n      pop\n      pop\n      jump\t// out\n        /* \"@openzeppelin/contracts-upgradeable/token/ERC20/extensions/ERC20PermitUpgradeable.sol\":3082:3194  function DOMAIN_SEPARATOR() external view virtual returns (bytes32) {... */\n    tag_63:\n        /* \"@openzeppelin/contracts-upgradeable/token/ERC20/extensions/ERC20PermitUpgradeable.sol\":3141:3148  bytes32 */\n      0x00\n        /* \"@openzeppelin/contracts-upgradeable/token/ERC20/extensions/ERC20PermitUpgradeable.sol\":3167:3187  _domainSeparatorV4() */\n      tag_177\n        /* \"@openzeppelin/contracts-upgradeable/token/ERC20/extensions/ERC20PermitUpgradeable.sol\":3167:3185  _domainSeparatorV4 */\n      tag_178\n        /* \"@openzeppelin/contracts-upgradeable/token/ERC20/extensions/ERC20PermitUpgradeable.sol\":3167:3187  _domainSeparatorV4() */\n      jump\t// in\n    tag_177:\n        /* \"@openzeppelin/contracts-upgradeable/token/ERC20/extensions/ERC20PermitUpgradeable.sol\":3160:3187  return _domainSeparatorV4() */\n      swap1\n      pop\n        /* \"@openzeppelin/contracts-upgradeable/token/ERC20/extensions/ERC20PermitUpgradeable.sol\":3082:3194  function DOMAIN_SEPARATOR() external view virtual returns (bytes32) {... */\n      swap1\n      jump\t// out\n        /* \"contracts/MyToken.sol\":1297:1360  function unpause() public onlyOwner {... */\n    tag_68:\n        /* \"@openzeppelin/contracts-upgradeable/access/OwnableUpgradeable.sol\":2334:2347  _checkOwner() */\n      tag_180\n        /* \"@openzeppelin/contracts-upgradeable/access/OwnableUpgradeable.sol\":2334:2345  _checkOwner */\n      tag_181\n        /* \"@openzeppelin/contracts-upgradeable/access/OwnableUpgradeable.sol\":2334:2347  _checkOwner() */\n      jump\t// in\n    tag_180:\n        /* \"contracts/MyToken.sol\":1343:1353  _unpause() */\n      tag_183\n        /* \"contracts/MyToken.sol\":1343:1351  _unpause */\n      tag_184\n        /* \"contracts/MyToken.sol\":1343:1353  _unpause() */\n      jump\t// in\n    tag_183:\n        /* \"contracts/MyToken.sol\":1297:1360  function unpause() public onlyOwner {... */\n      jump\t// out\n        /* \"contracts/MyToken.sol\":1366:1459  function mint(address to, uint256 amount) public onlyOwner {... */\n    tag_72:\n        /* \"@openzeppelin/contracts-upgradeable/access/OwnableUpgradeable.sol\":2334:2347  _checkOwner() */\n      tag_186\n        /* \"@openzeppelin/contracts-upgradeable/access/OwnableUpgradeable.sol\":2334:2345  _checkOwner */\n      tag_181\n        /* \"@openzeppelin/contracts-upgradeable/access/OwnableUpgradeable.sol\":2334:2347  _checkOwner() */\n      jump\t// in\n    tag_186:\n        /* \"contracts/MyToken.sol\":1435:1452  _mint(to, amount) */\n      tag_188\n        /* \"contracts/MyToken.sol\":1441:1443  to */\n      dup3\n        /* \"contracts/MyToken.sol\":1445:1451  amount */\n      dup3\n        /* \"contracts/MyToken.sol\":1435:1440  _mint */\n      tag_189\n        /* \"contracts/MyToken.sol\":1435:1452  _mint(to, amount) */\n      jump\t// in\n    tag_188:\n        /* \"contracts/MyToken.sol\":1366:1459  function mint(address to, uint256 amount) public onlyOwner {... */\n      pop\n      pop\n      jump\t// out\n        /* \"@openzeppelin/contracts-upgradeable/token/ERC20/extensions/ERC20BurnableUpgradeable.sol\":931:1018  function burn(uint256 value) public virtual {... */\n    tag_77:\n        /* \"@openzeppelin/contracts-upgradeable/token/ERC20/extensions/ERC20BurnableUpgradeable.sol\":985:1011  _burn(_msgSender(), value) */\n      tag_191\n        /* \"@openzeppelin/contracts-upgradeable/utils/ContextUpgradeable.sol\":966:976  msg.sender */\n      caller\n        /* \"@openzeppelin/contracts-upgradeable/token/ERC20/extensions/ERC20BurnableUpgradeable.sol\":1005:1010  value */\n      dup3\n        /* \"@openzeppelin/contracts-upgradeable/token/ERC20/extensions/ERC20BurnableUpgradeable.sol\":985:990  _burn */\n      tag_193\n        /* \"@openzeppelin/contracts-upgradeable/token/ERC20/extensions/ERC20BurnableUpgradeable.sol\":985:1011  _burn(_msgSender(), value) */\n      jump\t// in\n    tag_191:\n        /* \"@openzeppelin/contracts-upgradeable/token/ERC20/extensions/ERC20BurnableUpgradeable.sol\":931:1018  function burn(uint256 value) public virtual {... */\n      pop\n      jump\t// out\n        /* \"@openzeppelin/contracts-upgradeable/proxy/utils/UUPSUpgradeable.sol\":4158:4372  function upgradeToAndCall(address newImplementation, bytes memory data) public payable virtual onlyProxy {... */\n    tag_81:\n        /* \"@openzeppelin/contracts-upgradeable/proxy/utils/UUPSUpgradeable.sol\":2653:2666  _checkProxy() */\n      tag_195\n        /* \"@openzeppelin/contracts-upgradeable/proxy/utils/UUPSUpgradeable.sol\":2653:2664  _checkProxy */\n      tag_196\n        /* \"@openzeppelin/contracts-upgradeable/proxy/utils/UUPSUpgradeable.sol\":2653:2666  _checkProxy() */\n      jump\t// in\n    tag_195:\n        /* \"@openzeppelin/contracts-upgradeable/proxy/utils/UUPSUpgradeable.sol\":4273:4309  _authorizeUpgrade(newImplementation) */\n      tag_198\n        /* \"@openzeppelin/contracts-upgradeable/proxy/utils/UUPSUpgradeable.sol\":4291:4308  newImplementation */\n      dup3\n        /* \"@openzeppelin/contracts-upgradeable/proxy/utils/UUPSUpgradeable.sol\":4273:4290  _authorizeUpgrade */\n      tag_199\n        /* \"@openzeppelin/contracts-upgradeable/proxy/utils/UUPSUpgradeable.sol\":4273:4309  _authorizeUpgrade(newImplementation) */\n      jump\t// in\n    tag_198:\n        /* \"@openzeppelin/contracts-upgradeable/proxy/utils/UUPSUpgradeable.sol\":4319:4365  _upgradeToAndCallUUPS(newImplementation, data) */\n      tag_188\n        /* \"@openzeppelin/contracts-upgradeable/proxy/utils/UUPSUpgradeable.sol\":4341:4358  newImplementation */\n      dup3\n        /* \"@openzeppelin/contracts-upgradeable/proxy/utils/UUPSUpgradeable.sol\":4360:4364  data */\n      dup3\n        /* \"@openzeppelin/contracts-upgradeable/proxy/utils/UUPSUpgradeable.sol\":4319:4340  _upgradeToAndCallUUPS */\n      tag_201\n        /* \"@openzeppelin/contracts-upgradeable/proxy/utils/UUPSUpgradeable.sol\":4319:4365  _upgradeToAndCallUUPS(newImplementation, data) */\n      jump\t// in\n        /* \"@openzeppelin/contracts-upgradeable/proxy/utils/UUPSUpgradeable.sol\":3705:3839  function proxiableUUID() external view virtual notDelegated returns (bytes32) {... */\n    tag_84:\n        /* \"@openzeppelin/contracts-upgradeable/proxy/utils/UUPSUpgradeable.sol\":3774:3781  bytes32 */\n      0x00\n        /* \"@openzeppelin/contracts-upgradeable/proxy/utils/UUPSUpgradeable.sol\":2924:2944  _checkNotDelegated() */\n      tag_203\n        /* \"@openzeppelin/contracts-upgradeable/proxy/utils/UUPSUpgradeable.sol\":2924:2942  _checkNotDelegated */\n      tag_204\n        /* \"@openzeppelin/contracts-upgradeable/proxy/utils/UUPSUpgradeable.sol\":2924:2944  _checkNotDelegated() */\n      jump\t// in\n    tag_203:\n      pop\n      0x00\n      dup1\n      mload\n      0x20\n      data_75b20eef8615de99c108b05f0dbda081c91897128caa336d75dffb97c4132b4d\n      dup4\n      codecopy\n      dup2\n      mload\n      swap2\n      mstore\n        /* \"@openzeppelin/contracts-upgradeable/proxy/utils/UUPSUpgradeable.sol\":3705:3839  function proxiableUUID() external view virtual notDelegated returns (bytes32) {... */\n      swap1\n      jump\t// out\n        /* \"@openzeppelin/contracts-upgradeable/token/ERC20/ERC20Upgradeable.sol\":4401:4572  function balanceOf(address account) public view virtual returns (uint256) {... */\n    tag_94:\n        /* \"@openzeppelin/contracts-upgradeable/token/ERC20/ERC20Upgradeable.sol\":4466:4473  uint256 */\n      0x00\n      dup1\n      0x00\n      dup1\n      mload\n      0x20\n      data_3874827173e8df9f34323b12b251d1d3c53926ce129e30a0d69f1d47c277041b\n      dup4\n      codecopy\n      dup2\n      mload\n      swap2\n      mstore\n        /* \"@openzeppelin/contracts-upgradeable/token/ERC20/ERC20Upgradeable.sol\":4510:4528  _getERC20Storage() */\n    tag_210:\n      sub(shl(0xa0, 0x01), 0x01)\n        /* \"@openzeppelin/contracts-upgradeable/token/ERC20/ERC20Upgradeable.sol\":4545:4565  $._balances[account] */\n      swap1\n      swap4\n      and\n        /* \"@openzeppelin/contracts-upgradeable/token/ERC20/ERC20Upgradeable.sol\":4545:4556  $._balances */\n      0x00\n        /* \"@openzeppelin/contracts-upgradeable/token/ERC20/ERC20Upgradeable.sol\":4545:4565  $._balances[account] */\n      swap1\n      dup2\n      mstore\n      0x20\n      swap4\n      swap1\n      swap4\n      mstore\n      pop\n      pop\n      0x40\n      swap1\n      keccak256\n      sload\n      swap1\n        /* \"@openzeppelin/contracts-upgradeable/token/ERC20/ERC20Upgradeable.sol\":4401:4572  function balanceOf(address account) public view virtual returns (uint256) {... */\n      jump\t// out\n        /* \"@openzeppelin/contracts-upgradeable/access/OwnableUpgradeable.sol\":3155:3256  function renounceOwnership() public virtual onlyOwner {... */\n    tag_98:\n        /* \"@openzeppelin/contracts-upgradeable/access/OwnableUpgradeable.sol\":2334:2347  _checkOwner() */\n      tag_212\n        /* \"@openzeppelin/contracts-upgradeable/access/OwnableUpgradeable.sol\":2334:2345  _checkOwner */\n      tag_181\n        /* \"@openzeppelin/contracts-upgradeable/access/OwnableUpgradeable.sol\":2334:2347  _checkOwner() */\n      jump\t// in\n    tag_212:\n        /* \"@openzeppelin/contracts-upgradeable/access/OwnableUpgradeable.sol\":3219:3249  _transferOwnership(address(0)) */\n      tag_183\n        /* \"@openzeppelin/contracts-upgradeable/access/OwnableUpgradeable.sol\":3246:3247  0 */\n      0x00\n        /* \"@openzeppelin/contracts-upgradeable/access/OwnableUpgradeable.sol\":3219:3237  _transferOwnership */\n      tag_215\n        /* \"@openzeppelin/contracts-upgradeable/access/OwnableUpgradeable.sol\":3219:3249  _transferOwnership(address(0)) */\n      jump\t// in\n        /* \"@openzeppelin/contracts-upgradeable/token/ERC20/extensions/ERC20BurnableUpgradeable.sol\":1334:1492  function burnFrom(address account, uint256 value) public virtual {... */\n    tag_102:\n        /* \"@openzeppelin/contracts-upgradeable/token/ERC20/extensions/ERC20BurnableUpgradeable.sol\":1409:1454  _spendAllowance(account, _msgSender(), value) */\n      tag_217\n        /* \"@openzeppelin/contracts-upgradeable/token/ERC20/extensions/ERC20BurnableUpgradeable.sol\":1425:1432  account */\n      dup3\n        /* \"@openzeppelin/contracts-upgradeable/utils/ContextUpgradeable.sol\":966:976  msg.sender */\n      caller\n        /* \"@openzeppelin/contracts-upgradeable/token/ERC20/extensions/ERC20BurnableUpgradeable.sol\":1448:1453  value */\n      dup4\n        /* \"@openzeppelin/contracts-upgradeable/token/ERC20/extensions/ERC20BurnableUpgradeable.sol\":1409:1424  _spendAllowance */\n      tag_172\n        /* \"@openzeppelin/contracts-upgradeable/token/ERC20/extensions/ERC20BurnableUpgradeable.sol\":1409:1454  _spendAllowance(account, _msgSender(), value) */\n      jump\t// in\n    tag_217:\n        /* \"@openzeppelin/contracts-upgradeable/token/ERC20/extensions/ERC20BurnableUpgradeable.sol\":1464:1485  _burn(account, value) */\n      tag_188\n        /* \"@openzeppelin/contracts-upgradeable/token/ERC20/extensions/ERC20BurnableUpgradeable.sol\":1470:1477  account */\n      dup3\n        /* \"@openzeppelin/contracts-upgradeable/token/ERC20/extensions/ERC20BurnableUpgradeable.sol\":1479:1484  value */\n      dup3\n        /* \"@openzeppelin/contracts-upgradeable/token/ERC20/extensions/ERC20BurnableUpgradeable.sol\":1464:1469  _burn */\n      tag_193\n        /* \"@openzeppelin/contracts-upgradeable/token/ERC20/extensions/ERC20BurnableUpgradeable.sol\":1464:1485  _burn(account, value) */\n      jump\t// in\n        /* \"@openzeppelin/contracts-upgradeable/token/ERC20/extensions/ERC20PermitUpgradeable.sol\":2821:2975  function nonces(address owner) public view virtual override(IERC20Permit, NoncesUpgradeable) returns (uint256) {... */\n    tag_106:\n        /* \"@openzeppelin/contracts-upgradeable/token/ERC20/extensions/ERC20PermitUpgradeable.sol\":2923:2930  uint256 */\n      0x00\n        /* \"@openzeppelin/contracts-upgradeable/token/ERC20/extensions/ERC20PermitUpgradeable.sol\":2949:2968  super.nonces(owner) */\n      tag_162\n        /* \"@openzeppelin/contracts-upgradeable/token/ERC20/extensions/ERC20PermitUpgradeable.sol\":2962:2967  owner */\n      dup3\n        /* \"@openzeppelin/contracts-upgradeable/token/ERC20/extensions/ERC20PermitUpgradeable.sol\":2949:2961  super.nonces */\n      tag_222\n        /* \"@openzeppelin/contracts-upgradeable/token/ERC20/extensions/ERC20PermitUpgradeable.sol\":2949:2968  super.nonces(owner) */\n      jump\t// in\n        /* \"contracts/MyToken.sol\":1232:1291  function pause() public onlyOwner {... */\n    tag_110:\n        /* \"@openzeppelin/contracts-upgradeable/access/OwnableUpgradeable.sol\":2334:2347  _checkOwner() */\n      tag_224\n        /* \"@openzeppelin/contracts-upgradeable/access/OwnableUpgradeable.sol\":2334:2345  _checkOwner */\n      tag_181\n        /* \"@openzeppelin/contracts-upgradeable/access/OwnableUpgradeable.sol\":2334:2347  _checkOwner() */\n      jump\t// in\n    tag_224:\n        /* \"contracts/MyToken.sol\":1276:1284  _pause() */\n      tag_183\n        /* \"contracts/MyToken.sol\":1276:1282  _pause */\n      tag_227\n        /* \"contracts/MyToken.sol\":1276:1284  _pause() */\n      jump\t// in\n        /* \"@openzeppelin/contracts-upgradeable/utils/cryptography/EIP712Upgradeable.sol\":5173:6076  function eip712Domain()... */\n    tag_113:\n        /* \"@openzeppelin/contracts-upgradeable/utils/cryptography/EIP712Upgradeable.sol\":5271:5284  bytes1 fields */\n      0x00\n        /* \"@openzeppelin/contracts-upgradeable/utils/cryptography/EIP712Upgradeable.sol\":5298:5316  string memory name */\n      0x60\n      dup1\n        /* \"@openzeppelin/contracts-upgradeable/utils/cryptography/EIP712Upgradeable.sol\":5271:5284  bytes1 fields */\n      dup3\n      dup1\n      dup1\n        /* \"@openzeppelin/contracts-upgradeable/utils/cryptography/EIP712Upgradeable.sol\":5298:5316  string memory name */\n      dup4\n        /* \"@openzeppelin/contracts-upgradeable/utils/cryptography/EIP712Upgradeable.sol\":5271:5284  bytes1 fields */\n      dup2\n      0x00\n      dup1\n      mload\n      0x20\n      data_60016240b4caf95ce61ff2092e1488b3d1aff76bee1c89f54239447d6827d736\n      dup4\n      codecopy\n      dup2\n      mload\n      swap2\n      mstore\n        /* \"@openzeppelin/contracts-upgradeable/utils/cryptography/EIP712Upgradeable.sol\":5777:5790  $._hashedName */\n      dup1\n      sload\n        /* \"@openzeppelin/contracts-upgradeable/utils/cryptography/EIP712Upgradeable.sol\":5511:5556  EIP712Storage storage $ = _getEIP712Storage() */\n      swap1\n      swap2\n      pop\n        /* \"@openzeppelin/contracts-upgradeable/utils/cryptography/EIP712Upgradeable.sol\":5777:5795  $._hashedName == 0 */\n      iszero\n        /* \"@openzeppelin/contracts-upgradeable/utils/cryptography/EIP712Upgradeable.sol\":5777:5820  $._hashedName == 0 && $._hashedVersion == 0 */\n      dup1\n      iszero\n      tag_231\n      jumpi\n      pop\n        /* \"@openzeppelin/contracts-upgradeable/utils/cryptography/EIP712Upgradeable.sol\":5799:5815  $._hashedVersion */\n      0x01\n      dup2\n      add\n      sload\n        /* \"@openzeppelin/contracts-upgradeable/utils/cryptography/EIP712Upgradeable.sol\":5799:5820  $._hashedVersion == 0 */\n      iszero\n        /* \"@openzeppelin/contracts-upgradeable/utils/cryptography/EIP712Upgradeable.sol\":5777:5820  $._hashedName == 0 && $._hashedVersion == 0 */\n    tag_231:\n        /* \"@openzeppelin/contracts-upgradeable/utils/cryptography/EIP712Upgradeable.sol\":5769:5846  require($._hashedName == 0 && $._hashedVersion == 0, \"EIP712: Uninitialized\") */\n      tag_232\n      jumpi\n      mload(0x40)\n      shl(0xe5, 0x461bcd)\n      dup2\n      mstore\n        /* \"#utility.yul\":6815:6817   */\n      0x20\n        /* \"@openzeppelin/contracts-upgradeable/utils/cryptography/EIP712Upgradeable.sol\":5769:5846  require($._hashedName == 0 && $._hashedVersion == 0, \"EIP712: Uninitialized\") */\n      0x04\n      dup3\n      add\n        /* \"#utility.yul\":6797:6818   */\n      mstore\n        /* \"#utility.yul\":6854:6856   */\n      0x15\n        /* \"#utility.yul\":6834:6852   */\n      0x24\n      dup3\n      add\n        /* \"#utility.yul\":6827:6857   */\n      mstore\n      shl(0x5a, 0x1152540dcc4c8e88155b9a5b9a5d1a585b1a5e9959)\n        /* \"#utility.yul\":6873:6891   */\n      0x44\n      dup3\n      add\n        /* \"#utility.yul\":6866:6917   */\n      mstore\n        /* \"#utility.yul\":6934:6952   */\n      0x64\n      add\n        /* \"@openzeppelin/contracts-upgradeable/utils/cryptography/EIP712Upgradeable.sol\":5769:5846  require($._hashedName == 0 && $._hashedVersion == 0, \"EIP712: Uninitialized\") */\n    tag_233:\n      mload(0x40)\n      dup1\n      swap2\n      sub\n      swap1\n      revert\n    tag_232:\n        /* \"@openzeppelin/contracts-upgradeable/utils/cryptography/EIP712Upgradeable.sol\":5908:5921  _EIP712Name() */\n      tag_235\n        /* \"@openzeppelin/contracts-upgradeable/utils/cryptography/EIP712Upgradeable.sol\":5908:5919  _EIP712Name */\n      tag_236\n        /* \"@openzeppelin/contracts-upgradeable/utils/cryptography/EIP712Upgradeable.sol\":5908:5921  _EIP712Name() */\n      jump\t// in\n    tag_235:\n        /* \"@openzeppelin/contracts-upgradeable/utils/cryptography/EIP712Upgradeable.sol\":5935:5951  _EIP712Version() */\n      tag_237\n        /* \"@openzeppelin/contracts-upgradeable/utils/cryptography/EIP712Upgradeable.sol\":5935:5949  _EIP712Version */\n      tag_238\n        /* \"@openzeppelin/contracts-upgradeable/utils/cryptography/EIP712Upgradeable.sol\":5935:5951  _EIP712Version() */\n      jump\t// in\n    tag_237:\n        /* \"@openzeppelin/contracts-upgradeable/utils/cryptography/EIP712Upgradeable.sol\":6043:6059  new uint256[](0) */\n      0x40\n      dup1\n      mload\n        /* \"@openzeppelin/contracts-upgradeable/utils/cryptography/EIP712Upgradeable.sol\":6027:6028  0 */\n      0x00\n        /* \"@openzeppelin/contracts-upgradeable/utils/cryptography/EIP712Upgradeable.sol\":6043:6059  new uint256[](0) */\n      dup1\n      dup3\n      mstore\n      0x20\n      dup3\n      add\n      swap1\n      swap3\n      mstore\n      shl(0xf8, 0x0f)\n        /* \"@openzeppelin/contracts-upgradeable/utils/cryptography/EIP712Upgradeable.sol\":5857:6069  return (... */\n      swap13\n      swap4\n      swap12\n      pop\n      swap2\n      swap10\n      pop\n        /* \"@openzeppelin/contracts-upgradeable/utils/cryptography/EIP712Upgradeable.sol\":5965:5978  block.chainid */\n      chainid\n      swap9\n      pop\n        /* \"@openzeppelin/contracts-upgradeable/utils/cryptography/EIP712Upgradeable.sol\":6000:6004  this */\n      address\n      swap8\n      pop\n        /* \"@openzeppelin/contracts-upgradeable/utils/cryptography/EIP712Upgradeable.sol\":6027:6028  0 */\n      swap6\n      pop\n        /* \"@openzeppelin/contracts-upgradeable/utils/cryptography/EIP712Upgradeable.sol\":6043:6059  new uint256[](0) */\n      swap4\n      pop\n        /* \"@openzeppelin/contracts-upgradeable/utils/cryptography/EIP712Upgradeable.sol\":5857:6069  return (... */\n      swap2\n      pop\n      pop\n        /* \"@openzeppelin/contracts-upgradeable/utils/cryptography/EIP712Upgradeable.sol\":5173:6076  function eip712Domain()... */\n      jump\t// out\n        /* \"@openzeppelin/contracts-upgradeable/token/ERC20/ERC20Upgradeable.sol\":3268:3416  function symbol() public view virtual returns (string memory) {... */\n    tag_123:\n        /* \"@openzeppelin/contracts-upgradeable/token/ERC20/ERC20Upgradeable.sol\":3400:3409  $._symbol */\n      0x52c63247e1f47db19d5ce0460030c497f067ca4cebf71ba98eeadabe20bace04\n        /* \"@openzeppelin/contracts-upgradeable/token/ERC20/ERC20Upgradeable.sol\":3393:3409  return $._symbol */\n      dup1\n      sload\n        /* \"@openzeppelin/contracts-upgradeable/token/ERC20/ERC20Upgradeable.sol\":3315:3328  string memory */\n      0x60\n      swap2\n      0x00\n      dup1\n      mload\n      0x20\n      data_3874827173e8df9f34323b12b251d1d3c53926ce129e30a0d69f1d47c277041b\n      dup4\n      codecopy\n      dup2\n      mload\n      swap2\n      mstore\n        /* \"@openzeppelin/contracts-upgradeable/token/ERC20/ERC20Upgradeable.sol\":2359:2379  ERC20StorageLocation */\n      swap2\n        /* \"@openzeppelin/contracts-upgradeable/token/ERC20/ERC20Upgradeable.sol\":3393:3409  return $._symbol */\n      tag_156\n      swap1\n      tag_157\n      jump\t// in\n        /* \"@openzeppelin/contracts-upgradeable/token/ERC20/ERC20Upgradeable.sol\":4767:4945  function transfer(address to, uint256 value) public virtual returns (bool) {... */\n    tag_128:\n        /* \"@openzeppelin/contracts-upgradeable/token/ERC20/ERC20Upgradeable.sol\":4836:4840  bool */\n      0x00\n        /* \"@openzeppelin/contracts-upgradeable/utils/ContextUpgradeable.sol\":966:976  msg.sender */\n      caller\n        /* \"@openzeppelin/contracts-upgradeable/token/ERC20/ERC20Upgradeable.sol\":4890:4917  _transfer(owner, to, value) */\n      tag_165\n        /* \"@openzeppelin/contracts-upgradeable/utils/ContextUpgradeable.sol\":966:976  msg.sender */\n      dup2\n        /* \"@openzeppelin/contracts-upgradeable/token/ERC20/ERC20Upgradeable.sol\":4907:4909  to */\n      dup6\n        /* \"@openzeppelin/contracts-upgradeable/token/ERC20/ERC20Upgradeable.sol\":4911:4916  value */\n      dup6\n        /* \"@openzeppelin/contracts-upgradeable/token/ERC20/ERC20Upgradeable.sol\":4890:4899  _transfer */\n      tag_174\n        /* \"@openzeppelin/contracts-upgradeable/token/ERC20/ERC20Upgradeable.sol\":4890:4917  _transfer(owner, to, value) */\n      jump\t// in\n        /* \"contracts/MyToken.sol\":943:1226  function initialize(address initialOwner) initializer public {... */\n    tag_137:\n        /* \"@openzeppelin/contracts-upgradeable/proxy/utils/Initializable.sol\":8870:8891  INITIALIZABLE_STORAGE */\n      0xf0c57e16840df040f15088dc2f81fe391c3923bec73e23a9662efc9c229c6a00\n        /* \"@openzeppelin/contracts-upgradeable/proxy/utils/Initializable.sol\":4302:4317  $._initializing */\n      dup1\n      sload\n      shl(0x40, 0x01)\n      dup2\n      div\n      0xff\n      and\n        /* \"@openzeppelin/contracts-upgradeable/proxy/utils/Initializable.sol\":4301:4317  !$._initializing */\n      iszero\n      swap1\n        /* \"@openzeppelin/contracts-upgradeable/proxy/utils/Initializable.sol\":4348:4362  $._initialized */\n      0xffffffffffffffff\n      and\n        /* \"@openzeppelin/contracts-upgradeable/proxy/utils/Initializable.sol\":4158:4188  InitializableStorage storage $ */\n      0x00\n        /* \"@openzeppelin/contracts-upgradeable/proxy/utils/Initializable.sol\":4726:4742  initialized == 0 */\n      dup2\n      iszero\n        /* \"@openzeppelin/contracts-upgradeable/proxy/utils/Initializable.sol\":4726:4760  initialized == 0 && isTopLevelCall */\n      dup1\n      iszero\n      tag_259\n      jumpi\n      pop\n        /* \"@openzeppelin/contracts-upgradeable/proxy/utils/Initializable.sol\":4746:4760  isTopLevelCall */\n      dup3\n        /* \"@openzeppelin/contracts-upgradeable/proxy/utils/Initializable.sol\":4726:4760  initialized == 0 && isTopLevelCall */\n    tag_259:\n        /* \"@openzeppelin/contracts-upgradeable/proxy/utils/Initializable.sol\":4706:4760  bool initialSetup = initialized == 0 && isTopLevelCall */\n      swap1\n      pop\n        /* \"@openzeppelin/contracts-upgradeable/proxy/utils/Initializable.sol\":4770:4787  bool construction */\n      0x00\n        /* \"@openzeppelin/contracts-upgradeable/proxy/utils/Initializable.sol\":4790:4801  initialized */\n      dup3\n        /* \"@openzeppelin/contracts-upgradeable/proxy/utils/Initializable.sol\":4790:4806  initialized == 1 */\n      0xffffffffffffffff\n      and\n        /* \"@openzeppelin/contracts-upgradeable/proxy/utils/Initializable.sol\":4805:4806  1 */\n      0x01\n        /* \"@openzeppelin/contracts-upgradeable/proxy/utils/Initializable.sol\":4790:4806  initialized == 1 */\n      eq\n        /* \"@openzeppelin/contracts-upgradeable/proxy/utils/Initializable.sol\":4790:4840  initialized == 1 && address(this).code.length == 0 */\n      dup1\n      iszero\n      tag_260\n      jumpi\n      pop\n        /* \"@openzeppelin/contracts-upgradeable/proxy/utils/Initializable.sol\":4818:4822  this */\n      address\n        /* \"@openzeppelin/contracts-upgradeable/proxy/utils/Initializable.sol\":4810:4835  address(this).code.length */\n      extcodesize\n        /* \"@openzeppelin/contracts-upgradeable/proxy/utils/Initializable.sol\":4810:4840  address(this).code.length == 0 */\n      iszero\n        /* \"@openzeppelin/contracts-upgradeable/proxy/utils/Initializable.sol\":4790:4840  initialized == 1 && address(this).code.length == 0 */\n    tag_260:\n        /* \"@openzeppelin/contracts-upgradeable/proxy/utils/Initializable.sol\":4770:4840  bool construction = initialized == 1 && address(this).code.length == 0 */\n      swap1\n      pop\n        /* \"@openzeppelin/contracts-upgradeable/proxy/utils/Initializable.sol\":4856:4868  initialSetup */\n      dup2\n        /* \"@openzeppelin/contracts-upgradeable/proxy/utils/Initializable.sol\":4855:4868  !initialSetup */\n      iszero\n        /* \"@openzeppelin/contracts-upgradeable/proxy/utils/Initializable.sol\":4855:4885  !initialSetup && !construction */\n      dup1\n      iszero\n      tag_261\n      jumpi\n      pop\n        /* \"@openzeppelin/contracts-upgradeable/proxy/utils/Initializable.sol\":4873:4885  construction */\n      dup1\n        /* \"@openzeppelin/contracts-upgradeable/proxy/utils/Initializable.sol\":4872:4885  !construction */\n      iszero\n        /* \"@openzeppelin/contracts-upgradeable/proxy/utils/Initializable.sol\":4855:4885  !initialSetup && !construction */\n    tag_261:\n        /* \"@openzeppelin/contracts-upgradeable/proxy/utils/Initializable.sol\":4851:4942  if (!initialSetup && !construction) {... */\n      iszero\n      tag_262\n      jumpi\n        /* \"@openzeppelin/contracts-upgradeable/proxy/utils/Initializable.sol\":4908:4931  InvalidInitialization() */\n      mload(0x40)\n      shl(0xe0, 0xf92ee8a9)\n      dup2\n      mstore\n      0x04\n      add\n      mload(0x40)\n      dup1\n      swap2\n      sub\n      swap1\n      revert\n        /* \"@openzeppelin/contracts-upgradeable/proxy/utils/Initializable.sol\":4851:4942  if (!initialSetup && !construction) {... */\n    tag_262:\n        /* \"@openzeppelin/contracts-upgradeable/proxy/utils/Initializable.sol\":4951:4969  $._initialized = 1 */\n      dup5\n      sload\n      not(0xffffffffffffffff)\n      and\n        /* \"@openzeppelin/contracts-upgradeable/proxy/utils/Initializable.sol\":4968:4969  1 */\n      0x01\n        /* \"@openzeppelin/contracts-upgradeable/proxy/utils/Initializable.sol\":4951:4969  $._initialized = 1 */\n      or\n      dup6\n      sstore\n        /* \"@openzeppelin/contracts-upgradeable/proxy/utils/Initializable.sol\":4979:5046  if (isTopLevelCall) {... */\n      dup4\n      iszero\n      tag_263\n      jumpi\n        /* \"@openzeppelin/contracts-upgradeable/proxy/utils/Initializable.sol\":5013:5035  $._initializing = true */\n      dup5\n      sload\n      not(shl(0x40, 0xff))\n      and\n      shl(0x40, 0x01)\n      or\n      dup6\n      sstore\n        /* \"@openzeppelin/contracts-upgradeable/proxy/utils/Initializable.sol\":4979:5046  if (isTopLevelCall) {... */\n    tag_263:\n        /* \"contracts/MyToken.sol\":1014:1044  __ERC20_init(\"MyToken\", \"MTK\") */\n      tag_265\n      mload(0x40)\n      dup1\n      0x40\n      add\n      0x40\n      mstore\n      dup1\n      0x07\n      dup2\n      mstore\n      0x20\n      add\n      shl(0xc9, 0x26bcaa37b5b2b7)\n      dup2\n      mstore\n      pop\n      mload(0x40)\n      dup1\n      0x40\n      add\n      0x40\n      mstore\n      dup1\n      0x03\n      dup2\n      mstore\n      0x20\n      add\n      shl(0xe8, 0x4d544b)\n      dup2\n      mstore\n      pop\n        /* \"contracts/MyToken.sol\":1014:1026  __ERC20_init */\n      tag_266\n        /* \"contracts/MyToken.sol\":1014:1044  __ERC20_init(\"MyToken\", \"MTK\") */\n      jump\t// in\n    tag_265:\n        /* \"contracts/MyToken.sol\":1054:1076  __ERC20Burnable_init() */\n      tag_267\n        /* \"contracts/MyToken.sol\":1054:1074  __ERC20Burnable_init */\n      tag_268\n        /* \"contracts/MyToken.sol\":1054:1076  __ERC20Burnable_init() */\n      jump\t// in\n    tag_267:\n        /* \"contracts/MyToken.sol\":1086:1108  __ERC20Pausable_init() */\n      tag_269\n        /* \"contracts/MyToken.sol\":1086:1106  __ERC20Pausable_init */\n      tag_270\n        /* \"contracts/MyToken.sol\":1086:1108  __ERC20Pausable_init() */\n      jump\t// in\n    tag_269:\n        /* \"contracts/MyToken.sol\":1118:1146  __Ownable_init(initialOwner) */\n      tag_271\n        /* \"contracts/MyToken.sol\":1133:1145  initialOwner */\n      dup7\n        /* \"contracts/MyToken.sol\":1118:1132  __Ownable_init */\n      tag_272\n        /* \"contracts/MyToken.sol\":1118:1146  __Ownable_init(initialOwner) */\n      jump\t// in\n    tag_271:\n        /* \"contracts/MyToken.sol\":1156:1185  __ERC20Permit_init(\"MyToken\") */\n      tag_273\n      mload(0x40)\n      dup1\n      0x40\n      add\n      0x40\n      mstore\n      dup1\n      0x07\n      dup2\n      mstore\n      0x20\n      add\n      shl(0xc9, 0x26bcaa37b5b2b7)\n      dup2\n      mstore\n      pop\n        /* \"contracts/MyToken.sol\":1156:1174  __ERC20Permit_init */\n      tag_274\n        /* \"contracts/MyToken.sol\":1156:1185  __ERC20Permit_init(\"MyToken\") */\n      jump\t// in\n    tag_273:\n        /* \"contracts/MyToken.sol\":1195:1219  __UUPSUpgradeable_init() */\n      tag_275\n        /* \"contracts/MyToken.sol\":1195:1217  __UUPSUpgradeable_init */\n      tag_268\n        /* \"contracts/MyToken.sol\":1195:1219  __UUPSUpgradeable_init() */\n      jump\t// in\n    tag_275:\n        /* \"@openzeppelin/contracts-upgradeable/proxy/utils/Initializable.sol\":5070:5084  isTopLevelCall */\n      dup4\n        /* \"@openzeppelin/contracts-upgradeable/proxy/utils/Initializable.sol\":5066:5167  if (isTopLevelCall) {... */\n      iszero\n      tag_277\n      jumpi\n        /* \"@openzeppelin/contracts-upgradeable/proxy/utils/Initializable.sol\":5100:5123  $._initializing = false */\n      dup5\n      sload\n      not(shl(0x40, 0xff))\n      and\n      dup6\n      sstore\n        /* \"@openzeppelin/contracts-upgradeable/proxy/utils/Initializable.sol\":5142:5156  Initialized(1) */\n      mload(0x40)\n      0x01\n        /* \"#utility.yul\":7116:7166   */\n      dup2\n      mstore\n        /* \"@openzeppelin/contracts-upgradeable/proxy/utils/Initializable.sol\":5142:5156  Initialized(1) */\n      0xc7f505b2f371ae2175ee4913f4499e1f2633a7b5936321eed1cdaeb6115181d2\n      swap1\n        /* \"#utility.yul\":7104:7106   */\n      0x20\n        /* \"#utility.yul\":7089:7107   */\n      add\n        /* \"@openzeppelin/contracts-upgradeable/proxy/utils/Initializable.sol\":5142:5156  Initialized(1) */\n      mload(0x40)\n      dup1\n      swap2\n      sub\n      swap1\n      log1\n        /* \"@openzeppelin/contracts-upgradeable/proxy/utils/Initializable.sol\":5066:5167  if (isTopLevelCall) {... */\n    tag_277:\n        /* \"@openzeppelin/contracts-upgradeable/proxy/utils/Initializable.sol\":4092:5173  {... */\n      pop\n      pop\n      pop\n      pop\n      pop\n        /* \"contracts/MyToken.sol\":943:1226  function initialize(address initialOwner) initializer public {... */\n      pop\n      jump\t// out\n        /* \"@openzeppelin/contracts-upgradeable/token/ERC20/extensions/ERC20PermitUpgradeable.sol\":2095:2767  function permit(... */\n    tag_142:\n        /* \"@openzeppelin/contracts-upgradeable/token/ERC20/extensions/ERC20PermitUpgradeable.sol\":2316:2324  deadline */\n      dup4\n        /* \"@openzeppelin/contracts-upgradeable/token/ERC20/extensions/ERC20PermitUpgradeable.sol\":2298:2313  block.timestamp */\n      timestamp\n        /* \"@openzeppelin/contracts-upgradeable/token/ERC20/extensions/ERC20PermitUpgradeable.sol\":2298:2324  block.timestamp > deadline */\n      gt\n        /* \"@openzeppelin/contracts-upgradeable/token/ERC20/extensions/ERC20PermitUpgradeable.sol\":2294:2391  if (block.timestamp > deadline) {... */\n      iszero\n      tag_281\n      jumpi\n        /* \"@openzeppelin/contracts-upgradeable/token/ERC20/extensions/ERC20PermitUpgradeable.sol\":2347:2380  ERC2612ExpiredSignature(deadline) */\n      mload(0x40)\n      shl(0xe1, 0x313c8981)\n      dup2\n      mstore\n      0x04\n      dup2\n      add\n        /* \"#utility.yul\":1545:1570   */\n      dup6\n      swap1\n      mstore\n        /* \"#utility.yul\":1518:1536   */\n      0x24\n      add\n        /* \"@openzeppelin/contracts-upgradeable/token/ERC20/extensions/ERC20PermitUpgradeable.sol\":2347:2380  ERC2612ExpiredSignature(deadline) */\n      tag_233\n        /* \"#utility.yul\":1399:1576   */\n      jump\n        /* \"@openzeppelin/contracts-upgradeable/token/ERC20/extensions/ERC20PermitUpgradeable.sol\":2294:2391  if (block.timestamp > deadline) {... */\n    tag_281:\n        /* \"@openzeppelin/contracts-upgradeable/token/ERC20/extensions/ERC20PermitUpgradeable.sol\":2401:2419  bytes32 structHash */\n      0x00\n        /* \"@openzeppelin/contracts-upgradeable/token/ERC20/extensions/ERC20PermitUpgradeable.sol\":1277:1372  keccak256(\"Permit(address owner,address spender,uint256 value,uint256 nonce,uint256 deadline)\") */\n      0x6e71edae12b1b97f4d1f60370fef10105fa2faae0126114a169c64845d6126c9\n        /* \"@openzeppelin/contracts-upgradeable/token/ERC20/extensions/ERC20PermitUpgradeable.sol\":2460:2465  owner */\n      dup9\n        /* \"@openzeppelin/contracts-upgradeable/token/ERC20/extensions/ERC20PermitUpgradeable.sol\":2467:2474  spender */\n      dup9\n        /* \"@openzeppelin/contracts-upgradeable/token/ERC20/extensions/ERC20PermitUpgradeable.sol\":2476:2481  value */\n      dup9\n        /* \"@openzeppelin/contracts-upgradeable/token/ERC20/extensions/ERC20PermitUpgradeable.sol\":2483:2499  _useNonce(owner) */\n      tag_283\n        /* \"@openzeppelin/contracts-upgradeable/token/ERC20/extensions/ERC20PermitUpgradeable.sol\":2493:2498  owner */\n      dup13\n      sub(shl(0xa0, 0x01), 0x01)\n        /* \"@openzeppelin/contracts-upgradeable/utils/NoncesUpgradeable.sol\":1954:1970  $._nonces[owner] */\n      and\n        /* \"@openzeppelin/contracts-upgradeable/utils/NoncesUpgradeable.sol\":1597:1604  uint256 */\n      0x00\n        /* \"@openzeppelin/contracts-upgradeable/utils/NoncesUpgradeable.sol\":1954:1970  $._nonces[owner] */\n      swap1\n      dup2\n      mstore\n        /* \"@openzeppelin/contracts-upgradeable/utils/NoncesUpgradeable.sol\":1005:1026  NoncesStorageLocation */\n      0x5ab42ced628888259c08ac98db1eb0cf702fc1501344311d8b100cd1bfe4bb00\n        /* \"@openzeppelin/contracts-upgradeable/utils/NoncesUpgradeable.sol\":1954:1970  $._nonces[owner] */\n      0x20\n      mstore\n      0x40\n      swap1\n      keccak256\n        /* \"@openzeppelin/contracts-upgradeable/utils/NoncesUpgradeable.sol\":1954:1972  $._nonces[owner]++ */\n      dup1\n      sload\n      0x01\n      dup2\n      add\n      swap1\n      swap2\n      sstore\n      swap1\n        /* \"@openzeppelin/contracts-upgradeable/utils/NoncesUpgradeable.sol\":1537:1989  function _useNonce(address owner) internal virtual returns (uint256) {... */\n      jump\n        /* \"@openzeppelin/contracts-upgradeable/token/ERC20/extensions/ERC20PermitUpgradeable.sol\":2483:2499  _useNonce(owner) */\n    tag_283:\n        /* \"@openzeppelin/contracts-upgradeable/token/ERC20/extensions/ERC20PermitUpgradeable.sol\":2432:2510  abi.encode(PERMIT_TYPEHASH, owner, spender, value, _useNonce(owner), deadline) */\n      0x40\n      dup1\n      mload\n      0x20\n      dup2\n      add\n        /* \"#utility.yul\":7464:7489   */\n      swap7\n      swap1\n      swap7\n      mstore\n      sub(shl(0xa0, 0x01), 0x01)\n        /* \"#utility.yul\":7563:7578   */\n      swap5\n      dup6\n      and\n        /* \"#utility.yul\":7543:7561   */\n      swap1\n      dup7\n      add\n        /* \"#utility.yul\":7536:7579   */\n      mstore\n        /* \"#utility.yul\":7615:7630   */\n      swap3\n      swap1\n      swap2\n      and\n        /* \"#utility.yul\":7595:7613   */\n      0x60\n      dup5\n      add\n        /* \"#utility.yul\":7588:7631   */\n      mstore\n        /* \"#utility.yul\":7647:7665   */\n      0x80\n      dup4\n      add\n        /* \"#utility.yul\":7640:7674   */\n      mstore\n        /* \"#utility.yul\":7690:7709   */\n      0xa0\n      dup3\n      add\n        /* \"#utility.yul\":7683:7718   */\n      mstore\n        /* \"#utility.yul\":7734:7753   */\n      0xc0\n      dup2\n      add\n        /* \"#utility.yul\":7727:7762   */\n      dup7\n      swap1\n      mstore\n        /* \"#utility.yul\":7436:7455   */\n      0xe0\n      add\n        /* \"@openzeppelin/contracts-upgradeable/token/ERC20/extensions/ERC20PermitUpgradeable.sol\":2432:2510  abi.encode(PERMIT_TYPEHASH, owner, spender, value, _useNonce(owner), deadline) */\n      mload(0x40)\n      0x20\n      dup2\n      dup4\n      sub\n      sub\n      dup2\n      mstore\n      swap1\n      0x40\n      mstore\n        /* \"@openzeppelin/contracts-upgradeable/token/ERC20/extensions/ERC20PermitUpgradeable.sol\":2422:2511  keccak256(abi.encode(PERMIT_TYPEHASH, owner, spender, value, _useNonce(owner), deadline)) */\n      dup1\n      mload\n      swap1\n      0x20\n      add\n      keccak256\n        /* \"@openzeppelin/contracts-upgradeable/token/ERC20/extensions/ERC20PermitUpgradeable.sol\":2401:2511  bytes32 structHash = keccak256(abi.encode(PERMIT_TYPEHASH, owner, spender, value, _useNonce(owner), deadline)) */\n      swap1\n      pop\n        /* \"@openzeppelin/contracts-upgradeable/token/ERC20/extensions/ERC20PermitUpgradeable.sol\":2522:2534  bytes32 hash */\n      0x00\n        /* \"@openzeppelin/contracts-upgradeable/token/ERC20/extensions/ERC20PermitUpgradeable.sol\":2537:2565  _hashTypedDataV4(structHash) */\n      tag_287\n        /* \"@openzeppelin/contracts-upgradeable/token/ERC20/extensions/ERC20PermitUpgradeable.sol\":2554:2564  structHash */\n      dup3\n        /* \"@openzeppelin/contracts-upgradeable/token/ERC20/extensions/ERC20PermitUpgradeable.sol\":2537:2553  _hashTypedDataV4 */\n      tag_288\n        /* \"@openzeppelin/contracts-upgradeable/token/ERC20/extensions/ERC20PermitUpgradeable.sol\":2537:2565  _hashTypedDataV4(structHash) */\n      jump\t// in\n    tag_287:\n        /* \"@openzeppelin/contracts-upgradeable/token/ERC20/extensions/ERC20PermitUpgradeable.sol\":2522:2565  bytes32 hash = _hashTypedDataV4(structHash) */\n      swap1\n      pop\n        /* \"@openzeppelin/contracts-upgradeable/token/ERC20/extensions/ERC20PermitUpgradeable.sol\":2576:2590  address signer */\n      0x00\n        /* \"@openzeppelin/contracts-upgradeable/token/ERC20/extensions/ERC20PermitUpgradeable.sol\":2593:2621  ECDSA.recover(hash, v, r, s) */\n      tag_289\n        /* \"@openzeppelin/contracts-upgradeable/token/ERC20/extensions/ERC20PermitUpgradeable.sol\":2607:2611  hash */\n      dup3\n        /* \"@openzeppelin/contracts-upgradeable/token/ERC20/extensions/ERC20PermitUpgradeable.sol\":2613:2614  v */\n      dup8\n        /* \"@openzeppelin/contracts-upgradeable/token/ERC20/extensions/ERC20PermitUpgradeable.sol\":2616:2617  r */\n      dup8\n        /* \"@openzeppelin/contracts-upgradeable/token/ERC20/extensions/ERC20PermitUpgradeable.sol\":2619:2620  s */\n      dup8\n        /* \"@openzeppelin/contracts-upgradeable/token/ERC20/extensions/ERC20PermitUpgradeable.sol\":2593:2606  ECDSA.recover */\n      tag_290\n        /* \"@openzeppelin/contracts-upgradeable/token/ERC20/extensions/ERC20PermitUpgradeable.sol\":2593:2621  ECDSA.recover(hash, v, r, s) */\n      jump\t// in\n    tag_289:\n        /* \"@openzeppelin/contracts-upgradeable/token/ERC20/extensions/ERC20PermitUpgradeable.sol\":2576:2621  address signer = ECDSA.recover(hash, v, r, s) */\n      swap1\n      pop\n        /* \"@openzeppelin/contracts-upgradeable/token/ERC20/extensions/ERC20PermitUpgradeable.sol\":2645:2650  owner */\n      dup10\n      sub(shl(0xa0, 0x01), 0x01)\n        /* \"@openzeppelin/contracts-upgradeable/token/ERC20/extensions/ERC20PermitUpgradeable.sol\":2635:2650  signer != owner */\n      and\n        /* \"@openzeppelin/contracts-upgradeable/token/ERC20/extensions/ERC20PermitUpgradeable.sol\":2635:2641  signer */\n      dup2\n      sub(shl(0xa0, 0x01), 0x01)\n        /* \"@openzeppelin/contracts-upgradeable/token/ERC20/extensions/ERC20PermitUpgradeable.sol\":2635:2650  signer != owner */\n      and\n      eq\n        /* \"@openzeppelin/contracts-upgradeable/token/ERC20/extensions/ERC20PermitUpgradeable.sol\":2631:2719  if (signer != owner) {... */\n      tag_291\n      jumpi\n        /* \"@openzeppelin/contracts-upgradeable/token/ERC20/extensions/ERC20PermitUpgradeable.sol\":2673:2708  ERC2612InvalidSigner(signer, owner) */\n      mload(0x40)\n      shl(0xe1, 0x25c00723)\n      dup2\n      mstore\n      sub(shl(0xa0, 0x01), 0x01)\n        /* \"#utility.yul\":8003:8018   */\n      dup1\n      dup4\n      and\n        /* \"@openzeppelin/contracts-upgradeable/token/ERC20/extensions/ERC20PermitUpgradeable.sol\":2673:2708  ERC2612InvalidSigner(signer, owner) */\n      0x04\n      dup4\n      add\n        /* \"#utility.yul\":7985:8019   */\n      mstore\n        /* \"#utility.yul\":8055:8070   */\n      dup12\n      and\n        /* \"#utility.yul\":8035:8053   */\n      0x24\n      dup3\n      add\n        /* \"#utility.yul\":8028:8071   */\n      mstore\n        /* \"#utility.yul\":7920:7938   */\n      0x44\n      add\n        /* \"@openzeppelin/contracts-upgradeable/token/ERC20/extensions/ERC20PermitUpgradeable.sol\":2673:2708  ERC2612InvalidSigner(signer, owner) */\n      tag_233\n        /* \"#utility.yul\":7773:8077   */\n      jump\n        /* \"@openzeppelin/contracts-upgradeable/token/ERC20/extensions/ERC20PermitUpgradeable.sol\":2631:2719  if (signer != owner) {... */\n    tag_291:\n        /* \"@openzeppelin/contracts-upgradeable/token/ERC20/extensions/ERC20PermitUpgradeable.sol\":2729:2760  _approve(owner, spender, value) */\n      tag_294\n        /* \"@openzeppelin/contracts-upgradeable/token/ERC20/extensions/ERC20PermitUpgradeable.sol\":2738:2743  owner */\n      dup11\n        /* \"@openzeppelin/contracts-upgradeable/token/ERC20/extensions/ERC20PermitUpgradeable.sol\":2745:2752  spender */\n      dup11\n        /* \"@openzeppelin/contracts-upgradeable/token/ERC20/extensions/ERC20PermitUpgradeable.sol\":2754:2759  value */\n      dup11\n        /* \"@openzeppelin/contracts-upgradeable/token/ERC20/extensions/ERC20PermitUpgradeable.sol\":2729:2737  _approve */\n      tag_166\n        /* \"@openzeppelin/contracts-upgradeable/token/ERC20/extensions/ERC20PermitUpgradeable.sol\":2729:2760  _approve(owner, spender, value) */\n      jump\t// in\n    tag_294:\n        /* \"@openzeppelin/contracts-upgradeable/token/ERC20/extensions/ERC20PermitUpgradeable.sol\":2284:2767  {... */\n      pop\n      pop\n      pop\n        /* \"@openzeppelin/contracts-upgradeable/token/ERC20/extensions/ERC20PermitUpgradeable.sol\":2095:2767  function permit(... */\n      pop\n      pop\n      pop\n      pop\n      pop\n      pop\n      pop\n      jump\t// out\n        /* \"@openzeppelin/contracts-upgradeable/token/ERC20/ERC20Upgradeable.sol\":5003:5198  function allowance(address owner, address spender) public view virtual returns (uint256) {... */\n    tag_147:\n      sub(shl(0xa0, 0x01), 0x01)\n        /* \"@openzeppelin/contracts-upgradeable/token/ERC20/ERC20Upgradeable.sol\":5162:5182  $._allowances[owner] */\n      swap2\n      dup3\n      and\n        /* \"@openzeppelin/contracts-upgradeable/token/ERC20/ERC20Upgradeable.sol\":5083:5090  uint256 */\n      0x00\n        /* \"@openzeppelin/contracts-upgradeable/token/ERC20/ERC20Upgradeable.sol\":5162:5182  $._allowances[owner] */\n      swap1\n      dup2\n      mstore\n        /* \"@openzeppelin/contracts-upgradeable/token/ERC20/ERC20Upgradeable.sol\":5162:5175  $._allowances */\n      0x52c63247e1f47db19d5ce0460030c497f067ca4cebf71ba98eeadabe20bace01\n        /* \"@openzeppelin/contracts-upgradeable/token/ERC20/ERC20Upgradeable.sol\":5162:5182  $._allowances[owner] */\n      0x20\n      swap1\n      dup2\n      mstore\n      0x40\n      dup1\n      dup4\n      keccak256\n        /* \"@openzeppelin/contracts-upgradeable/token/ERC20/ERC20Upgradeable.sol\":5162:5191  $._allowances[owner][spender] */\n      swap4\n      swap1\n      swap5\n      and\n      dup3\n      mstore\n      swap2\n      swap1\n      swap2\n      mstore\n      keccak256\n      sload\n      swap1\n        /* \"@openzeppelin/contracts-upgradeable/token/ERC20/ERC20Upgradeable.sol\":5003:5198  function allowance(address owner, address spender) public view virtual returns (uint256) {... */\n      jump\t// out\n        /* \"@openzeppelin/contracts-upgradeable/access/OwnableUpgradeable.sol\":3405:3620  function transferOwnership(address newOwner) public virtual onlyOwner {... */\n    tag_152:\n        /* \"@openzeppelin/contracts-upgradeable/access/OwnableUpgradeable.sol\":2334:2347  _checkOwner() */\n      tag_298\n        /* \"@openzeppelin/contracts-upgradeable/access/OwnableUpgradeable.sol\":2334:2345  _checkOwner */\n      tag_181\n        /* \"@openzeppelin/contracts-upgradeable/access/OwnableUpgradeable.sol\":2334:2347  _checkOwner() */\n      jump\t// in\n    tag_298:\n      sub(shl(0xa0, 0x01), 0x01)\n        /* \"@openzeppelin/contracts-upgradeable/access/OwnableUpgradeable.sol\":3489:3511  newOwner == address(0) */\n      dup2\n      and\n        /* \"@openzeppelin/contracts-upgradeable/access/OwnableUpgradeable.sol\":3485:3576  if (newOwner == address(0)) {... */\n      tag_300\n      jumpi\n        /* \"@openzeppelin/contracts-upgradeable/access/OwnableUpgradeable.sol\":3534:3565  OwnableInvalidOwner(address(0)) */\n      mload(0x40)\n      shl(0xe0, 0x1e4fbdf7)\n      dup2\n      mstore\n        /* \"@openzeppelin/contracts-upgradeable/access/OwnableUpgradeable.sol\":3562:3563  0 */\n      0x00\n        /* \"@openzeppelin/contracts-upgradeable/access/OwnableUpgradeable.sol\":3534:3565  OwnableInvalidOwner(address(0)) */\n      0x04\n      dup3\n      add\n        /* \"#utility.yul\":5203:5254   */\n      mstore\n        /* \"#utility.yul\":5176:5194   */\n      0x24\n      add\n        /* \"@openzeppelin/contracts-upgradeable/access/OwnableUpgradeable.sol\":3534:3565  OwnableInvalidOwner(address(0)) */\n      tag_233\n        /* \"#utility.yul\":5057:5260   */\n      jump\n        /* \"@openzeppelin/contracts-upgradeable/access/OwnableUpgradeable.sol\":3485:3576  if (newOwner == address(0)) {... */\n    tag_300:\n        /* \"@openzeppelin/contracts-upgradeable/access/OwnableUpgradeable.sol\":3585:3613  _transferOwnership(newOwner) */\n      tag_191\n        /* \"@openzeppelin/contracts-upgradeable/access/OwnableUpgradeable.sol\":3604:3612  newOwner */\n      dup2\n        /* \"@openzeppelin/contracts-upgradeable/access/OwnableUpgradeable.sol\":3585:3603  _transferOwnership */\n      tag_215\n        /* \"@openzeppelin/contracts-upgradeable/access/OwnableUpgradeable.sol\":3585:3613  _transferOwnership(newOwner) */\n      jump\t// in\n        /* \"@openzeppelin/contracts-upgradeable/token/ERC20/ERC20Upgradeable.sol\":10264:10392  function _approve(address owner, address spender, uint256 value) internal {... */\n    tag_166:\n        /* \"@openzeppelin/contracts-upgradeable/token/ERC20/ERC20Upgradeable.sol\":10348:10385  _approve(owner, spender, value, true) */\n      tag_306\n        /* \"@openzeppelin/contracts-upgradeable/token/ERC20/ERC20Upgradeable.sol\":10357:10362  owner */\n      dup4\n        /* \"@openzeppelin/contracts-upgradeable/token/ERC20/ERC20Upgradeable.sol\":10364:10371  spender */\n      dup4\n        /* \"@openzeppelin/contracts-upgradeable/token/ERC20/ERC20Upgradeable.sol\":10373:10378  value */\n      dup4\n        /* \"@openzeppelin/contracts-upgradeable/token/ERC20/ERC20Upgradeable.sol\":10380:10384  true */\n      0x01\n        /* \"@openzeppelin/contracts-upgradeable/token/ERC20/ERC20Upgradeable.sol\":10348:10356  _approve */\n      tag_307\n        /* \"@openzeppelin/contracts-upgradeable/token/ERC20/ERC20Upgradeable.sol\":10348:10385  _approve(owner, spender, value, true) */\n      jump\t// in\n    tag_306:\n        /* \"@openzeppelin/contracts-upgradeable/token/ERC20/ERC20Upgradeable.sol\":10264:10392  function _approve(address owner, address spender, uint256 value) internal {... */\n      pop\n      pop\n      pop\n      jump\t// out\n        /* \"@openzeppelin/contracts-upgradeable/token/ERC20/ERC20Upgradeable.sol\":11993:12470  function _spendAllowance(address owner, address spender, uint256 value) internal virtual {... */\n    tag_172:\n        /* \"@openzeppelin/contracts-upgradeable/token/ERC20/ERC20Upgradeable.sol\":12092:12116  uint256 currentAllowance */\n      0x00\n        /* \"@openzeppelin/contracts-upgradeable/token/ERC20/ERC20Upgradeable.sol\":12119:12144  allowance(owner, spender) */\n      tag_309\n        /* \"@openzeppelin/contracts-upgradeable/token/ERC20/ERC20Upgradeable.sol\":12129:12134  owner */\n      dup5\n        /* \"@openzeppelin/contracts-upgradeable/token/ERC20/ERC20Upgradeable.sol\":12136:12143  spender */\n      dup5\n        /* \"@openzeppelin/contracts-upgradeable/token/ERC20/ERC20Upgradeable.sol\":12119:12128  allowance */\n      tag_147\n        /* \"@openzeppelin/contracts-upgradeable/token/ERC20/ERC20Upgradeable.sol\":12119:12144  allowance(owner, spender) */\n      jump\t// in\n    tag_309:\n        /* \"@openzeppelin/contracts-upgradeable/token/ERC20/ERC20Upgradeable.sol\":12092:12144  uint256 currentAllowance = allowance(owner, spender) */\n      swap1\n      pop\n      not(0x00)\n        /* \"@openzeppelin/contracts-upgradeable/token/ERC20/ERC20Upgradeable.sol\":12158:12174  currentAllowance */\n      dup2\n        /* \"@openzeppelin/contracts-upgradeable/token/ERC20/ERC20Upgradeable.sol\":12158:12195  currentAllowance != type(uint256).max */\n      eq\n        /* \"@openzeppelin/contracts-upgradeable/token/ERC20/ERC20Upgradeable.sol\":12154:12464  if (currentAllowance != type(uint256).max) {... */\n      tag_314\n      jumpi\n        /* \"@openzeppelin/contracts-upgradeable/token/ERC20/ERC20Upgradeable.sol\":12234:12239  value */\n      dup2\n        /* \"@openzeppelin/contracts-upgradeable/token/ERC20/ERC20Upgradeable.sol\":12215:12231  currentAllowance */\n      dup2\n        /* \"@openzeppelin/contracts-upgradeable/token/ERC20/ERC20Upgradeable.sol\":12215:12239  currentAllowance < value */\n      lt\n        /* \"@openzeppelin/contracts-upgradeable/token/ERC20/ERC20Upgradeable.sol\":12211:12341  if (currentAllowance < value) {... */\n      iszero\n      tag_311\n      jumpi\n        /* \"@openzeppelin/contracts-upgradeable/token/ERC20/ERC20Upgradeable.sol\":12266:12326  ERC20InsufficientAllowance(spender, currentAllowance, value) */\n      mload(0x40)\n      shl(0xe1, 0x7dc7a0d9)\n      dup2\n      mstore\n      sub(shl(0xa0, 0x01), 0x01)\n        /* \"#utility.yul\":8302:8334   */\n      dup5\n      and\n        /* \"@openzeppelin/contracts-upgradeable/token/ERC20/ERC20Upgradeable.sol\":12266:12326  ERC20InsufficientAllowance(spender, currentAllowance, value) */\n      0x04\n      dup3\n      add\n        /* \"#utility.yul\":8284:8335   */\n      mstore\n        /* \"#utility.yul\":8351:8369   */\n      0x24\n      dup2\n      add\n        /* \"#utility.yul\":8344:8378   */\n      dup3\n      swap1\n      mstore\n        /* \"#utility.yul\":8394:8412   */\n      0x44\n      dup2\n      add\n        /* \"#utility.yul\":8387:8421   */\n      dup4\n      swap1\n      mstore\n        /* \"#utility.yul\":8257:8275   */\n      0x64\n      add\n        /* \"@openzeppelin/contracts-upgradeable/token/ERC20/ERC20Upgradeable.sol\":12266:12326  ERC20InsufficientAllowance(spender, currentAllowance, value) */\n      tag_233\n        /* \"#utility.yul\":8082:8427   */\n      jump\n        /* \"@openzeppelin/contracts-upgradeable/token/ERC20/ERC20Upgradeable.sol\":12211:12341  if (currentAllowance < value) {... */\n    tag_311:\n        /* \"@openzeppelin/contracts-upgradeable/token/ERC20/ERC20Upgradeable.sol\":12382:12439  _approve(owner, spender, currentAllowance - value, false) */\n      tag_314\n        /* \"@openzeppelin/contracts-upgradeable/token/ERC20/ERC20Upgradeable.sol\":12391:12396  owner */\n      dup5\n        /* \"@openzeppelin/contracts-upgradeable/token/ERC20/ERC20Upgradeable.sol\":12398:12405  spender */\n      dup5\n        /* \"@openzeppelin/contracts-upgradeable/token/ERC20/ERC20Upgradeable.sol\":12426:12431  value */\n      dup5\n        /* \"@openzeppelin/contracts-upgradeable/token/ERC20/ERC20Upgradeable.sol\":12407:12423  currentAllowance */\n      dup5\n        /* \"@openzeppelin/contracts-upgradeable/token/ERC20/ERC20Upgradeable.sol\":12407:12431  currentAllowance - value */\n      sub\n        /* \"@openzeppelin/contracts-upgradeable/token/ERC20/ERC20Upgradeable.sol\":12433:12438  false */\n      0x00\n        /* \"@openzeppelin/contracts-upgradeable/token/ERC20/ERC20Upgradeable.sol\":12382:12390  _approve */\n      tag_307\n        /* \"@openzeppelin/contracts-upgradeable/token/ERC20/ERC20Upgradeable.sol\":12382:12439  _approve(owner, spender, currentAllowance - value, false) */\n      jump\t// in\n    tag_314:\n        /* \"@openzeppelin/contracts-upgradeable/token/ERC20/ERC20Upgradeable.sol\":12082:12470  {... */\n      pop\n        /* \"@openzeppelin/contracts-upgradeable/token/ERC20/ERC20Upgradeable.sol\":11993:12470  function _spendAllowance(address owner, address spender, uint256 value) internal virtual {... */\n      pop\n      pop\n      pop\n      jump\t// out\n        /* \"@openzeppelin/contracts-upgradeable/token/ERC20/ERC20Upgradeable.sol\":6868:7168  function _transfer(address from, address to, uint256 value) internal {... */\n    tag_174:\n      sub(shl(0xa0, 0x01), 0x01)\n        /* \"@openzeppelin/contracts-upgradeable/token/ERC20/ERC20Upgradeable.sol\":6951:6969  from == address(0) */\n      dup4\n      and\n        /* \"@openzeppelin/contracts-upgradeable/token/ERC20/ERC20Upgradeable.sol\":6947:7033  if (from == address(0)) {... */\n      tag_316\n      jumpi\n        /* \"@openzeppelin/contracts-upgradeable/token/ERC20/ERC20Upgradeable.sol\":6992:7022  ERC20InvalidSender(address(0)) */\n      mload(0x40)\n      shl(0xe1, 0x4b637e8f)\n      dup2\n      mstore\n        /* \"@openzeppelin/contracts-upgradeable/token/ERC20/ERC20Upgradeable.sol\":7019:7020  0 */\n      0x00\n        /* \"@openzeppelin/contracts-upgradeable/token/ERC20/ERC20Upgradeable.sol\":6992:7022  ERC20InvalidSender(address(0)) */\n      0x04\n      dup3\n      add\n        /* \"#utility.yul\":5203:5254   */\n      mstore\n        /* \"#utility.yul\":5176:5194   */\n      0x24\n      add\n        /* \"@openzeppelin/contracts-upgradeable/token/ERC20/ERC20Upgradeable.sol\":6992:7022  ERC20InvalidSender(address(0)) */\n      tag_233\n        /* \"#utility.yul\":5057:5260   */\n      jump\n        /* \"@openzeppelin/contracts-upgradeable/token/ERC20/ERC20Upgradeable.sol\":6947:7033  if (from == address(0)) {... */\n    tag_316:\n      sub(shl(0xa0, 0x01), 0x01)\n        /* \"@openzeppelin/contracts-upgradeable/token/ERC20/ERC20Upgradeable.sol\":7046:7062  to == address(0) */\n      dup3\n      and\n        /* \"@openzeppelin/contracts-upgradeable/token/ERC20/ERC20Upgradeable.sol\":7042:7128  if (to == address(0)) {... */\n      tag_318\n      jumpi\n        /* \"@openzeppelin/contracts-upgradeable/token/ERC20/ERC20Upgradeable.sol\":7085:7117  ERC20InvalidReceiver(address(0)) */\n      mload(0x40)\n      shl(0xe0, 0xec442f05)\n      dup2\n      mstore\n        /* \"@openzeppelin/contracts-upgradeable/token/ERC20/ERC20Upgradeable.sol\":7114:7115  0 */\n      0x00\n        /* \"@openzeppelin/contracts-upgradeable/token/ERC20/ERC20Upgradeable.sol\":7085:7117  ERC20InvalidReceiver(address(0)) */\n      0x04\n      dup3\n      add\n        /* \"#utility.yul\":5203:5254   */\n      mstore\n        /* \"#utility.yul\":5176:5194   */\n      0x24\n      add\n        /* \"@openzeppelin/contracts-upgradeable/token/ERC20/ERC20Upgradeable.sol\":7085:7117  ERC20InvalidReceiver(address(0)) */\n      tag_233\n        /* \"#utility.yul\":5057:5260   */\n      jump\n        /* \"@openzeppelin/contracts-upgradeable/token/ERC20/ERC20Upgradeable.sol\":7042:7128  if (to == address(0)) {... */\n    tag_318:\n        /* \"@openzeppelin/contracts-upgradeable/token/ERC20/ERC20Upgradeable.sol\":7137:7161  _update(from, to, value) */\n      tag_306\n        /* \"@openzeppelin/contracts-upgradeable/token/ERC20/ERC20Upgradeable.sol\":7145:7149  from */\n      dup4\n        /* \"@openzeppelin/contracts-upgradeable/token/ERC20/ERC20Upgradeable.sol\":7151:7153  to */\n      dup4\n        /* \"@openzeppelin/contracts-upgradeable/token/ERC20/ERC20Upgradeable.sol\":7155:7160  value */\n      dup4\n        /* \"@openzeppelin/contracts-upgradeable/token/ERC20/ERC20Upgradeable.sol\":7137:7144  _update */\n      tag_321\n        /* \"@openzeppelin/contracts-upgradeable/token/ERC20/ERC20Upgradeable.sol\":7137:7161  _update(from, to, value) */\n      jump\t// in\n        /* \"@openzeppelin/contracts-upgradeable/utils/cryptography/EIP712Upgradeable.sol\":4015:4124  function _domainSeparatorV4() internal view returns (bytes32) {... */\n    tag_178:\n        /* \"@openzeppelin/contracts-upgradeable/utils/cryptography/EIP712Upgradeable.sol\":4068:4075  bytes32 */\n      0x00\n        /* \"@openzeppelin/contracts-upgradeable/utils/cryptography/EIP712Upgradeable.sol\":4094:4117  _buildDomainSeparator() */\n      tag_177\n        /* \"@openzeppelin/contracts-upgradeable/utils/cryptography/EIP712Upgradeable.sol\":4094:4115  _buildDomainSeparator */\n      tag_324\n        /* \"@openzeppelin/contracts-upgradeable/utils/cryptography/EIP712Upgradeable.sol\":4094:4117  _buildDomainSeparator() */\n      jump\t// in\n        /* \"@openzeppelin/contracts-upgradeable/access/OwnableUpgradeable.sol\":2658:2820  function _checkOwner() internal view virtual {... */\n    tag_181:\n        /* \"@openzeppelin/contracts-upgradeable/utils/ContextUpgradeable.sol\":966:976  msg.sender */\n      caller\n        /* \"@openzeppelin/contracts-upgradeable/access/OwnableUpgradeable.sol\":2717:2724  owner() */\n      tag_327\n        /* \"@openzeppelin/contracts-upgradeable/access/OwnableUpgradeable.sol\":1313:1335  OwnableStorageLocation */\n      0x9016d09d72d40fdae2fd8ceac6b6234c7706214fd39c1cd1e609a0528c199300\n        /* \"@openzeppelin/contracts-upgradeable/access/OwnableUpgradeable.sol\":2570:2578  $._owner */\n      sload\n      sub(shl(0xa0, 0x01), 0x01)\n      and\n      swap1\n        /* \"@openzeppelin/contracts-upgradeable/access/OwnableUpgradeable.sol\":2441:2585  function owner() public view virtual returns (address) {... */\n      jump\n        /* \"@openzeppelin/contracts-upgradeable/access/OwnableUpgradeable.sol\":2717:2724  owner() */\n    tag_327:\n      sub(shl(0xa0, 0x01), 0x01)\n        /* \"@openzeppelin/contracts-upgradeable/access/OwnableUpgradeable.sol\":2717:2740  owner() != _msgSender() */\n      and\n      eq\n        /* \"@openzeppelin/contracts-upgradeable/access/OwnableUpgradeable.sol\":2713:2814  if (owner() != _msgSender()) {... */\n      tag_183\n      jumpi\n        /* \"@openzeppelin/contracts-upgradeable/access/OwnableUpgradeable.sol\":2763:2803  OwnableUnauthorizedAccount(_msgSender()) */\n      mload(0x40)\n      shl(0xe0, 0x118cdaa7)\n      dup2\n      mstore\n        /* \"@openzeppelin/contracts-upgradeable/utils/ContextUpgradeable.sol\":966:976  msg.sender */\n      caller\n        /* \"@openzeppelin/contracts-upgradeable/access/OwnableUpgradeable.sol\":2763:2803  OwnableUnauthorizedAccount(_msgSender()) */\n      0x04\n      dup3\n      add\n        /* \"#utility.yul\":5203:5254   */\n      mstore\n        /* \"#utility.yul\":5176:5194   */\n      0x24\n      add\n        /* \"@openzeppelin/contracts-upgradeable/access/OwnableUpgradeable.sol\":2763:2803  OwnableUnauthorizedAccount(_msgSender()) */\n      tag_233\n        /* \"#utility.yul\":5057:5260   */\n      jump\n        /* \"@openzeppelin/contracts-upgradeable/utils/PausableUpgradeable.sol\":3674:3852  function _unpause() internal virtual whenPaused {... */\n    tag_184:\n        /* \"@openzeppelin/contracts-upgradeable/utils/PausableUpgradeable.sol\":2563:2579  _requirePaused() */\n      tag_332\n        /* \"@openzeppelin/contracts-upgradeable/utils/PausableUpgradeable.sol\":2563:2577  _requirePaused */\n      tag_333\n        /* \"@openzeppelin/contracts-upgradeable/utils/PausableUpgradeable.sol\":2563:2579  _requirePaused() */\n      jump\t// in\n    tag_332:\n      0x00\n      dup1\n      mload\n      0x20\n      data_c0c65a3718f3702d917c44106b91645b509d2e2d0979b70495c3babce192339f\n      dup4\n      codecopy\n      dup2\n      mload\n      swap2\n      mstore\n        /* \"@openzeppelin/contracts-upgradeable/utils/PausableUpgradeable.sol\":3791:3808  $._paused = false */\n      dup1\n      sload\n      not(0xff)\n      and\n      dup2\n      sstore\n        /* \"@openzeppelin/contracts-upgradeable/utils/PausableUpgradeable.sol\":3823:3845  Unpaused(_msgSender()) */\n      0x5db9ee0a495bf2e6ff9c91a7834c1ba4fdd244a5e8aa4e537bd38aeae4b073aa\n        /* \"@openzeppelin/contracts-upgradeable/utils/ContextUpgradeable.sol\":966:976  msg.sender */\n      caller\n        /* \"@openzeppelin/contracts-upgradeable/utils/PausableUpgradeable.sol\":3832:3844  _msgSender() */\n    tag_336:\n        /* \"@openzeppelin/contracts-upgradeable/utils/PausableUpgradeable.sol\":3823:3845  Unpaused(_msgSender()) */\n      mload(0x40)\n      sub(shl(0xa0, 0x01), 0x01)\n        /* \"#utility.yul\":5221:5253   */\n      swap1\n      swap2\n      and\n        /* \"#utility.yul\":5203:5254   */\n      dup2\n      mstore\n        /* \"#utility.yul\":5191:5193   */\n      0x20\n        /* \"#utility.yul\":5176:5194   */\n      add\n        /* \"@openzeppelin/contracts-upgradeable/utils/PausableUpgradeable.sol\":3823:3845  Unpaused(_msgSender()) */\n      mload(0x40)\n      dup1\n      swap2\n      sub\n      swap1\n      log1\n        /* \"@openzeppelin/contracts-upgradeable/utils/PausableUpgradeable.sol\":3722:3852  {... */\n      pop\n        /* \"@openzeppelin/contracts-upgradeable/utils/PausableUpgradeable.sol\":3674:3852  function _unpause() internal virtual whenPaused {... */\n      jump\t// out\n        /* \"@openzeppelin/contracts-upgradeable/token/ERC20/ERC20Upgradeable.sol\":8996:9204  function _mint(address account, uint256 value) internal {... */\n    tag_189:\n      sub(shl(0xa0, 0x01), 0x01)\n        /* \"@openzeppelin/contracts-upgradeable/token/ERC20/ERC20Upgradeable.sol\":9066:9087  account == address(0) */\n      dup3\n      and\n        /* \"@openzeppelin/contracts-upgradeable/token/ERC20/ERC20Upgradeable.sol\":9062:9153  if (account == address(0)) {... */\n      tag_339\n      jumpi\n        /* \"@openzeppelin/contracts-upgradeable/token/ERC20/ERC20Upgradeable.sol\":9110:9142  ERC20InvalidReceiver(address(0)) */\n      mload(0x40)\n      shl(0xe0, 0xec442f05)\n      dup2\n      mstore\n        /* \"@openzeppelin/contracts-upgradeable/token/ERC20/ERC20Upgradeable.sol\":9139:9140  0 */\n      0x00\n        /* \"@openzeppelin/contracts-upgradeable/token/ERC20/ERC20Upgradeable.sol\":9110:9142  ERC20InvalidReceiver(address(0)) */\n      0x04\n      dup3\n      add\n        /* \"#utility.yul\":5203:5254   */\n      mstore\n        /* \"#utility.yul\":5176:5194   */\n      0x24\n      add\n        /* \"@openzeppelin/contracts-upgradeable/token/ERC20/ERC20Upgradeable.sol\":9110:9142  ERC20InvalidReceiver(address(0)) */\n      tag_233\n        /* \"#utility.yul\":5057:5260   */\n      jump\n        /* \"@openzeppelin/contracts-upgradeable/token/ERC20/ERC20Upgradeable.sol\":9062:9153  if (account == address(0)) {... */\n    tag_339:\n        /* \"@openzeppelin/contracts-upgradeable/token/ERC20/ERC20Upgradeable.sol\":9162:9197  _update(address(0), account, value) */\n      tag_188\n        /* \"@openzeppelin/contracts-upgradeable/token/ERC20/ERC20Upgradeable.sol\":9178:9179  0 */\n      0x00\n        /* \"@openzeppelin/contracts-upgradeable/token/ERC20/ERC20Upgradeable.sol\":9182:9189  account */\n      dup4\n        /* \"@openzeppelin/contracts-upgradeable/token/ERC20/ERC20Upgradeable.sol\":9191:9196  value */\n      dup4\n        /* \"@openzeppelin/contracts-upgradeable/token/ERC20/ERC20Upgradeable.sol\":9162:9169  _update */\n      tag_321\n        /* \"@openzeppelin/contracts-upgradeable/token/ERC20/ERC20Upgradeable.sol\":9162:9197  _update(address(0), account, value) */\n      jump\t// in\n        /* \"@openzeppelin/contracts-upgradeable/token/ERC20/ERC20Upgradeable.sol\":9522:9728  function _burn(address account, uint256 value) internal {... */\n    tag_193:\n      sub(shl(0xa0, 0x01), 0x01)\n        /* \"@openzeppelin/contracts-upgradeable/token/ERC20/ERC20Upgradeable.sol\":9592:9613  account == address(0) */\n      dup3\n      and\n        /* \"@openzeppelin/contracts-upgradeable/token/ERC20/ERC20Upgradeable.sol\":9588:9677  if (account == address(0)) {... */\n      tag_343\n      jumpi\n        /* \"@openzeppelin/contracts-upgradeable/token/ERC20/ERC20Upgradeable.sol\":9636:9666  ERC20InvalidSender(address(0)) */\n      mload(0x40)\n      shl(0xe1, 0x4b637e8f)\n      dup2\n      mstore\n        /* \"@openzeppelin/contracts-upgradeable/token/ERC20/ERC20Upgradeable.sol\":9663:9664  0 */\n      0x00\n        /* \"@openzeppelin/contracts-upgradeable/token/ERC20/ERC20Upgradeable.sol\":9636:9666  ERC20InvalidSender(address(0)) */\n      0x04\n      dup3\n      add\n        /* \"#utility.yul\":5203:5254   */\n      mstore\n        /* \"#utility.yul\":5176:5194   */\n      0x24\n      add\n        /* \"@openzeppelin/contracts-upgradeable/token/ERC20/ERC20Upgradeable.sol\":9636:9666  ERC20InvalidSender(address(0)) */\n      tag_233\n        /* \"#utility.yul\":5057:5260   */\n      jump\n        /* \"@openzeppelin/contracts-upgradeable/token/ERC20/ERC20Upgradeable.sol\":9588:9677  if (account == address(0)) {... */\n    tag_343:\n        /* \"@openzeppelin/contracts-upgradeable/token/ERC20/ERC20Upgradeable.sol\":9686:9721  _update(account, address(0), value) */\n      tag_188\n        /* \"@openzeppelin/contracts-upgradeable/token/ERC20/ERC20Upgradeable.sol\":9694:9701  account */\n      dup3\n        /* \"@openzeppelin/contracts-upgradeable/token/ERC20/ERC20Upgradeable.sol\":9711:9712  0 */\n      0x00\n        /* \"@openzeppelin/contracts-upgradeable/token/ERC20/ERC20Upgradeable.sol\":9715:9720  value */\n      dup4\n        /* \"@openzeppelin/contracts-upgradeable/token/ERC20/ERC20Upgradeable.sol\":9686:9693  _update */\n      tag_321\n        /* \"@openzeppelin/contracts-upgradeable/token/ERC20/ERC20Upgradeable.sol\":9686:9721  _update(account, address(0), value) */\n      jump\t// in\n        /* \"@openzeppelin/contracts-upgradeable/proxy/utils/UUPSUpgradeable.sol\":4599:4911  function _checkProxy() internal view virtual {... */\n    tag_196:\n        /* \"@openzeppelin/contracts-upgradeable/proxy/utils/UUPSUpgradeable.sol\":4679:4683  this */\n      address\n      sub(shl(0xa0, 0x01), 0x01)\n        /* \"@openzeppelin/contracts-upgradeable/proxy/utils/UUPSUpgradeable.sol\":4688:4694  __self */\n      immutable(\"0x0b83f23a4eeb8c3f5f7d5934a2289bcf0186d09a12e1b7f20adf54e4b179db15\")\n        /* \"@openzeppelin/contracts-upgradeable/proxy/utils/UUPSUpgradeable.sol\":4671:4694  address(this) == __self */\n      and\n      eq\n      dup1\n        /* \"@openzeppelin/contracts-upgradeable/proxy/utils/UUPSUpgradeable.sol\":4671:4791  address(this) == __self || // Must be called through delegatecall... */\n      tag_347\n      jumpi\n      pop\n        /* \"@openzeppelin/contracts-upgradeable/proxy/utils/UUPSUpgradeable.sol\":4785:4791  __self */\n      immutable(\"0x0b83f23a4eeb8c3f5f7d5934a2289bcf0186d09a12e1b7f20adf54e4b179db15\")\n      sub(shl(0xa0, 0x01), 0x01)\n        /* \"@openzeppelin/contracts-upgradeable/proxy/utils/UUPSUpgradeable.sol\":4749:4791  ERC1967Utils.getImplementation() != __self */\n      and\n        /* \"@openzeppelin/contracts-upgradeable/proxy/utils/UUPSUpgradeable.sol\":4749:4781  ERC1967Utils.getImplementation() */\n      tag_348\n      0x00\n      dup1\n      mload\n      0x20\n      data_75b20eef8615de99c108b05f0dbda081c91897128caa336d75dffb97c4132b4d\n      dup4\n      codecopy\n      dup2\n      mload\n      swap2\n      mstore\n        /* \"@openzeppelin/contracts/proxy/ERC1967/ERC1967Utils.sol\":2035:2088  StorageSlot.getAddressSlot(IMPLEMENTATION_SLOT).value */\n      sload\n      sub(shl(0xa0, 0x01), 0x01)\n      and\n      swap1\n        /* \"@openzeppelin/contracts/proxy/ERC1967/ERC1967Utils.sol\":1957:2095  function getImplementation() internal view returns (address) {... */\n      jump\n        /* \"@openzeppelin/contracts-upgradeable/proxy/utils/UUPSUpgradeable.sol\":4749:4781  ERC1967Utils.getImplementation() */\n    tag_348:\n      sub(shl(0xa0, 0x01), 0x01)\n        /* \"@openzeppelin/contracts-upgradeable/proxy/utils/UUPSUpgradeable.sol\":4749:4791  ERC1967Utils.getImplementation() != __self */\n      and\n      eq\n      iszero\n        /* \"@openzeppelin/contracts-upgradeable/proxy/utils/UUPSUpgradeable.sol\":4671:4791  address(this) == __self || // Must be called through delegatecall... */\n    tag_347:\n        /* \"@openzeppelin/contracts-upgradeable/proxy/utils/UUPSUpgradeable.sol\":4654:4905  if (... */\n      iszero\n      tag_183\n      jumpi\n        /* \"@openzeppelin/contracts-upgradeable/proxy/utils/UUPSUpgradeable.sol\":4865:4894  UUPSUnauthorizedCallContext() */\n      mload(0x40)\n      shl(0xe1, 0x703e46dd)\n      dup2\n      mstore\n      0x04\n      add\n      mload(0x40)\n      dup1\n      swap2\n      sub\n      swap1\n      revert\n        /* \"contracts/MyToken.sol\":1465:1577  function _authorizeUpgrade(address newImplementation)... */\n    tag_199:\n        /* \"@openzeppelin/contracts-upgradeable/access/OwnableUpgradeable.sol\":2334:2347  _checkOwner() */\n      tag_191\n        /* \"@openzeppelin/contracts-upgradeable/access/OwnableUpgradeable.sol\":2334:2345  _checkOwner */\n      tag_181\n        /* \"@openzeppelin/contracts-upgradeable/access/OwnableUpgradeable.sol\":2334:2347  _checkOwner() */\n      jump\t// in\n        /* \"@openzeppelin/contracts-upgradeable/proxy/utils/UUPSUpgradeable.sol\":6052:6590  function _upgradeToAndCallUUPS(address newImplementation, bytes memory data) private {... */\n    tag_201:\n        /* \"@openzeppelin/contracts-upgradeable/proxy/utils/UUPSUpgradeable.sol\":6169:6186  newImplementation */\n      dup2\n      sub(shl(0xa0, 0x01), 0x01)\n        /* \"@openzeppelin/contracts-upgradeable/proxy/utils/UUPSUpgradeable.sol\":6151:6201  IERC1822Proxiable(newImplementation).proxiableUUID */\n      and\n      0x52d1902d\n        /* \"@openzeppelin/contracts-upgradeable/proxy/utils/UUPSUpgradeable.sol\":6151:6203  IERC1822Proxiable(newImplementation).proxiableUUID() */\n      mload(0x40)\n      dup2\n      0xffffffff\n      and\n      0xe0\n      shl\n      dup2\n      mstore\n      0x04\n      add\n      0x20\n      mload(0x40)\n      dup1\n      dup4\n      sub\n      dup2\n      dup7\n      gas\n      staticcall\n      swap3\n      pop\n      pop\n      pop\n      dup1\n      iszero\n      tag_355\n      jumpi\n      pop\n      0x40\n      dup1\n      mload\n      0x1f\n      returndatasize\n      swap1\n      dup2\n      add\n      not(0x1f)\n      and\n      dup3\n      add\n      swap1\n      swap3\n      mstore\n      tag_356\n      swap2\n      dup2\n      add\n      swap1\n      tag_357\n      jump\t// in\n    tag_356:\n      0x01\n    tag_355:\n        /* \"@openzeppelin/contracts-upgradeable/proxy/utils/UUPSUpgradeable.sol\":6147:6584  try IERC1822Proxiable(newImplementation).proxiableUUID() returns (bytes32 slot) {... */\n      tag_358\n      jumpi\n        /* \"@openzeppelin/contracts-upgradeable/proxy/utils/UUPSUpgradeable.sol\":6513:6573  ERC1967Utils.ERC1967InvalidImplementation(newImplementation) */\n      mload(0x40)\n      shl(0xe0, 0x4c9c8ce3)\n      dup2\n      mstore\n      sub(shl(0xa0, 0x01), 0x01)\n        /* \"#utility.yul\":5221:5253   */\n      dup4\n      and\n        /* \"@openzeppelin/contracts-upgradeable/proxy/utils/UUPSUpgradeable.sol\":6513:6573  ERC1967Utils.ERC1967InvalidImplementation(newImplementation) */\n      0x04\n      dup3\n      add\n        /* \"#utility.yul\":5203:5254   */\n      mstore\n        /* \"#utility.yul\":5176:5194   */\n      0x24\n      add\n        /* \"@openzeppelin/contracts-upgradeable/proxy/utils/UUPSUpgradeable.sol\":6513:6573  ERC1967Utils.ERC1967InvalidImplementation(newImplementation) */\n      tag_233\n        /* \"#utility.yul\":5057:5260   */\n      jump\n        /* \"@openzeppelin/contracts-upgradeable/proxy/utils/UUPSUpgradeable.sol\":6147:6584  try IERC1822Proxiable(newImplementation).proxiableUUID() returns (bytes32 slot) {... */\n    tag_358:\n      0x00\n      dup1\n      mload\n      0x20\n      data_75b20eef8615de99c108b05f0dbda081c91897128caa336d75dffb97c4132b4d\n      dup4\n      codecopy\n      dup2\n      mload\n      swap2\n      mstore\n        /* \"@openzeppelin/contracts-upgradeable/proxy/utils/UUPSUpgradeable.sol\":6245:6285  slot != ERC1967Utils.IMPLEMENTATION_SLOT */\n      dup2\n      eq\n        /* \"@openzeppelin/contracts-upgradeable/proxy/utils/UUPSUpgradeable.sol\":6241:6361  if (slot != ERC1967Utils.IMPLEMENTATION_SLOT) {... */\n      tag_364\n      jumpi\n        /* \"@openzeppelin/contracts-upgradeable/proxy/utils/UUPSUpgradeable.sol\":6312:6346  UUPSUnsupportedProxiableUUID(slot) */\n      mload(0x40)\n      shl(0xe2, 0x2a875269)\n      dup2\n      mstore\n      0x04\n      dup2\n      add\n        /* \"#utility.yul\":1545:1570   */\n      dup3\n      swap1\n      mstore\n        /* \"#utility.yul\":1518:1536   */\n      0x24\n      add\n        /* \"@openzeppelin/contracts-upgradeable/proxy/utils/UUPSUpgradeable.sol\":6312:6346  UUPSUnsupportedProxiableUUID(slot) */\n      tag_233\n        /* \"#utility.yul\":1399:1576   */\n      jump\n        /* \"@openzeppelin/contracts-upgradeable/proxy/utils/UUPSUpgradeable.sol\":6241:6361  if (slot != ERC1967Utils.IMPLEMENTATION_SLOT) {... */\n    tag_364:\n        /* \"@openzeppelin/contracts-upgradeable/proxy/utils/UUPSUpgradeable.sol\":6374:6428  ERC1967Utils.upgradeToAndCall(newImplementation, data) */\n      tag_306\n        /* \"@openzeppelin/contracts-upgradeable/proxy/utils/UUPSUpgradeable.sol\":6404:6421  newImplementation */\n      dup4\n        /* \"@openzeppelin/contracts-upgradeable/proxy/utils/UUPSUpgradeable.sol\":6423:6427  data */\n      dup4\n        /* \"@openzeppelin/contracts-upgradeable/proxy/utils/UUPSUpgradeable.sol\":6374:6403  ERC1967Utils.upgradeToAndCall */\n      tag_367\n        /* \"@openzeppelin/contracts-upgradeable/proxy/utils/UUPSUpgradeable.sol\":6374:6428  ERC1967Utils.upgradeToAndCall(newImplementation, data) */\n      jump\t// in\n        /* \"@openzeppelin/contracts-upgradeable/proxy/utils/UUPSUpgradeable.sol\":5028:5241  function _checkNotDelegated() internal view virtual {... */\n    tag_204:\n        /* \"@openzeppelin/contracts-upgradeable/proxy/utils/UUPSUpgradeable.sol\":5102:5106  this */\n      address\n      sub(shl(0xa0, 0x01), 0x01)\n        /* \"@openzeppelin/contracts-upgradeable/proxy/utils/UUPSUpgradeable.sol\":5111:5117  __self */\n      immutable(\"0x0b83f23a4eeb8c3f5f7d5934a2289bcf0186d09a12e1b7f20adf54e4b179db15\")\n        /* \"@openzeppelin/contracts-upgradeable/proxy/utils/UUPSUpgradeable.sol\":5094:5117  address(this) != __self */\n      and\n      eq\n        /* \"@openzeppelin/contracts-upgradeable/proxy/utils/UUPSUpgradeable.sol\":5090:5235  if (address(this) != __self) {... */\n      tag_183\n      jumpi\n        /* \"@openzeppelin/contracts-upgradeable/proxy/utils/UUPSUpgradeable.sol\":5195:5224  UUPSUnauthorizedCallContext() */\n      mload(0x40)\n      shl(0xe1, 0x703e46dd)\n      dup2\n      mstore\n      0x04\n      add\n      mload(0x40)\n      dup1\n      swap2\n      sub\n      swap1\n      revert\n        /* \"@openzeppelin/contracts-upgradeable/access/OwnableUpgradeable.sol\":3774:4022  function _transferOwnership(address newOwner) internal virtual {... */\n    tag_215:\n        /* \"@openzeppelin/contracts-upgradeable/access/OwnableUpgradeable.sol\":1313:1335  OwnableStorageLocation */\n      0x9016d09d72d40fdae2fd8ceac6b6234c7706214fd39c1cd1e609a0528c199300\n        /* \"@openzeppelin/contracts-upgradeable/access/OwnableUpgradeable.sol\":3923:3931  $._owner */\n      dup1\n      sload\n      not(sub(shl(0xa0, 0x01), 0x01))\n        /* \"@openzeppelin/contracts-upgradeable/access/OwnableUpgradeable.sol\":3941:3960  $._owner = newOwner */\n      dup2\n      and\n      sub(shl(0xa0, 0x01), 0x01)\n      dup5\n      dup2\n      and\n      swap2\n      dup3\n      or\n      dup5\n      sstore\n        /* \"@openzeppelin/contracts-upgradeable/access/OwnableUpgradeable.sol\":3975:4015  OwnershipTransferred(oldOwner, newOwner) */\n      mload(0x40)\n        /* \"@openzeppelin/contracts-upgradeable/access/OwnableUpgradeable.sol\":3923:3931  $._owner */\n      swap3\n      and\n      swap2\n      dup3\n      swap1\n        /* \"@openzeppelin/contracts-upgradeable/access/OwnableUpgradeable.sol\":3975:4015  OwnershipTransferred(oldOwner, newOwner) */\n      0x8be0079c531659141344cd1fd0a4f28419497f9722a3daafe3b4186f6b6457e0\n      swap1\n        /* \"@openzeppelin/contracts-upgradeable/access/OwnableUpgradeable.sol\":3847:3871  OwnableStorage storage $ */\n      0x00\n      swap1\n        /* \"@openzeppelin/contracts-upgradeable/access/OwnableUpgradeable.sol\":3975:4015  OwnershipTransferred(oldOwner, newOwner) */\n      log3\n        /* \"@openzeppelin/contracts-upgradeable/access/OwnableUpgradeable.sol\":3837:4022  {... */\n      pop\n      pop\n        /* \"@openzeppelin/contracts-upgradeable/access/OwnableUpgradeable.sol\":3774:4022  function _transferOwnership(address newOwner) internal virtual {... */\n      pop\n      jump\t// out\n        /* \"@openzeppelin/contracts-upgradeable/utils/NoncesUpgradeable.sol\":1259:1423  function nonces(address owner) public view virtual returns (uint256) {... */\n    tag_222:\n        /* \"@openzeppelin/contracts-upgradeable/utils/NoncesUpgradeable.sol\":1319:1326  uint256 */\n      0x00\n      dup1\n        /* \"@openzeppelin/contracts-upgradeable/utils/NoncesUpgradeable.sol\":1005:1026  NoncesStorageLocation */\n      0x5ab42ced628888259c08ac98db1eb0cf702fc1501344311d8b100cd1bfe4bb00\n        /* \"@openzeppelin/contracts-upgradeable/utils/NoncesUpgradeable.sol\":1364:1383  _getNoncesStorage() */\n      tag_210\n        /* \"@openzeppelin/contracts-upgradeable/utils/NoncesUpgradeable.sol\":886:1042  function _getNoncesStorage() private pure returns (NoncesStorage storage $) {... */\n      jump\n        /* \"@openzeppelin/contracts-upgradeable/utils/PausableUpgradeable.sol\":3366:3542  function _pause() internal virtual whenNotPaused {... */\n    tag_227:\n        /* \"@openzeppelin/contracts-upgradeable/utils/PausableUpgradeable.sol\":2316:2335  _requireNotPaused() */\n      tag_377\n        /* \"@openzeppelin/contracts-upgradeable/utils/PausableUpgradeable.sol\":2316:2333  _requireNotPaused */\n      tag_378\n        /* \"@openzeppelin/contracts-upgradeable/utils/PausableUpgradeable.sol\":2316:2335  _requireNotPaused() */\n      jump\t// in\n    tag_377:\n      0x00\n      dup1\n      mload\n      0x20\n      data_c0c65a3718f3702d917c44106b91645b509d2e2d0979b70495c3babce192339f\n      dup4\n      codecopy\n      dup2\n      mload\n      swap2\n      mstore\n        /* \"@openzeppelin/contracts-upgradeable/utils/PausableUpgradeable.sol\":3484:3500  $._paused = true */\n      dup1\n      sload\n      not(0xff)\n      and\n        /* \"@openzeppelin/contracts-upgradeable/utils/PausableUpgradeable.sol\":3496:3500  true */\n      0x01\n        /* \"@openzeppelin/contracts-upgradeable/utils/PausableUpgradeable.sol\":3484:3500  $._paused = true */\n      or\n      dup2\n      sstore\n        /* \"@openzeppelin/contracts-upgradeable/utils/PausableUpgradeable.sol\":3515:3535  Paused(_msgSender()) */\n      0x62e78cea01bee320cd4e420270b5ea74000d11b0c9f74754ebdbfc544b05a258\n        /* \"@openzeppelin/contracts-upgradeable/utils/ContextUpgradeable.sol\":966:976  msg.sender */\n      caller\n        /* \"@openzeppelin/contracts-upgradeable/utils/PausableUpgradeable.sol\":3522:3534  _msgSender() */\n      tag_336\n        /* \"@openzeppelin/contracts-upgradeable/utils/ContextUpgradeable.sol\":887:983  function _msgSender() internal view virtual returns (address) {... */\n      jump\n        /* \"@openzeppelin/contracts-upgradeable/utils/cryptography/EIP712Upgradeable.sol\":6300:6455  function _EIP712Name() internal view virtual returns (string memory) {... */\n    tag_236:\n        /* \"@openzeppelin/contracts-upgradeable/utils/cryptography/EIP712Upgradeable.sol\":6441:6448  $._name */\n      0xa16a46d94261c7517cc8ff89f61c0ce93598e3c849801011dee649a6a557d102\n        /* \"@openzeppelin/contracts-upgradeable/utils/cryptography/EIP712Upgradeable.sol\":6434:6448  return $._name */\n      dup1\n      sload\n        /* \"@openzeppelin/contracts-upgradeable/utils/cryptography/EIP712Upgradeable.sol\":6354:6367  string memory */\n      0x60\n      swap2\n      0x00\n      dup1\n      mload\n      0x20\n      data_60016240b4caf95ce61ff2092e1488b3d1aff76bee1c89f54239447d6827d736\n      dup4\n      codecopy\n      dup2\n      mload\n      swap2\n      mstore\n        /* \"@openzeppelin/contracts-upgradeable/utils/cryptography/EIP712Upgradeable.sol\":2839:2860  EIP712StorageLocation */\n      swap2\n        /* \"@openzeppelin/contracts-upgradeable/utils/cryptography/EIP712Upgradeable.sol\":6434:6448  return $._name */\n      tag_156\n      swap1\n      tag_157\n      jump\t// in\n        /* \"@openzeppelin/contracts-upgradeable/utils/cryptography/EIP712Upgradeable.sol\":6682:6843  function _EIP712Version() internal view virtual returns (string memory) {... */\n    tag_238:\n        /* \"@openzeppelin/contracts-upgradeable/utils/cryptography/EIP712Upgradeable.sol\":6739:6752  string memory */\n      0x60\n        /* \"@openzeppelin/contracts-upgradeable/utils/cryptography/EIP712Upgradeable.sol\":6764:6787  EIP712Storage storage $ */\n      0x00\n      0x00\n      dup1\n      mload\n      0x20\n      data_60016240b4caf95ce61ff2092e1488b3d1aff76bee1c89f54239447d6827d736\n      dup4\n      codecopy\n      dup2\n      mload\n      swap2\n      mstore\n        /* \"@openzeppelin/contracts-upgradeable/utils/cryptography/EIP712Upgradeable.sol\":6790:6809  _getEIP712Storage() */\n      tag_154\n        /* \"@openzeppelin/contracts-upgradeable/utils/cryptography/EIP712Upgradeable.sol\":2720:2876  function _getEIP712Storage() private pure returns (EIP712Storage storage $) {... */\n      jump\n        /* \"@openzeppelin/contracts-upgradeable/token/ERC20/ERC20Upgradeable.sol\":2577:2724  function __ERC20_init(string memory name_, string memory symbol_) internal onlyInitializing {... */\n    tag_266:\n        /* \"@openzeppelin/contracts-upgradeable/proxy/utils/Initializable.sol\":6931:6951  _checkInitializing() */\n      tag_401\n        /* \"@openzeppelin/contracts-upgradeable/proxy/utils/Initializable.sol\":6931:6949  _checkInitializing */\n      tag_402\n        /* \"@openzeppelin/contracts-upgradeable/proxy/utils/Initializable.sol\":6931:6951  _checkInitializing() */\n      jump\t// in\n    tag_401:\n        /* \"@openzeppelin/contracts-upgradeable/token/ERC20/ERC20Upgradeable.sol\":2679:2717  __ERC20_init_unchained(name_, symbol_) */\n      tag_188\n        /* \"@openzeppelin/contracts-upgradeable/token/ERC20/ERC20Upgradeable.sol\":2702:2707  name_ */\n      dup3\n        /* \"@openzeppelin/contracts-upgradeable/token/ERC20/ERC20Upgradeable.sol\":2709:2716  symbol_ */\n      dup3\n        /* \"@openzeppelin/contracts-upgradeable/token/ERC20/ERC20Upgradeable.sol\":2679:2701  __ERC20_init_unchained */\n      tag_405\n        /* \"@openzeppelin/contracts-upgradeable/token/ERC20/ERC20Upgradeable.sol\":2679:2717  __ERC20_init_unchained(name_, symbol_) */\n      jump\t// in\n        /* \"@openzeppelin/contracts-upgradeable/token/ERC20/extensions/ERC20BurnableUpgradeable.sol\":666:731  function __ERC20Burnable_init() internal onlyInitializing {... */\n    tag_268:\n        /* \"@openzeppelin/contracts-upgradeable/proxy/utils/Initializable.sol\":6931:6951  _checkInitializing() */\n      tag_183\n        /* \"@openzeppelin/contracts-upgradeable/proxy/utils/Initializable.sol\":6931:6949  _checkInitializing */\n      tag_402\n        /* \"@openzeppelin/contracts-upgradeable/proxy/utils/Initializable.sol\":6931:6951  _checkInitializing() */\n      jump\t// in\n        /* \"@openzeppelin/contracts-upgradeable/token/ERC20/extensions/ERC20PausableUpgradeable.sol\":1148:1250  function __ERC20Pausable_init() internal onlyInitializing {... */\n    tag_270:\n        /* \"@openzeppelin/contracts-upgradeable/proxy/utils/Initializable.sol\":6931:6951  _checkInitializing() */\n      tag_410\n        /* \"@openzeppelin/contracts-upgradeable/proxy/utils/Initializable.sol\":6931:6949  _checkInitializing */\n      tag_402\n        /* \"@openzeppelin/contracts-upgradeable/proxy/utils/Initializable.sol\":6931:6951  _checkInitializing() */\n      jump\t// in\n    tag_410:\n        /* \"@openzeppelin/contracts-upgradeable/token/ERC20/extensions/ERC20PausableUpgradeable.sol\":1216:1243  __Pausable_init_unchained() */\n      tag_183\n        /* \"@openzeppelin/contracts-upgradeable/token/ERC20/extensions/ERC20PausableUpgradeable.sol\":1216:1241  __Pausable_init_unchained */\n      tag_413\n        /* \"@openzeppelin/contracts-upgradeable/token/ERC20/extensions/ERC20PausableUpgradeable.sol\":1216:1243  __Pausable_init_unchained() */\n      jump\t// in\n        /* \"@openzeppelin/contracts-upgradeable/access/OwnableUpgradeable.sol\":1847:1974  function __Ownable_init(address initialOwner) internal onlyInitializing {... */\n    tag_272:\n        /* \"@openzeppelin/contracts-upgradeable/proxy/utils/Initializable.sol\":6931:6951  _checkInitializing() */\n      tag_415\n        /* \"@openzeppelin/contracts-upgradeable/proxy/utils/Initializable.sol\":6931:6949  _checkInitializing */\n      tag_402\n        /* \"@openzeppelin/contracts-upgradeable/proxy/utils/Initializable.sol\":6931:6951  _checkInitializing() */\n      jump\t// in\n    tag_415:\n        /* \"@openzeppelin/contracts-upgradeable/access/OwnableUpgradeable.sol\":1929:1967  __Ownable_init_unchained(initialOwner) */\n      tag_191\n        /* \"@openzeppelin/contracts-upgradeable/access/OwnableUpgradeable.sol\":1954:1966  initialOwner */\n      dup2\n        /* \"@openzeppelin/contracts-upgradeable/access/OwnableUpgradeable.sol\":1929:1953  __Ownable_init_unchained */\n      tag_418\n        /* \"@openzeppelin/contracts-upgradeable/access/OwnableUpgradeable.sol\":1929:1967  __Ownable_init_unchained(initialOwner) */\n      jump\t// in\n        /* \"@openzeppelin/contracts-upgradeable/token/ERC20/extensions/ERC20PermitUpgradeable.sol\":1829:1954  function __ERC20Permit_init(string memory name) internal onlyInitializing {... */\n    tag_274:\n        /* \"@openzeppelin/contracts-upgradeable/proxy/utils/Initializable.sol\":6931:6951  _checkInitializing() */\n      tag_420\n        /* \"@openzeppelin/contracts-upgradeable/proxy/utils/Initializable.sol\":6931:6949  _checkInitializing */\n      tag_402\n        /* \"@openzeppelin/contracts-upgradeable/proxy/utils/Initializable.sol\":6931:6951  _checkInitializing() */\n      jump\t// in\n    tag_420:\n        /* \"@openzeppelin/contracts-upgradeable/token/ERC20/extensions/ERC20PermitUpgradeable.sol\":1913:1947  __EIP712_init_unchained(name, \"1\") */\n      tag_191\n        /* \"@openzeppelin/contracts-upgradeable/token/ERC20/extensions/ERC20PermitUpgradeable.sol\":1937:1941  name */\n      dup2\n        /* \"@openzeppelin/contracts-upgradeable/token/ERC20/extensions/ERC20PermitUpgradeable.sol\":1913:1947  __EIP712_init_unchained(name, \"1\") */\n      mload(0x40)\n      dup1\n      0x40\n      add\n      0x40\n      mstore\n      dup1\n      0x01\n      dup2\n      mstore\n      0x20\n      add\n      shl(0xf8, 0x31)\n      dup2\n      mstore\n      pop\n        /* \"@openzeppelin/contracts-upgradeable/token/ERC20/extensions/ERC20PermitUpgradeable.sol\":1913:1936  __EIP712_init_unchained */\n      tag_423\n        /* \"@openzeppelin/contracts-upgradeable/token/ERC20/extensions/ERC20PermitUpgradeable.sol\":1913:1947  __EIP712_init_unchained(name, \"1\") */\n      jump\t// in\n        /* \"@openzeppelin/contracts-upgradeable/utils/cryptography/EIP712Upgradeable.sol\":4946:5122  function _hashTypedDataV4(bytes32 structHash) internal view virtual returns (bytes32) {... */\n    tag_288:\n        /* \"@openzeppelin/contracts-upgradeable/utils/cryptography/EIP712Upgradeable.sol\":5023:5030  bytes32 */\n      0x00\n        /* \"@openzeppelin/contracts-upgradeable/utils/cryptography/EIP712Upgradeable.sol\":5049:5115  MessageHashUtils.toTypedDataHash(_domainSeparatorV4(), structHash) */\n      tag_162\n        /* \"@openzeppelin/contracts-upgradeable/utils/cryptography/EIP712Upgradeable.sol\":5082:5102  _domainSeparatorV4() */\n      tag_431\n        /* \"@openzeppelin/contracts-upgradeable/utils/cryptography/EIP712Upgradeable.sol\":5082:5100  _domainSeparatorV4 */\n      tag_178\n        /* \"@openzeppelin/contracts-upgradeable/utils/cryptography/EIP712Upgradeable.sol\":5082:5102  _domainSeparatorV4() */\n      jump\t// in\n    tag_431:\n        /* \"@openzeppelin/contracts-upgradeable/utils/cryptography/EIP712Upgradeable.sol\":5104:5114  structHash */\n      dup4\n        /* \"@openzeppelin/contracts/utils/cryptography/MessageHashUtils.sol\":3555:3559  0x40 */\n      0x40\n        /* \"@openzeppelin/contracts/utils/cryptography/MessageHashUtils.sol\":3549:3560  mload(0x40) */\n      mload\n      shl(0xf0, 0x1901)\n        /* \"@openzeppelin/contracts/utils/cryptography/MessageHashUtils.sol\":3573:3596  mstore(ptr, hex\"19_01\") */\n      dup2\n      mstore\n        /* \"@openzeppelin/contracts/utils/cryptography/MessageHashUtils.sol\":3625:3629  0x02 */\n      0x02\n        /* \"@openzeppelin/contracts/utils/cryptography/MessageHashUtils.sol\":3616:3630  add(ptr, 0x02) */\n      dup2\n      add\n        /* \"@openzeppelin/contracts/utils/cryptography/MessageHashUtils.sol\":3609:3648  mstore(add(ptr, 0x02), domainSeparator) */\n      swap3\n      swap1\n      swap3\n      mstore\n        /* \"@openzeppelin/contracts/utils/cryptography/MessageHashUtils.sol\":3677:3681  0x22 */\n      0x22\n        /* \"@openzeppelin/contracts/utils/cryptography/MessageHashUtils.sol\":3668:3682  add(ptr, 0x22) */\n      dup3\n      add\n        /* \"@openzeppelin/contracts/utils/cryptography/MessageHashUtils.sol\":3661:3695  mstore(add(ptr, 0x22), structHash) */\n      mstore\n        /* \"@openzeppelin/contracts/utils/cryptography/MessageHashUtils.sol\":3733:3737  0x42 */\n      0x42\n        /* \"@openzeppelin/contracts/utils/cryptography/MessageHashUtils.sol\":3718:3738  keccak256(ptr, 0x42) */\n      swap1\n      keccak256\n      swap1\n        /* \"@openzeppelin/contracts/utils/cryptography/MessageHashUtils.sol\":3353:3754  function toTypedDataHash(bytes32 domainSeparator, bytes32 structHash) internal pure returns (bytes32 digest) {... */\n      jump\n        /* \"@openzeppelin/contracts/utils/cryptography/ECDSA.sol\":6803:7063  function recover(bytes32 hash, uint8 v, bytes32 r, bytes32 s) internal pure returns (address) {... */\n    tag_290:\n        /* \"@openzeppelin/contracts/utils/cryptography/ECDSA.sol\":6888:6895  address */\n      0x00\n        /* \"@openzeppelin/contracts/utils/cryptography/ECDSA.sol\":6908:6925  address recovered */\n      dup1\n        /* \"@openzeppelin/contracts/utils/cryptography/ECDSA.sol\":6927:6945  RecoverError error */\n      0x00\n        /* \"@openzeppelin/contracts/utils/cryptography/ECDSA.sol\":6947:6963  bytes32 errorArg */\n      dup1\n        /* \"@openzeppelin/contracts/utils/cryptography/ECDSA.sol\":6967:6992  tryRecover(hash, v, r, s) */\n      tag_434\n        /* \"@openzeppelin/contracts/utils/cryptography/ECDSA.sol\":6978:6982  hash */\n      dup9\n        /* \"@openzeppelin/contracts/utils/cryptography/ECDSA.sol\":6984:6985  v */\n      dup9\n        /* \"@openzeppelin/contracts/utils/cryptography/ECDSA.sol\":6987:6988  r */\n      dup9\n        /* \"@openzeppelin/contracts/utils/cryptography/ECDSA.sol\":6990:6991  s */\n      dup9\n        /* \"@openzeppelin/contracts/utils/cryptography/ECDSA.sol\":6967:6977  tryRecover */\n      tag_435\n        /* \"@openzeppelin/contracts/utils/cryptography/ECDSA.sol\":6967:6992  tryRecover(hash, v, r, s) */\n      jump\t// in\n    tag_434:\n        /* \"@openzeppelin/contracts/utils/cryptography/ECDSA.sol\":6907:6992  (address recovered, RecoverError error, bytes32 errorArg) = tryRecover(hash, v, r, s) */\n      swap3\n      pop\n      swap3\n      pop\n      swap3\n      pop\n        /* \"@openzeppelin/contracts/utils/cryptography/ECDSA.sol\":7002:7030  _throwError(error, errorArg) */\n      tag_436\n        /* \"@openzeppelin/contracts/utils/cryptography/ECDSA.sol\":7014:7019  error */\n      dup3\n        /* \"@openzeppelin/contracts/utils/cryptography/ECDSA.sol\":7021:7029  errorArg */\n      dup3\n        /* \"@openzeppelin/contracts/utils/cryptography/ECDSA.sol\":7002:7013  _throwError */\n      tag_437\n        /* \"@openzeppelin/contracts/utils/cryptography/ECDSA.sol\":7002:7030  _throwError(error, errorArg) */\n      jump\t// in\n    tag_436:\n      pop\n        /* \"@openzeppelin/contracts/utils/cryptography/ECDSA.sol\":7047:7056  recovered */\n      swap1\n      swap7\n        /* \"@openzeppelin/contracts/utils/cryptography/ECDSA.sol\":6803:7063  function recover(bytes32 hash, uint8 v, bytes32 r, bytes32 s) internal pure returns (address) {... */\n      swap6\n      pop\n      pop\n      pop\n      pop\n      pop\n      pop\n      jump\t// out\n        /* \"@openzeppelin/contracts-upgradeable/token/ERC20/ERC20Upgradeable.sol\":11224:11711  function _approve(address owner, address spender, uint256 value, bool emitEvent) internal virtual {... */\n    tag_307:\n      0x00\n      dup1\n      mload\n      0x20\n      data_3874827173e8df9f34323b12b251d1d3c53926ce129e30a0d69f1d47c277041b\n      dup4\n      codecopy\n      dup2\n      mload\n      swap2\n      mstore\n      sub(shl(0xa0, 0x01), 0x01)\n        /* \"@openzeppelin/contracts-upgradeable/token/ERC20/ERC20Upgradeable.sol\":11389:11408  owner == address(0) */\n      dup6\n      and\n        /* \"@openzeppelin/contracts-upgradeable/token/ERC20/ERC20Upgradeable.sol\":11385:11474  if (owner == address(0)) {... */\n      tag_440\n      jumpi\n        /* \"@openzeppelin/contracts-upgradeable/token/ERC20/ERC20Upgradeable.sol\":11431:11463  ERC20InvalidApprover(address(0)) */\n      mload(0x40)\n      shl(0xe0, 0xe602df05)\n      dup2\n      mstore\n        /* \"@openzeppelin/contracts-upgradeable/token/ERC20/ERC20Upgradeable.sol\":11460:11461  0 */\n      0x00\n        /* \"@openzeppelin/contracts-upgradeable/token/ERC20/ERC20Upgradeable.sol\":11431:11463  ERC20InvalidApprover(address(0)) */\n      0x04\n      dup3\n      add\n        /* \"#utility.yul\":5203:5254   */\n      mstore\n        /* \"#utility.yul\":5176:5194   */\n      0x24\n      add\n        /* \"@openzeppelin/contracts-upgradeable/token/ERC20/ERC20Upgradeable.sol\":11431:11463  ERC20InvalidApprover(address(0)) */\n      tag_233\n        /* \"#utility.yul\":5057:5260   */\n      jump\n        /* \"@openzeppelin/contracts-upgradeable/token/ERC20/ERC20Upgradeable.sol\":11385:11474  if (owner == address(0)) {... */\n    tag_440:\n      sub(shl(0xa0, 0x01), 0x01)\n        /* \"@openzeppelin/contracts-upgradeable/token/ERC20/ERC20Upgradeable.sol\":11487:11508  spender == address(0) */\n      dup5\n      and\n        /* \"@openzeppelin/contracts-upgradeable/token/ERC20/ERC20Upgradeable.sol\":11483:11573  if (spender == address(0)) {... */\n      tag_442\n      jumpi\n        /* \"@openzeppelin/contracts-upgradeable/token/ERC20/ERC20Upgradeable.sol\":11531:11562  ERC20InvalidSpender(address(0)) */\n      mload(0x40)\n      shl(0xe1, 0x4a1406b1)\n      dup2\n      mstore\n        /* \"@openzeppelin/contracts-upgradeable/token/ERC20/ERC20Upgradeable.sol\":11559:11560  0 */\n      0x00\n        /* \"@openzeppelin/contracts-upgradeable/token/ERC20/ERC20Upgradeable.sol\":11531:11562  ERC20InvalidSpender(address(0)) */\n      0x04\n      dup3\n      add\n        /* \"#utility.yul\":5203:5254   */\n      mstore\n        /* \"#utility.yul\":5176:5194   */\n      0x24\n      add\n        /* \"@openzeppelin/contracts-upgradeable/token/ERC20/ERC20Upgradeable.sol\":11531:11562  ERC20InvalidSpender(address(0)) */\n      tag_233\n        /* \"#utility.yul\":5057:5260   */\n      jump\n        /* \"@openzeppelin/contracts-upgradeable/token/ERC20/ERC20Upgradeable.sol\":11483:11573  if (spender == address(0)) {... */\n    tag_442:\n      sub(shl(0xa0, 0x01), 0x01)\n        /* \"@openzeppelin/contracts-upgradeable/token/ERC20/ERC20Upgradeable.sol\":11582:11602  $._allowances[owner] */\n      dup1\n      dup7\n      and\n      0x00\n      swap1\n      dup2\n      mstore\n        /* \"@openzeppelin/contracts-upgradeable/token/ERC20/ERC20Upgradeable.sol\":11582:11595  $._allowances */\n      0x01\n      dup4\n      add\n        /* \"@openzeppelin/contracts-upgradeable/token/ERC20/ERC20Upgradeable.sol\":11582:11602  $._allowances[owner] */\n      0x20\n      swap1\n      dup2\n      mstore\n      0x40\n      dup1\n      dup4\n      keccak256\n        /* \"@openzeppelin/contracts-upgradeable/token/ERC20/ERC20Upgradeable.sol\":11582:11611  $._allowances[owner][spender] */\n      swap4\n      dup9\n      and\n      dup4\n      mstore\n      swap3\n      swap1\n      mstore\n      keccak256\n        /* \"@openzeppelin/contracts-upgradeable/token/ERC20/ERC20Upgradeable.sol\":11582:11619  $._allowances[owner][spender] = value */\n      dup4\n      swap1\n      sstore\n        /* \"@openzeppelin/contracts-upgradeable/token/ERC20/ERC20Upgradeable.sol\":11629:11705  if (emitEvent) {... */\n      dup2\n      iszero\n      tag_444\n      jumpi\n        /* \"@openzeppelin/contracts-upgradeable/token/ERC20/ERC20Upgradeable.sol\":11679:11686  spender */\n      dup4\n      sub(shl(0xa0, 0x01), 0x01)\n        /* \"@openzeppelin/contracts-upgradeable/token/ERC20/ERC20Upgradeable.sol\":11663:11694  Approval(owner, spender, value) */\n      and\n        /* \"@openzeppelin/contracts-upgradeable/token/ERC20/ERC20Upgradeable.sol\":11672:11677  owner */\n      dup6\n      sub(shl(0xa0, 0x01), 0x01)\n        /* \"@openzeppelin/contracts-upgradeable/token/ERC20/ERC20Upgradeable.sol\":11663:11694  Approval(owner, spender, value) */\n      and\n      0x8c5be1e5ebec7d5bd14f71427d1e84f3dd0314c0f7b2291e5b200ac8c7c3b925\n        /* \"@openzeppelin/contracts-upgradeable/token/ERC20/ERC20Upgradeable.sol\":11688:11693  value */\n      dup6\n        /* \"@openzeppelin/contracts-upgradeable/token/ERC20/ERC20Upgradeable.sol\":11663:11694  Approval(owner, spender, value) */\n      mload(0x40)\n      tag_445\n      swap2\n        /* \"#utility.yul\":1545:1570   */\n      dup2\n      mstore\n        /* \"#utility.yul\":1533:1535   */\n      0x20\n        /* \"#utility.yul\":1518:1536   */\n      add\n      swap1\n        /* \"#utility.yul\":1399:1576   */\n      jump\n        /* \"@openzeppelin/contracts-upgradeable/token/ERC20/ERC20Upgradeable.sol\":11663:11694  Approval(owner, spender, value) */\n    tag_445:\n      mload(0x40)\n      dup1\n      swap2\n      sub\n      swap1\n      log3\n        /* \"@openzeppelin/contracts-upgradeable/token/ERC20/ERC20Upgradeable.sol\":11629:11705  if (emitEvent) {... */\n    tag_444:\n        /* \"@openzeppelin/contracts-upgradeable/token/ERC20/ERC20Upgradeable.sol\":11322:11711  {... */\n      pop\n        /* \"@openzeppelin/contracts-upgradeable/token/ERC20/ERC20Upgradeable.sol\":11224:11711  function _approve(address owner, address spender, uint256 value, bool emitEvent) internal virtual {... */\n      pop\n      pop\n      pop\n      pop\n      jump\t// out\n        /* \"contracts/MyToken.sol\":1651:1838  function _update(address from, address to, uint256 value)... */\n    tag_321:\n        /* \"contracts/MyToken.sol\":1801:1831  super._update(from, to, value) */\n      tag_306\n        /* \"contracts/MyToken.sol\":1815:1819  from */\n      dup4\n        /* \"contracts/MyToken.sol\":1821:1823  to */\n      dup4\n        /* \"contracts/MyToken.sol\":1825:1830  value */\n      dup4\n        /* \"contracts/MyToken.sol\":1801:1814  super._update */\n      tag_448\n        /* \"contracts/MyToken.sol\":1801:1831  super._update(from, to, value) */\n      jump\t// in\n        /* \"@openzeppelin/contracts-upgradeable/utils/cryptography/EIP712Upgradeable.sol\":4130:4321  function _buildDomainSeparator() private view returns (bytes32) {... */\n    tag_324:\n        /* \"@openzeppelin/contracts-upgradeable/utils/cryptography/EIP712Upgradeable.sol\":4185:4192  bytes32 */\n      0x00\n        /* \"@openzeppelin/contracts-upgradeable/utils/cryptography/EIP712Upgradeable.sol\":2073:2168  keccak256(\"EIP712Domain(string name,string version,uint256 chainId,address verifyingContract)\") */\n      0x8b73c3c69bb8fe3d512ecc4cf759cc79239f7b179b0ffacaa9a75d522b39400f\n        /* \"@openzeppelin/contracts-upgradeable/utils/cryptography/EIP712Upgradeable.sol\":4243:4260  _EIP712NameHash() */\n      tag_450\n        /* \"@openzeppelin/contracts-upgradeable/utils/cryptography/EIP712Upgradeable.sol\":4243:4258  _EIP712NameHash */\n      tag_451\n        /* \"@openzeppelin/contracts-upgradeable/utils/cryptography/EIP712Upgradeable.sol\":4243:4260  _EIP712NameHash() */\n      jump\t// in\n    tag_450:\n        /* \"@openzeppelin/contracts-upgradeable/utils/cryptography/EIP712Upgradeable.sol\":4262:4282  _EIP712VersionHash() */\n      tag_452\n        /* \"@openzeppelin/contracts-upgradeable/utils/cryptography/EIP712Upgradeable.sol\":4262:4280  _EIP712VersionHash */\n      tag_453\n        /* \"@openzeppelin/contracts-upgradeable/utils/cryptography/EIP712Upgradeable.sol\":4262:4282  _EIP712VersionHash() */\n      jump\t// in\n    tag_452:\n        /* \"@openzeppelin/contracts-upgradeable/utils/cryptography/EIP712Upgradeable.sol\":4221:4313  abi.encode(TYPE_HASH, _EIP712NameHash(), _EIP712VersionHash(), block.chainid, address(this)) */\n      0x40\n      dup1\n      mload\n      0x20\n      dup2\n      add\n        /* \"#utility.yul\":8880:8905   */\n      swap5\n      swap1\n      swap5\n      mstore\n        /* \"#utility.yul\":8921:8939   */\n      dup4\n      add\n        /* \"#utility.yul\":8914:8948   */\n      swap2\n      swap1\n      swap2\n      mstore\n        /* \"#utility.yul\":8964:8982   */\n      0x60\n      dup3\n      add\n        /* \"#utility.yul\":8957:8991   */\n      mstore\n        /* \"@openzeppelin/contracts-upgradeable/utils/cryptography/EIP712Upgradeable.sol\":4284:4297  block.chainid */\n      chainid\n        /* \"#utility.yul\":9007:9025   */\n      0x80\n      dup3\n      add\n        /* \"#utility.yul\":9000:9034   */\n      mstore\n        /* \"@openzeppelin/contracts-upgradeable/utils/cryptography/EIP712Upgradeable.sol\":4307:4311  this */\n      address\n        /* \"#utility.yul\":9050:9069   */\n      0xa0\n      dup3\n      add\n        /* \"#utility.yul\":9043:9104   */\n      mstore\n        /* \"#utility.yul\":8852:8871   */\n      0xc0\n      add\n        /* \"@openzeppelin/contracts-upgradeable/utils/cryptography/EIP712Upgradeable.sol\":4221:4313  abi.encode(TYPE_HASH, _EIP712NameHash(), _EIP712VersionHash(), block.chainid, address(this)) */\n      mload(0x40)\n      0x20\n      dup2\n      dup4\n      sub\n      sub\n      dup2\n      mstore\n      swap1\n      0x40\n      mstore\n        /* \"@openzeppelin/contracts-upgradeable/utils/cryptography/EIP712Upgradeable.sol\":4211:4314  keccak256(abi.encode(TYPE_HASH, _EIP712NameHash(), _EIP712VersionHash(), block.chainid, address(this))) */\n      dup1\n      mload\n      swap1\n      0x20\n      add\n      keccak256\n        /* \"@openzeppelin/contracts-upgradeable/utils/cryptography/EIP712Upgradeable.sol\":4204:4314  return keccak256(abi.encode(TYPE_HASH, _EIP712NameHash(), _EIP712VersionHash(), block.chainid, address(this))) */\n      swap1\n      pop\n        /* \"@openzeppelin/contracts-upgradeable/utils/cryptography/EIP712Upgradeable.sol\":4130:4321  function _buildDomainSeparator() private view returns (bytes32) {... */\n      swap1\n      jump\t// out\n        /* \"@openzeppelin/contracts-upgradeable/utils/PausableUpgradeable.sol\":3105:3231  function _requirePaused() internal view virtual {... */\n    tag_333:\n      0x00\n      dup1\n      mload\n      0x20\n      data_c0c65a3718f3702d917c44106b91645b509d2e2d0979b70495c3babce192339f\n      dup4\n      codecopy\n      dup2\n      mload\n      swap2\n      mstore\n        /* \"@openzeppelin/contracts-upgradeable/utils/PausableUpgradeable.sol\":2821:2830  $._paused */\n      sload\n      0xff\n      and\n        /* \"@openzeppelin/contracts-upgradeable/utils/PausableUpgradeable.sol\":3163:3225  if (!paused()) {... */\n      tag_183\n      jumpi\n        /* \"@openzeppelin/contracts-upgradeable/utils/PausableUpgradeable.sol\":3199:3214  ExpectedPause() */\n      mload(0x40)\n      shl(0xe0, 0x8dfc202b)\n      dup2\n      mstore\n      0x04\n      add\n      mload(0x40)\n      dup1\n      swap2\n      sub\n      swap1\n      revert\n        /* \"@openzeppelin/contracts/proxy/ERC1967/ERC1967Utils.sol\":2779:3114  function upgradeToAndCall(address newImplementation, bytes memory data) internal {... */\n    tag_367:\n        /* \"@openzeppelin/contracts/proxy/ERC1967/ERC1967Utils.sol\":2870:2907  _setImplementation(newImplementation) */\n      tag_463\n        /* \"@openzeppelin/contracts/proxy/ERC1967/ERC1967Utils.sol\":2889:2906  newImplementation */\n      dup3\n        /* \"@openzeppelin/contracts/proxy/ERC1967/ERC1967Utils.sol\":2870:2888  _setImplementation */\n      tag_464\n        /* \"@openzeppelin/contracts/proxy/ERC1967/ERC1967Utils.sol\":2870:2907  _setImplementation(newImplementation) */\n      jump\t// in\n    tag_463:\n        /* \"@openzeppelin/contracts/proxy/ERC1967/ERC1967Utils.sol\":2922:2949  Upgraded(newImplementation) */\n      mload(0x40)\n      sub(shl(0xa0, 0x01), 0x01)\n      dup4\n      and\n      swap1\n      0xbc7cd75a20ee27fd9adebab32041f755214dbc6bffa90cc0225b39da2e5c2d3b\n      swap1\n      0x00\n      swap1\n      log2\n        /* \"@openzeppelin/contracts/proxy/ERC1967/ERC1967Utils.sol\":2964:2975  data.length */\n      dup1\n      mload\n        /* \"@openzeppelin/contracts/proxy/ERC1967/ERC1967Utils.sol\":2964:2979  data.length > 0 */\n      iszero\n        /* \"@openzeppelin/contracts/proxy/ERC1967/ERC1967Utils.sol\":2960:3108  if (data.length > 0) {... */\n      tag_465\n      jumpi\n        /* \"@openzeppelin/contracts/proxy/ERC1967/ERC1967Utils.sol\":2995:3048  Address.functionDelegateCall(newImplementation, data) */\n      tag_306\n        /* \"@openzeppelin/contracts/proxy/ERC1967/ERC1967Utils.sol\":3024:3041  newImplementation */\n      dup3\n        /* \"@openzeppelin/contracts/proxy/ERC1967/ERC1967Utils.sol\":3043:3047  data */\n      dup3\n        /* \"@openzeppelin/contracts/proxy/ERC1967/ERC1967Utils.sol\":2995:3023  Address.functionDelegateCall */\n      tag_467\n        /* \"@openzeppelin/contracts/proxy/ERC1967/ERC1967Utils.sol\":2995:3048  Address.functionDelegateCall(newImplementation, data) */\n      jump\t// in\n        /* \"@openzeppelin/contracts/proxy/ERC1967/ERC1967Utils.sol\":2960:3108  if (data.length > 0) {... */\n    tag_465:\n        /* \"@openzeppelin/contracts/proxy/ERC1967/ERC1967Utils.sol\":3079:3097  _checkNonPayable() */\n      tag_188\n        /* \"@openzeppelin/contracts/proxy/ERC1967/ERC1967Utils.sol\":3079:3095  _checkNonPayable */\n      tag_470\n        /* \"@openzeppelin/contracts/proxy/ERC1967/ERC1967Utils.sol\":3079:3097  _checkNonPayable() */\n      jump\t// in\n        /* \"@openzeppelin/contracts-upgradeable/utils/PausableUpgradeable.sol\":2905:3033  function _requireNotPaused() internal view virtual {... */\n    tag_378:\n      0x00\n      dup1\n      mload\n      0x20\n      data_c0c65a3718f3702d917c44106b91645b509d2e2d0979b70495c3babce192339f\n      dup4\n      codecopy\n      dup2\n      mload\n      swap2\n      mstore\n        /* \"@openzeppelin/contracts-upgradeable/utils/PausableUpgradeable.sol\":2821:2830  $._paused */\n      sload\n      0xff\n      and\n        /* \"@openzeppelin/contracts-upgradeable/utils/PausableUpgradeable.sol\":2966:3027  if (paused()) {... */\n      iszero\n      tag_183\n      jumpi\n        /* \"@openzeppelin/contracts-upgradeable/utils/PausableUpgradeable.sol\":3001:3016  EnforcedPause() */\n      mload(0x40)\n      shl(0xe0, 0xd93c0665)\n      dup2\n      mstore\n      0x04\n      add\n      mload(0x40)\n      dup1\n      swap2\n      sub\n      swap1\n      revert\n        /* \"@openzeppelin/contracts-upgradeable/proxy/utils/Initializable.sol\":7084:7225  function _checkInitializing() internal view virtual {... */\n    tag_402:\n        /* \"@openzeppelin/contracts-upgradeable/proxy/utils/Initializable.sol\":8870:8891  INITIALIZABLE_STORAGE */\n      0xf0c57e16840df040f15088dc2f81fe391c3923bec73e23a9662efc9c229c6a00\n        /* \"@openzeppelin/contracts-upgradeable/proxy/utils/Initializable.sol\":8560:8600  _getInitializableStorage()._initializing */\n      sload\n      shl(0x40, 0x01)\n      swap1\n      div\n      0xff\n      and\n        /* \"@openzeppelin/contracts-upgradeable/proxy/utils/Initializable.sol\":7146:7219  if (!_isInitializing()) {... */\n      tag_183\n      jumpi\n        /* \"@openzeppelin/contracts-upgradeable/proxy/utils/Initializable.sol\":7191:7208  NotInitializing() */\n      mload(0x40)\n      shl(0xe3, 0x1afcd79f)\n      dup2\n      mstore\n      0x04\n      add\n      mload(0x40)\n      dup1\n      swap2\n      sub\n      swap1\n      revert\n        /* \"@openzeppelin/contracts-upgradeable/token/ERC20/ERC20Upgradeable.sol\":2730:2946  function __ERC20_init_unchained(string memory name_, string memory symbol_) internal onlyInitializing {... */\n    tag_405:\n        /* \"@openzeppelin/contracts-upgradeable/proxy/utils/Initializable.sol\":6931:6951  _checkInitializing() */\n      tag_480\n        /* \"@openzeppelin/contracts-upgradeable/proxy/utils/Initializable.sol\":6931:6949  _checkInitializing */\n      tag_402\n        /* \"@openzeppelin/contracts-upgradeable/proxy/utils/Initializable.sol\":6931:6951  _checkInitializing() */\n      jump\t// in\n    tag_480:\n      0x00\n      dup1\n      mload\n      0x20\n      data_3874827173e8df9f34323b12b251d1d3c53926ce129e30a0d69f1d47c277041b\n      dup4\n      codecopy\n      dup2\n      mload\n      swap2\n      mstore\n        /* \"@openzeppelin/contracts-upgradeable/token/ERC20/ERC20Upgradeable.sol\":2895:2902  $._name */\n      0x52c63247e1f47db19d5ce0460030c497f067ca4cebf71ba98eeadabe20bace03\n        /* \"@openzeppelin/contracts-upgradeable/token/ERC20/ERC20Upgradeable.sol\":2895:2910  $._name = name_ */\n      tag_483\n        /* \"@openzeppelin/contracts-upgradeable/token/ERC20/ERC20Upgradeable.sol\":2905:2910  name_ */\n      dup5\n        /* \"@openzeppelin/contracts-upgradeable/token/ERC20/ERC20Upgradeable.sol\":2895:2902  $._name */\n      dup3\n        /* \"@openzeppelin/contracts-upgradeable/token/ERC20/ERC20Upgradeable.sol\":2895:2910  $._name = name_ */\n      tag_484\n      jump\t// in\n    tag_483:\n      pop\n        /* \"@openzeppelin/contracts-upgradeable/token/ERC20/ERC20Upgradeable.sol\":2920:2929  $._symbol */\n      0x04\n      dup2\n      add\n        /* \"@openzeppelin/contracts-upgradeable/token/ERC20/ERC20Upgradeable.sol\":2920:2939  $._symbol = symbol_ */\n      tag_314\n        /* \"@openzeppelin/contracts-upgradeable/token/ERC20/ERC20Upgradeable.sol\":2932:2939  symbol_ */\n      dup4\n        /* \"@openzeppelin/contracts-upgradeable/token/ERC20/ERC20Upgradeable.sol\":2920:2929  $._symbol */\n      dup3\n        /* \"@openzeppelin/contracts-upgradeable/token/ERC20/ERC20Upgradeable.sol\":2920:2939  $._symbol = symbol_ */\n      tag_484\n      jump\t// in\n        /* \"@openzeppelin/contracts-upgradeable/utils/PausableUpgradeable.sol\":1939:2095  function __Pausable_init_unchained() internal onlyInitializing {... */\n    tag_413:\n        /* \"@openzeppelin/contracts-upgradeable/proxy/utils/Initializable.sol\":6931:6951  _checkInitializing() */\n      tag_487\n        /* \"@openzeppelin/contracts-upgradeable/proxy/utils/Initializable.sol\":6931:6949  _checkInitializing */\n      tag_402\n        /* \"@openzeppelin/contracts-upgradeable/proxy/utils/Initializable.sol\":6931:6951  _checkInitializing() */\n      jump\t// in\n    tag_487:\n      0x00\n      dup1\n      mload\n      0x20\n      data_c0c65a3718f3702d917c44106b91645b509d2e2d0979b70495c3babce192339f\n      dup4\n      codecopy\n      dup2\n      mload\n      swap2\n      mstore\n        /* \"@openzeppelin/contracts-upgradeable/utils/PausableUpgradeable.sol\":2071:2088  $._paused = false */\n      dup1\n      sload\n      not(0xff)\n      and\n      swap1\n      sstore\n        /* \"@openzeppelin/contracts-upgradeable/utils/PausableUpgradeable.sol\":1939:2095  function __Pausable_init_unchained() internal onlyInitializing {... */\n      jump\t// out\n        /* \"@openzeppelin/contracts-upgradeable/access/OwnableUpgradeable.sol\":1980:2215  function __Ownable_init_unchained(address initialOwner) internal onlyInitializing {... */\n    tag_418:\n        /* \"@openzeppelin/contracts-upgradeable/proxy/utils/Initializable.sol\":6931:6951  _checkInitializing() */\n      tag_298\n        /* \"@openzeppelin/contracts-upgradeable/proxy/utils/Initializable.sol\":6931:6949  _checkInitializing */\n      tag_402\n        /* \"@openzeppelin/contracts-upgradeable/proxy/utils/Initializable.sol\":6931:6951  _checkInitializing() */\n      jump\t// in\n        /* \"@openzeppelin/contracts-upgradeable/utils/cryptography/EIP712Upgradeable.sol\":3599:3929  function __EIP712_init_unchained(string memory name, string memory version) internal onlyInitializing {... */\n    tag_423:\n        /* \"@openzeppelin/contracts-upgradeable/proxy/utils/Initializable.sol\":6931:6951  _checkInitializing() */\n      tag_497\n        /* \"@openzeppelin/contracts-upgradeable/proxy/utils/Initializable.sol\":6931:6949  _checkInitializing */\n      tag_402\n        /* \"@openzeppelin/contracts-upgradeable/proxy/utils/Initializable.sol\":6931:6951  _checkInitializing() */\n      jump\t// in\n    tag_497:\n      0x00\n      dup1\n      mload\n      0x20\n      data_60016240b4caf95ce61ff2092e1488b3d1aff76bee1c89f54239447d6827d736\n      dup4\n      codecopy\n      dup2\n      mload\n      swap2\n      mstore\n        /* \"@openzeppelin/contracts-upgradeable/utils/cryptography/EIP712Upgradeable.sol\":3766:3773  $._name */\n      0xa16a46d94261c7517cc8ff89f61c0ce93598e3c849801011dee649a6a557d102\n        /* \"@openzeppelin/contracts-upgradeable/utils/cryptography/EIP712Upgradeable.sol\":3766:3780  $._name = name */\n      tag_500\n        /* \"@openzeppelin/contracts-upgradeable/utils/cryptography/EIP712Upgradeable.sol\":3776:3780  name */\n      dup5\n        /* \"@openzeppelin/contracts-upgradeable/utils/cryptography/EIP712Upgradeable.sol\":3766:3773  $._name */\n      dup3\n        /* \"@openzeppelin/contracts-upgradeable/utils/cryptography/EIP712Upgradeable.sol\":3766:3780  $._name = name */\n      tag_484\n      jump\t// in\n    tag_500:\n      pop\n        /* \"@openzeppelin/contracts-upgradeable/utils/cryptography/EIP712Upgradeable.sol\":3790:3800  $._version */\n      0x03\n      dup2\n      add\n        /* \"@openzeppelin/contracts-upgradeable/utils/cryptography/EIP712Upgradeable.sol\":3790:3810  $._version = version */\n      tag_501\n        /* \"@openzeppelin/contracts-upgradeable/utils/cryptography/EIP712Upgradeable.sol\":3803:3810  version */\n      dup4\n        /* \"@openzeppelin/contracts-upgradeable/utils/cryptography/EIP712Upgradeable.sol\":3790:3800  $._version */\n      dup3\n        /* \"@openzeppelin/contracts-upgradeable/utils/cryptography/EIP712Upgradeable.sol\":3790:3810  $._version = version */\n      tag_484\n      jump\t// in\n    tag_501:\n      pop\n        /* \"@openzeppelin/contracts-upgradeable/utils/cryptography/EIP712Upgradeable.sol\":3891:3892  0 */\n      0x00\n        /* \"@openzeppelin/contracts-upgradeable/utils/cryptography/EIP712Upgradeable.sol\":3875:3892  $._hashedName = 0 */\n      dup1\n      dup3\n      sstore\n        /* \"@openzeppelin/contracts-upgradeable/utils/cryptography/EIP712Upgradeable.sol\":3902:3918  $._hashedVersion */\n      0x01\n      swap1\n      swap2\n      add\n        /* \"@openzeppelin/contracts-upgradeable/utils/cryptography/EIP712Upgradeable.sol\":3902:3922  $._hashedVersion = 0 */\n      sstore\n      pop\n      pop\n        /* \"@openzeppelin/contracts-upgradeable/utils/cryptography/EIP712Upgradeable.sol\":3599:3929  function __EIP712_init_unchained(string memory name, string memory version) internal onlyInitializing {... */\n      jump\t// out\n        /* \"@openzeppelin/contracts/utils/cryptography/ECDSA.sol\":5140:6670  function tryRecover(... */\n    tag_435:\n        /* \"@openzeppelin/contracts/utils/cryptography/ECDSA.sol\":5266:5273  address */\n      0x00\n      dup1\n      dup1\n        /* \"@openzeppelin/contracts/utils/cryptography/ECDSA.sol\":6199:6265  0x7FFFFFFFFFFFFFFFFFFFFFFFFFFFFFFF5D576E7357A4501DDFE92F46681B20A0 */\n      0x7fffffffffffffffffffffffffffffff5d576e7357a4501ddfe92f46681b20a0\n        /* \"@openzeppelin/contracts/utils/cryptography/ECDSA.sol\":6186:6265  uint256(s) > 0x7FFFFFFFFFFFFFFFFFFFFFFFFFFFFFFF5D576E7357A4501DDFE92F46681B20A0 */\n      dup5\n      gt\n        /* \"@openzeppelin/contracts/utils/cryptography/ECDSA.sol\":6182:6346  if (uint256(s) > 0x7FFFFFFFFFFFFFFFFFFFFFFFFFFFFFFF5D576E7357A4501DDFE92F46681B20A0) {... */\n      iszero\n      tag_504\n      jumpi\n      pop\n        /* \"@openzeppelin/contracts/utils/cryptography/ECDSA.sol\":6297:6298  0 */\n      0x00\n      swap2\n      pop\n        /* \"@openzeppelin/contracts/utils/cryptography/ECDSA.sol\":6301:6331  RecoverError.InvalidSignatureS */\n      0x03\n      swap1\n      pop\n        /* \"@openzeppelin/contracts/utils/cryptography/ECDSA.sol\":6333:6334  s */\n      dup3\n        /* \"@openzeppelin/contracts/utils/cryptography/ECDSA.sol\":6281:6335  return (address(0), RecoverError.InvalidSignatureS, s) */\n      jump(tag_503)\n        /* \"@openzeppelin/contracts/utils/cryptography/ECDSA.sol\":6182:6346  if (uint256(s) > 0x7FFFFFFFFFFFFFFFFFFFFFFFFFFFFFFF5D576E7357A4501DDFE92F46681B20A0) {... */\n    tag_504:\n        /* \"@openzeppelin/contracts/utils/cryptography/ECDSA.sol\":6457:6481  ecrecover(hash, v, r, s) */\n      0x40\n      dup1\n      mload\n        /* \"@openzeppelin/contracts/utils/cryptography/ECDSA.sol\":6440:6454  address signer */\n      0x00\n        /* \"@openzeppelin/contracts/utils/cryptography/ECDSA.sol\":6457:6481  ecrecover(hash, v, r, s) */\n      dup1\n      dup3\n      mstore\n      0x20\n      dup3\n      add\n      dup1\n      dup5\n      mstore\n        /* \"#utility.yul\":11546:11571   */\n      dup11\n      swap1\n      mstore\n        /* \"#utility.yul\":11619:11623   */\n      0xff\n        /* \"#utility.yul\":11607:11624   */\n      dup10\n      and\n        /* \"#utility.yul\":11587:11605   */\n      swap3\n      dup3\n      add\n        /* \"#utility.yul\":11580:11625   */\n      swap3\n      swap1\n      swap3\n      mstore\n        /* \"#utility.yul\":11641:11659   */\n      0x60\n      dup2\n      add\n        /* \"#utility.yul\":11634:11668   */\n      dup8\n      swap1\n      mstore\n        /* \"#utility.yul\":11684:11702   */\n      0x80\n      dup2\n      add\n        /* \"#utility.yul\":11677:11711   */\n      dup7\n      swap1\n      mstore\n        /* \"@openzeppelin/contracts/utils/cryptography/ECDSA.sol\":6457:6481  ecrecover(hash, v, r, s) */\n      0x01\n      swap1\n        /* \"#utility.yul\":11518:11537   */\n      0xa0\n      add\n        /* \"@openzeppelin/contracts/utils/cryptography/ECDSA.sol\":6457:6481  ecrecover(hash, v, r, s) */\n      0x20\n      mload(0x40)\n      0x20\n      dup2\n      sub\n      swap1\n      dup1\n      dup5\n      sub\n      swap1\n      dup6\n      gas\n      staticcall\n      iszero\n      dup1\n      iszero\n      tag_508\n      jumpi\n      returndatasize\n      0x00\n      dup1\n      returndatacopy\n      revert(0x00, returndatasize)\n    tag_508:\n      pop\n      pop\n      mload(add(not(0x1f), mload(0x40)))\n      swap2\n      pop\n      pop\n      sub(shl(0xa0, 0x01), 0x01)\n        /* \"@openzeppelin/contracts/utils/cryptography/ECDSA.sol\":6495:6515  signer == address(0) */\n      dup2\n      and\n        /* \"@openzeppelin/contracts/utils/cryptography/ECDSA.sol\":6491:6604  if (signer == address(0)) {... */\n      tag_509\n      jumpi\n      pop\n        /* \"@openzeppelin/contracts/utils/cryptography/ECDSA.sol\":6547:6548  0 */\n      0x00\n      swap3\n      pop\n        /* \"@openzeppelin/contracts/utils/cryptography/ECDSA.sol\":6551:6580  RecoverError.InvalidSignature */\n      0x01\n      swap2\n      pop\n        /* \"@openzeppelin/contracts/utils/cryptography/ECDSA.sol\":6547:6548  0 */\n      dup3\n      swap1\n      pop\n        /* \"@openzeppelin/contracts/utils/cryptography/ECDSA.sol\":6531:6593  return (address(0), RecoverError.InvalidSignature, bytes32(0)) */\n      jump(tag_503)\n        /* \"@openzeppelin/contracts/utils/cryptography/ECDSA.sol\":6491:6604  if (signer == address(0)) {... */\n    tag_509:\n        /* \"@openzeppelin/contracts/utils/cryptography/ECDSA.sol\":6622:6628  signer */\n      swap3\n      pop\n        /* \"@openzeppelin/contracts/utils/cryptography/ECDSA.sol\":6630:6650  RecoverError.NoError */\n      0x00\n      swap2\n      pop\n      dup2\n      swap1\n      pop\n        /* \"@openzeppelin/contracts/utils/cryptography/ECDSA.sol\":5140:6670  function tryRecover(... */\n    tag_503:\n      swap5\n      pop\n      swap5\n      pop\n      swap5\n      swap2\n      pop\n      pop\n      jump\t// out\n        /* \"@openzeppelin/contracts/utils/cryptography/ECDSA.sol\":7196:7728  function _throwError(RecoverError error, bytes32 errorArg) private pure {... */\n    tag_437:\n        /* \"@openzeppelin/contracts/utils/cryptography/ECDSA.sol\":7291:7311  RecoverError.NoError */\n      0x00\n        /* \"@openzeppelin/contracts/utils/cryptography/ECDSA.sol\":7282:7287  error */\n      dup3\n        /* \"@openzeppelin/contracts/utils/cryptography/ECDSA.sol\":7282:7311  error == RecoverError.NoError */\n      0x03\n      dup2\n      gt\n      iszero\n      tag_515\n      jumpi\n      tag_515\n      tag_513\n      jump\t// in\n    tag_515:\n      sub\n        /* \"@openzeppelin/contracts/utils/cryptography/ECDSA.sol\":7278:7722  if (error == RecoverError.NoError) {... */\n      tag_516\n      jumpi\n        /* \"@openzeppelin/contracts/utils/cryptography/ECDSA.sol\":7196:7728  function _throwError(RecoverError error, bytes32 errorArg) private pure {... */\n      pop\n      pop\n      jump\t// out\n        /* \"@openzeppelin/contracts/utils/cryptography/ECDSA.sol\":7278:7722  if (error == RecoverError.NoError) {... */\n    tag_516:\n        /* \"@openzeppelin/contracts/utils/cryptography/ECDSA.sol\":7387:7416  RecoverError.InvalidSignature */\n      0x01\n        /* \"@openzeppelin/contracts/utils/cryptography/ECDSA.sol\":7378:7383  error */\n      dup3\n        /* \"@openzeppelin/contracts/utils/cryptography/ECDSA.sol\":7378:7416  error == RecoverError.InvalidSignature */\n      0x03\n      dup2\n      gt\n      iszero\n      tag_521\n      jumpi\n      tag_521\n      tag_513\n      jump\t// in\n    tag_521:\n      sub\n        /* \"@openzeppelin/contracts/utils/cryptography/ECDSA.sol\":7374:7722  if (error == RecoverError.InvalidSignature) {... */\n      tag_522\n      jumpi\n        /* \"@openzeppelin/contracts/utils/cryptography/ECDSA.sol\":7439:7462  ECDSAInvalidSignature() */\n      mload(0x40)\n      shl(0xe0, 0xf645eedf)\n      dup2\n      mstore\n      0x04\n      add\n      mload(0x40)\n      dup1\n      swap2\n      sub\n      swap1\n      revert\n        /* \"@openzeppelin/contracts/utils/cryptography/ECDSA.sol\":7374:7722  if (error == RecoverError.InvalidSignature) {... */\n    tag_522:\n        /* \"@openzeppelin/contracts/utils/cryptography/ECDSA.sol\":7492:7527  RecoverError.InvalidSignatureLength */\n      0x02\n        /* \"@openzeppelin/contracts/utils/cryptography/ECDSA.sol\":7483:7488  error */\n      dup3\n        /* \"@openzeppelin/contracts/utils/cryptography/ECDSA.sol\":7483:7527  error == RecoverError.InvalidSignatureLength */\n      0x03\n      dup2\n      gt\n      iszero\n      tag_527\n      jumpi\n      tag_527\n      tag_513\n      jump\t// in\n    tag_527:\n      sub\n        /* \"@openzeppelin/contracts/utils/cryptography/ECDSA.sol\":7479:7722  if (error == RecoverError.InvalidSignatureLength) {... */\n      tag_528\n      jumpi\n        /* \"@openzeppelin/contracts/utils/cryptography/ECDSA.sol\":7550:7596  ECDSAInvalidSignatureLength(uint256(errorArg)) */\n      mload(0x40)\n      shl(0xe0, 0xfce698f7)\n      dup2\n      mstore\n      0x04\n      dup2\n      add\n        /* \"#utility.yul\":1545:1570   */\n      dup3\n      swap1\n      mstore\n        /* \"#utility.yul\":1518:1536   */\n      0x24\n      add\n        /* \"@openzeppelin/contracts/utils/cryptography/ECDSA.sol\":7550:7596  ECDSAInvalidSignatureLength(uint256(errorArg)) */\n      tag_233\n        /* \"#utility.yul\":1399:1576   */\n      jump\n        /* \"@openzeppelin/contracts/utils/cryptography/ECDSA.sol\":7479:7722  if (error == RecoverError.InvalidSignatureLength) {... */\n    tag_528:\n        /* \"@openzeppelin/contracts/utils/cryptography/ECDSA.sol\":7626:7656  RecoverError.InvalidSignatureS */\n      0x03\n        /* \"@openzeppelin/contracts/utils/cryptography/ECDSA.sol\":7617:7622  error */\n      dup3\n        /* \"@openzeppelin/contracts/utils/cryptography/ECDSA.sol\":7617:7656  error == RecoverError.InvalidSignatureS */\n      0x03\n      dup2\n      gt\n      iszero\n      tag_534\n      jumpi\n      tag_534\n      tag_513\n      jump\t// in\n    tag_534:\n      sub\n        /* \"@openzeppelin/contracts/utils/cryptography/ECDSA.sol\":7613:7722  if (error == RecoverError.InvalidSignatureS) {... */\n      tag_188\n      jumpi\n        /* \"@openzeppelin/contracts/utils/cryptography/ECDSA.sol\":7679:7711  ECDSAInvalidSignatureS(errorArg) */\n      mload(0x40)\n      shl(0xe2, 0x35e2f383)\n      dup2\n      mstore\n      0x04\n      dup2\n      add\n        /* \"#utility.yul\":1545:1570   */\n      dup3\n      swap1\n      mstore\n        /* \"#utility.yul\":1518:1536   */\n      0x24\n      add\n        /* \"@openzeppelin/contracts/utils/cryptography/ECDSA.sol\":7679:7711  ECDSAInvalidSignatureS(errorArg) */\n      tag_233\n        /* \"#utility.yul\":1399:1576   */\n      jump\n        /* \"@openzeppelin/contracts-upgradeable/token/ERC20/extensions/ERC20PausableUpgradeable.sol\":1462:1607  function _update(address from, address to, uint256 value) internal virtual override whenNotPaused {... */\n    tag_448:\n        /* \"@openzeppelin/contracts-upgradeable/utils/PausableUpgradeable.sol\":2316:2335  _requireNotPaused() */\n      tag_538\n        /* \"@openzeppelin/contracts-upgradeable/utils/PausableUpgradeable.sol\":2316:2333  _requireNotPaused */\n      tag_378\n        /* \"@openzeppelin/contracts-upgradeable/utils/PausableUpgradeable.sol\":2316:2335  _requireNotPaused() */\n      jump\t// in\n    tag_538:\n        /* \"@openzeppelin/contracts-upgradeable/token/ERC20/extensions/ERC20PausableUpgradeable.sol\":1570:1600  super._update(from, to, value) */\n      tag_306\n        /* \"@openzeppelin/contracts-upgradeable/token/ERC20/extensions/ERC20PausableUpgradeable.sol\":1584:1588  from */\n      dup4\n        /* \"@openzeppelin/contracts-upgradeable/token/ERC20/extensions/ERC20PausableUpgradeable.sol\":1590:1592  to */\n      dup4\n        /* \"@openzeppelin/contracts-upgradeable/token/ERC20/extensions/ERC20PausableUpgradeable.sol\":1594:1599  value */\n      dup4\n        /* \"@openzeppelin/contracts-upgradeable/token/ERC20/extensions/ERC20PausableUpgradeable.sol\":1570:1583  super._update */\n      tag_541\n        /* \"@openzeppelin/contracts-upgradeable/token/ERC20/extensions/ERC20PausableUpgradeable.sol\":1570:1600  super._update(from, to, value) */\n      jump\t// in\n        /* \"@openzeppelin/contracts-upgradeable/utils/cryptography/EIP712Upgradeable.sol\":7058:7745  function _EIP712NameHash() internal view returns (bytes32) {... */\n    tag_451:\n        /* \"@openzeppelin/contracts-upgradeable/utils/cryptography/EIP712Upgradeable.sol\":7108:7115  bytes32 */\n      0x00\n      0x00\n      dup1\n      mload\n      0x20\n      data_60016240b4caf95ce61ff2092e1488b3d1aff76bee1c89f54239447d6827d736\n      dup4\n      codecopy\n      dup2\n      mload\n      swap2\n      mstore\n      dup2\n        /* \"@openzeppelin/contracts-upgradeable/utils/cryptography/EIP712Upgradeable.sol\":7203:7216  _EIP712Name() */\n      tag_544\n        /* \"@openzeppelin/contracts-upgradeable/utils/cryptography/EIP712Upgradeable.sol\":7203:7214  _EIP712Name */\n      tag_236\n        /* \"@openzeppelin/contracts-upgradeable/utils/cryptography/EIP712Upgradeable.sol\":7203:7216  _EIP712Name() */\n      jump\t// in\n    tag_544:\n        /* \"@openzeppelin/contracts-upgradeable/utils/cryptography/EIP712Upgradeable.sol\":7230:7248  bytes(name).length */\n      dup1\n      mload\n        /* \"@openzeppelin/contracts-upgradeable/utils/cryptography/EIP712Upgradeable.sol\":7182:7216  string memory name = _EIP712Name() */\n      swap1\n      swap2\n      pop\n        /* \"@openzeppelin/contracts-upgradeable/utils/cryptography/EIP712Upgradeable.sol\":7230:7252  bytes(name).length > 0 */\n      iszero\n        /* \"@openzeppelin/contracts-upgradeable/utils/cryptography/EIP712Upgradeable.sol\":7226:7739  if (bytes(name).length > 0) {... */\n      tag_545\n      jumpi\n        /* \"@openzeppelin/contracts-upgradeable/utils/cryptography/EIP712Upgradeable.sol\":7275:7297  keccak256(bytes(name)) */\n      dup1\n      mload\n      0x20\n      swap1\n      swap2\n      add\n      keccak256\n      swap3\n        /* \"@openzeppelin/contracts-upgradeable/utils/cryptography/EIP712Upgradeable.sol\":7058:7745  function _EIP712NameHash() internal view returns (bytes32) {... */\n      swap2\n      pop\n      pop\n      jump\t// out\n        /* \"@openzeppelin/contracts-upgradeable/utils/cryptography/EIP712Upgradeable.sol\":7226:7739  if (bytes(name).length > 0) {... */\n    tag_545:\n        /* \"@openzeppelin/contracts-upgradeable/utils/cryptography/EIP712Upgradeable.sol\":7572:7585  $._hashedName */\n      dup2\n      sload\n        /* \"@openzeppelin/contracts-upgradeable/utils/cryptography/EIP712Upgradeable.sol\":7603:7618  hashedName != 0 */\n      dup1\n      iszero\n        /* \"@openzeppelin/contracts-upgradeable/utils/cryptography/EIP712Upgradeable.sol\":7599:7729  if (hashedName != 0) {... */\n      tag_547\n      jumpi\n        /* \"@openzeppelin/contracts-upgradeable/utils/cryptography/EIP712Upgradeable.sol\":7645:7655  hashedName */\n      swap4\n        /* \"@openzeppelin/contracts-upgradeable/utils/cryptography/EIP712Upgradeable.sol\":7058:7745  function _EIP712NameHash() internal view returns (bytes32) {... */\n      swap3\n      pop\n      pop\n      pop\n      jump\t// out\n        /* \"@openzeppelin/contracts-upgradeable/utils/cryptography/EIP712Upgradeable.sol\":7599:7729  if (hashedName != 0) {... */\n    tag_547:\n        /* \"@openzeppelin/contracts-upgradeable/utils/cryptography/EIP712Upgradeable.sol\":7701:7714  keccak256(\"\") */\n      0xc5d2460186f7233c927e7db2dcc703c0e500b653ca82273b7bfad8045d85a470\n        /* \"@openzeppelin/contracts-upgradeable/utils/cryptography/EIP712Upgradeable.sol\":7694:7714  return keccak256(\"\") */\n      swap4\n      pop\n      pop\n      pop\n      pop\n        /* \"@openzeppelin/contracts-upgradeable/utils/cryptography/EIP712Upgradeable.sol\":7058:7745  function _EIP712NameHash() internal view returns (bytes32) {... */\n      swap1\n      jump\t// out\n        /* \"@openzeppelin/contracts-upgradeable/utils/cryptography/EIP712Upgradeable.sol\":7966:8689  function _EIP712VersionHash() internal view returns (bytes32) {... */\n    tag_453:\n        /* \"@openzeppelin/contracts-upgradeable/utils/cryptography/EIP712Upgradeable.sol\":8019:8026  bytes32 */\n      0x00\n      0x00\n      dup1\n      mload\n      0x20\n      data_60016240b4caf95ce61ff2092e1488b3d1aff76bee1c89f54239447d6827d736\n      dup4\n      codecopy\n      dup2\n      mload\n      swap2\n      mstore\n      dup2\n        /* \"@openzeppelin/contracts-upgradeable/utils/cryptography/EIP712Upgradeable.sol\":8117:8133  _EIP712Version() */\n      tag_551\n        /* \"@openzeppelin/contracts-upgradeable/utils/cryptography/EIP712Upgradeable.sol\":8117:8131  _EIP712Version */\n      tag_238\n        /* \"@openzeppelin/contracts-upgradeable/utils/cryptography/EIP712Upgradeable.sol\":8117:8133  _EIP712Version() */\n      jump\t// in\n    tag_551:\n        /* \"@openzeppelin/contracts-upgradeable/utils/cryptography/EIP712Upgradeable.sol\":8147:8168  bytes(version).length */\n      dup1\n      mload\n        /* \"@openzeppelin/contracts-upgradeable/utils/cryptography/EIP712Upgradeable.sol\":8093:8133  string memory version = _EIP712Version() */\n      swap1\n      swap2\n      pop\n        /* \"@openzeppelin/contracts-upgradeable/utils/cryptography/EIP712Upgradeable.sol\":8147:8172  bytes(version).length > 0 */\n      iszero\n        /* \"@openzeppelin/contracts-upgradeable/utils/cryptography/EIP712Upgradeable.sol\":8143:8683  if (bytes(version).length > 0) {... */\n      tag_552\n      jumpi\n        /* \"@openzeppelin/contracts-upgradeable/utils/cryptography/EIP712Upgradeable.sol\":8195:8220  keccak256(bytes(version)) */\n      dup1\n      mload\n      0x20\n      swap1\n      swap2\n      add\n      keccak256\n      swap3\n        /* \"@openzeppelin/contracts-upgradeable/utils/cryptography/EIP712Upgradeable.sol\":7966:8689  function _EIP712VersionHash() internal view returns (bytes32) {... */\n      swap2\n      pop\n      pop\n      jump\t// out\n        /* \"@openzeppelin/contracts-upgradeable/utils/cryptography/EIP712Upgradeable.sol\":8143:8683  if (bytes(version).length > 0) {... */\n    tag_552:\n        /* \"@openzeppelin/contracts-upgradeable/utils/cryptography/EIP712Upgradeable.sol\":8507:8523  $._hashedVersion */\n      0x01\n      dup3\n      add\n      sload\n        /* \"@openzeppelin/contracts-upgradeable/utils/cryptography/EIP712Upgradeable.sol\":8541:8559  hashedVersion != 0 */\n      dup1\n      iszero\n        /* \"@openzeppelin/contracts-upgradeable/utils/cryptography/EIP712Upgradeable.sol\":8537:8673  if (hashedVersion != 0) {... */\n      tag_547\n      jumpi\n        /* \"@openzeppelin/contracts-upgradeable/utils/cryptography/EIP712Upgradeable.sol\":8586:8599  hashedVersion */\n      swap4\n        /* \"@openzeppelin/contracts-upgradeable/utils/cryptography/EIP712Upgradeable.sol\":7966:8689  function _EIP712VersionHash() internal view returns (bytes32) {... */\n      swap3\n      pop\n      pop\n      pop\n      jump\t// out\n        /* \"@openzeppelin/contracts/proxy/ERC1967/ERC1967Utils.sol\":2186:2467  function _setImplementation(address newImplementation) private {... */\n    tag_464:\n        /* \"@openzeppelin/contracts/proxy/ERC1967/ERC1967Utils.sol\":2263:2280  newImplementation */\n      dup1\n      sub(shl(0xa0, 0x01), 0x01)\n        /* \"@openzeppelin/contracts/proxy/ERC1967/ERC1967Utils.sol\":2263:2292  newImplementation.code.length */\n      and\n      extcodesize\n        /* \"@openzeppelin/contracts/proxy/ERC1967/ERC1967Utils.sol\":2296:2297  0 */\n      0x00\n        /* \"@openzeppelin/contracts/proxy/ERC1967/ERC1967Utils.sol\":2263:2297  newImplementation.code.length == 0 */\n      sub\n        /* \"@openzeppelin/contracts/proxy/ERC1967/ERC1967Utils.sol\":2259:2378  if (newImplementation.code.length == 0) {... */\n      tag_558\n      jumpi\n        /* \"@openzeppelin/contracts/proxy/ERC1967/ERC1967Utils.sol\":2320:2367  ERC1967InvalidImplementation(newImplementation) */\n      mload(0x40)\n      shl(0xe0, 0x4c9c8ce3)\n      dup2\n      mstore\n      sub(shl(0xa0, 0x01), 0x01)\n        /* \"#utility.yul\":5221:5253   */\n      dup3\n      and\n        /* \"@openzeppelin/contracts/proxy/ERC1967/ERC1967Utils.sol\":2320:2367  ERC1967InvalidImplementation(newImplementation) */\n      0x04\n      dup3\n      add\n        /* \"#utility.yul\":5203:5254   */\n      mstore\n        /* \"#utility.yul\":5176:5194   */\n      0x24\n      add\n        /* \"@openzeppelin/contracts/proxy/ERC1967/ERC1967Utils.sol\":2320:2367  ERC1967InvalidImplementation(newImplementation) */\n      tag_233\n        /* \"#utility.yul\":5057:5260   */\n      jump\n        /* \"@openzeppelin/contracts/proxy/ERC1967/ERC1967Utils.sol\":2259:2378  if (newImplementation.code.length == 0) {... */\n    tag_558:\n      0x00\n      dup1\n      mload\n      0x20\n      data_75b20eef8615de99c108b05f0dbda081c91897128caa336d75dffb97c4132b4d\n      dup4\n      codecopy\n      dup2\n      mload\n      swap2\n      mstore\n        /* \"@openzeppelin/contracts/proxy/ERC1967/ERC1967Utils.sol\":2387:2460  StorageSlot.getAddressSlot(IMPLEMENTATION_SLOT).value = newImplementation */\n      dup1\n      sload\n      not(sub(shl(0xa0, 0x01), 0x01))\n      and\n      sub(shl(0xa0, 0x01), 0x01)\n      swap3\n      swap1\n      swap3\n      and\n      swap2\n      swap1\n      swap2\n      or\n      swap1\n      sstore\n        /* \"@openzeppelin/contracts/proxy/ERC1967/ERC1967Utils.sol\":2186:2467  function _setImplementation(address newImplementation) private {... */\n      jump\t// out\n        /* \"@openzeppelin/contracts/utils/Address.sol\":4106:4359  function functionDelegateCall(address target, bytes memory data) internal returns (bytes memory) {... */\n    tag_467:\n        /* \"@openzeppelin/contracts/utils/Address.sol\":4189:4201  bytes memory */\n      0x60\n        /* \"@openzeppelin/contracts/utils/Address.sol\":4214:4226  bool success */\n      0x00\n        /* \"@openzeppelin/contracts/utils/Address.sol\":4228:4251  bytes memory returndata */\n      dup1\n        /* \"@openzeppelin/contracts/utils/Address.sol\":4255:4261  target */\n      dup5\n      sub(shl(0xa0, 0x01), 0x01)\n        /* \"@openzeppelin/contracts/utils/Address.sol\":4255:4274  target.delegatecall */\n      and\n        /* \"@openzeppelin/contracts/utils/Address.sol\":4275:4279  data */\n      dup5\n        /* \"@openzeppelin/contracts/utils/Address.sol\":4255:4280  target.delegatecall(data) */\n      mload(0x40)\n      tag_562\n      swap2\n      swap1\n      tag_563\n      jump\t// in\n    tag_562:\n      0x00\n      mload(0x40)\n      dup1\n      dup4\n      sub\n      dup2\n      dup6\n      gas\n      delegatecall\n      swap2\n      pop\n      pop\n      returndatasize\n      dup1\n      0x00\n      dup2\n      eq\n      tag_566\n      jumpi\n      mload(0x40)\n      swap2\n      pop\n      and(add(returndatasize, 0x3f), not(0x1f))\n      dup3\n      add\n      0x40\n      mstore\n      returndatasize\n      dup3\n      mstore\n      returndatasize\n      0x00\n      0x20\n      dup5\n      add\n      returndatacopy\n      jump(tag_565)\n    tag_566:\n      0x60\n      swap2\n      pop\n    tag_565:\n      pop\n        /* \"@openzeppelin/contracts/utils/Address.sol\":4213:4280  (bool success, bytes memory returndata) = target.delegatecall(data) */\n      swap2\n      pop\n      swap2\n      pop\n        /* \"@openzeppelin/contracts/utils/Address.sol\":4297:4352  verifyCallResultFromTarget(target, success, returndata) */\n      tag_567\n        /* \"@openzeppelin/contracts/utils/Address.sol\":4324:4330  target */\n      dup6\n        /* \"@openzeppelin/contracts/utils/Address.sol\":4332:4339  success */\n      dup4\n        /* \"@openzeppelin/contracts/utils/Address.sol\":4341:4351  returndata */\n      dup4\n        /* \"@openzeppelin/contracts/utils/Address.sol\":4297:4323  verifyCallResultFromTarget */\n      tag_568\n        /* \"@openzeppelin/contracts/utils/Address.sol\":4297:4352  verifyCallResultFromTarget(target, success, returndata) */\n      jump\t// in\n    tag_567:\n        /* \"@openzeppelin/contracts/utils/Address.sol\":4290:4352  return verifyCallResultFromTarget(target, success, returndata) */\n      swap6\n        /* \"@openzeppelin/contracts/utils/Address.sol\":4106:4359  function functionDelegateCall(address target, bytes memory data) internal returns (bytes memory) {... */\n      swap5\n      pop\n      pop\n      pop\n      pop\n      pop\n      jump\t// out\n        /* \"@openzeppelin/contracts/proxy/ERC1967/ERC1967Utils.sol\":6598:6720  function _checkNonPayable() private {... */\n    tag_470:\n        /* \"@openzeppelin/contracts/proxy/ERC1967/ERC1967Utils.sol\":6648:6657  msg.value */\n      callvalue\n        /* \"@openzeppelin/contracts/proxy/ERC1967/ERC1967Utils.sol\":6648:6661  msg.value > 0 */\n      iszero\n        /* \"@openzeppelin/contracts/proxy/ERC1967/ERC1967Utils.sol\":6644:6714  if (msg.value > 0) {... */\n      tag_183\n      jumpi\n        /* \"@openzeppelin/contracts/proxy/ERC1967/ERC1967Utils.sol\":6684:6703  ERC1967NonPayable() */\n      mload(0x40)\n      shl(0xe0, 0xb398979f)\n      dup2\n      mstore\n      0x04\n      add\n      mload(0x40)\n      dup1\n      swap2\n      sub\n      swap1\n      revert\n        /* \"@openzeppelin/contracts-upgradeable/token/ERC20/ERC20Upgradeable.sol\":7483:8653  function _update(address from, address to, uint256 value) internal virtual {... */\n    tag_541:\n      0x00\n      dup1\n      mload\n      0x20\n      data_3874827173e8df9f34323b12b251d1d3c53926ce129e30a0d69f1d47c277041b\n      dup4\n      codecopy\n      dup2\n      mload\n      swap2\n      mstore\n      sub(shl(0xa0, 0x01), 0x01)\n        /* \"@openzeppelin/contracts-upgradeable/token/ERC20/ERC20Upgradeable.sol\":7625:7643  from == address(0) */\n      dup5\n      and\n        /* \"@openzeppelin/contracts-upgradeable/token/ERC20/ERC20Upgradeable.sol\":7621:8167  if (from == address(0)) {... */\n      tag_575\n      jumpi\n        /* \"@openzeppelin/contracts-upgradeable/token/ERC20/ERC20Upgradeable.sol\":7779:7784  value */\n      dup2\n        /* \"@openzeppelin/contracts-upgradeable/token/ERC20/ERC20Upgradeable.sol\":7761:7762  $ */\n      dup2\n        /* \"@openzeppelin/contracts-upgradeable/token/ERC20/ERC20Upgradeable.sol\":7761:7775  $._totalSupply */\n      0x02\n      add\n      0x00\n        /* \"@openzeppelin/contracts-upgradeable/token/ERC20/ERC20Upgradeable.sol\":7761:7784  $._totalSupply += value */\n      dup3\n      dup3\n      sload\n      tag_576\n      swap2\n      swap1\n      tag_577\n      jump\t// in\n    tag_576:\n      swap1\n      swap2\n      sstore\n      pop\n        /* \"@openzeppelin/contracts-upgradeable/token/ERC20/ERC20Upgradeable.sol\":7621:8167  if (from == address(0)) {... */\n      tag_578\n      swap1\n      pop\n      jump\n    tag_575:\n      sub(shl(0xa0, 0x01), 0x01)\n        /* \"@openzeppelin/contracts-upgradeable/token/ERC20/ERC20Upgradeable.sol\":7837:7854  $._balances[from] */\n      dup5\n      and\n        /* \"@openzeppelin/contracts-upgradeable/token/ERC20/ERC20Upgradeable.sol\":7815:7834  uint256 fromBalance */\n      0x00\n        /* \"@openzeppelin/contracts-upgradeable/token/ERC20/ERC20Upgradeable.sol\":7837:7854  $._balances[from] */\n      swap1\n      dup2\n      mstore\n      0x20\n      dup3\n      swap1\n      mstore\n      0x40\n      swap1\n      keccak256\n      sload\n        /* \"@openzeppelin/contracts-upgradeable/token/ERC20/ERC20Upgradeable.sol\":7872:7891  fromBalance < value */\n      dup3\n      dup2\n      lt\n        /* \"@openzeppelin/contracts-upgradeable/token/ERC20/ERC20Upgradeable.sol\":7868:7983  if (fromBalance < value) {... */\n      iszero\n      tag_579\n      jumpi\n        /* \"@openzeppelin/contracts-upgradeable/token/ERC20/ERC20Upgradeable.sol\":7918:7968  ERC20InsufficientBalance(from, fromBalance, value) */\n      mload(0x40)\n      shl(0xe2, 0x391434e3)\n      dup2\n      mstore\n      sub(shl(0xa0, 0x01), 0x01)\n        /* \"#utility.yul\":8302:8334   */\n      dup7\n      and\n        /* \"@openzeppelin/contracts-upgradeable/token/ERC20/ERC20Upgradeable.sol\":7918:7968  ERC20InsufficientBalance(from, fromBalance, value) */\n      0x04\n      dup3\n      add\n        /* \"#utility.yul\":8284:8335   */\n      mstore\n        /* \"#utility.yul\":8351:8369   */\n      0x24\n      dup2\n      add\n        /* \"#utility.yul\":8344:8378   */\n      dup3\n      swap1\n      mstore\n        /* \"#utility.yul\":8394:8412   */\n      0x44\n      dup2\n      add\n        /* \"#utility.yul\":8387:8421   */\n      dup5\n      swap1\n      mstore\n        /* \"#utility.yul\":8257:8275   */\n      0x64\n      add\n        /* \"@openzeppelin/contracts-upgradeable/token/ERC20/ERC20Upgradeable.sol\":7918:7968  ERC20InsufficientBalance(from, fromBalance, value) */\n      tag_233\n        /* \"#utility.yul\":8082:8427   */\n      jump\n        /* \"@openzeppelin/contracts-upgradeable/token/ERC20/ERC20Upgradeable.sol\":7868:7983  if (fromBalance < value) {... */\n    tag_579:\n      sub(shl(0xa0, 0x01), 0x01)\n        /* \"@openzeppelin/contracts-upgradeable/token/ERC20/ERC20Upgradeable.sol\":8103:8120  $._balances[from] */\n      dup6\n      and\n        /* \"@openzeppelin/contracts-upgradeable/token/ERC20/ERC20Upgradeable.sol\":8103:8114  $._balances */\n      0x00\n        /* \"@openzeppelin/contracts-upgradeable/token/ERC20/ERC20Upgradeable.sol\":8103:8120  $._balances[from] */\n      swap1\n      dup2\n      mstore\n      0x20\n      dup4\n      swap1\n      mstore\n      0x40\n      swap1\n      keccak256\n        /* \"@openzeppelin/contracts-upgradeable/token/ERC20/ERC20Upgradeable.sol\":8123:8142  fromBalance - value */\n      swap1\n      dup4\n      swap1\n      sub\n        /* \"@openzeppelin/contracts-upgradeable/token/ERC20/ERC20Upgradeable.sol\":8103:8142  $._balances[from] = fromBalance - value */\n      swap1\n      sstore\n        /* \"@openzeppelin/contracts-upgradeable/token/ERC20/ERC20Upgradeable.sol\":7621:8167  if (from == address(0)) {... */\n    tag_578:\n      sub(shl(0xa0, 0x01), 0x01)\n        /* \"@openzeppelin/contracts-upgradeable/token/ERC20/ERC20Upgradeable.sol\":8181:8197  to == address(0) */\n      dup4\n      and\n        /* \"@openzeppelin/contracts-upgradeable/token/ERC20/ERC20Upgradeable.sol\":8177:8606  if (to == address(0)) {... */\n      tag_581\n      jumpi\n        /* \"@openzeppelin/contracts-upgradeable/token/ERC20/ERC20Upgradeable.sol\":8344:8358  $._totalSupply */\n      0x02\n      dup2\n      add\n        /* \"@openzeppelin/contracts-upgradeable/token/ERC20/ERC20Upgradeable.sol\":8344:8367  $._totalSupply -= value */\n      dup1\n      sload\n      dup4\n      swap1\n      sub\n      swap1\n      sstore\n        /* \"@openzeppelin/contracts-upgradeable/token/ERC20/ERC20Upgradeable.sol\":8177:8606  if (to == address(0)) {... */\n      jump(tag_582)\n    tag_581:\n      sub(shl(0xa0, 0x01), 0x01)\n        /* \"@openzeppelin/contracts-upgradeable/token/ERC20/ERC20Upgradeable.sol\":8557:8572  $._balances[to] */\n      dup4\n      and\n        /* \"@openzeppelin/contracts-upgradeable/token/ERC20/ERC20Upgradeable.sol\":8557:8568  $._balances */\n      0x00\n        /* \"@openzeppelin/contracts-upgradeable/token/ERC20/ERC20Upgradeable.sol\":8557:8572  $._balances[to] */\n      swap1\n      dup2\n      mstore\n      0x20\n      dup3\n      swap1\n      mstore\n      0x40\n      swap1\n      keccak256\n        /* \"@openzeppelin/contracts-upgradeable/token/ERC20/ERC20Upgradeable.sol\":8557:8581  $._balances[to] += value */\n      dup1\n      sload\n      dup4\n      add\n      swap1\n      sstore\n        /* \"@openzeppelin/contracts-upgradeable/token/ERC20/ERC20Upgradeable.sol\":8177:8606  if (to == address(0)) {... */\n    tag_582:\n        /* \"@openzeppelin/contracts-upgradeable/token/ERC20/ERC20Upgradeable.sol\":8636:8638  to */\n      dup3\n      sub(shl(0xa0, 0x01), 0x01)\n        /* \"@openzeppelin/contracts-upgradeable/token/ERC20/ERC20Upgradeable.sol\":8621:8646  Transfer(from, to, value) */\n      and\n        /* \"@openzeppelin/contracts-upgradeable/token/ERC20/ERC20Upgradeable.sol\":8630:8634  from */\n      dup5\n      sub(shl(0xa0, 0x01), 0x01)\n        /* \"@openzeppelin/contracts-upgradeable/token/ERC20/ERC20Upgradeable.sol\":8621:8646  Transfer(from, to, value) */\n      and\n      0xddf252ad1be2c89b69c2b068fc378daa952ba7f163c4a11628f55a4df523b3ef\n        /* \"@openzeppelin/contracts-upgradeable/token/ERC20/ERC20Upgradeable.sol\":8640:8645  value */\n      dup5\n        /* \"@openzeppelin/contracts-upgradeable/token/ERC20/ERC20Upgradeable.sol\":8621:8646  Transfer(from, to, value) */\n      mload(0x40)\n      tag_583\n      swap2\n        /* \"#utility.yul\":1545:1570   */\n      dup2\n      mstore\n        /* \"#utility.yul\":1533:1535   */\n      0x20\n        /* \"#utility.yul\":1518:1536   */\n      add\n      swap1\n        /* \"#utility.yul\":1399:1576   */\n      jump\n        /* \"@openzeppelin/contracts-upgradeable/token/ERC20/ERC20Upgradeable.sol\":8621:8646  Transfer(from, to, value) */\n    tag_583:\n      mload(0x40)\n      dup1\n      swap2\n      sub\n      swap1\n      log3\n        /* \"@openzeppelin/contracts-upgradeable/token/ERC20/ERC20Upgradeable.sol\":7558:8653  {... */\n      pop\n        /* \"@openzeppelin/contracts-upgradeable/token/ERC20/ERC20Upgradeable.sol\":7483:8653  function _update(address from, address to, uint256 value) internal virtual {... */\n      pop\n      pop\n      pop\n      jump\t// out\n        /* \"@openzeppelin/contracts/utils/Address.sol\":4625:5207  function verifyCallResultFromTarget(... */\n    tag_568:\n        /* \"@openzeppelin/contracts/utils/Address.sol\":4769:4781  bytes memory */\n      0x60\n        /* \"@openzeppelin/contracts/utils/Address.sol\":4798:4805  success */\n      dup3\n        /* \"@openzeppelin/contracts/utils/Address.sol\":4793:5201  if (!success) {... */\n      tag_585\n      jumpi\n        /* \"@openzeppelin/contracts/utils/Address.sol\":4821:4840  _revert(returndata) */\n      tag_586\n        /* \"@openzeppelin/contracts/utils/Address.sol\":4829:4839  returndata */\n      dup3\n        /* \"@openzeppelin/contracts/utils/Address.sol\":4821:4828  _revert */\n      tag_587\n        /* \"@openzeppelin/contracts/utils/Address.sol\":4821:4840  _revert(returndata) */\n      jump\t// in\n    tag_586:\n        /* \"@openzeppelin/contracts/utils/Address.sol\":4793:5201  if (!success) {... */\n      jump(tag_169)\n    tag_585:\n        /* \"@openzeppelin/contracts/utils/Address.sol\":5045:5062  returndata.length */\n      dup2\n      mload\n        /* \"@openzeppelin/contracts/utils/Address.sol\":5045:5067  returndata.length == 0 */\n      iszero\n        /* \"@openzeppelin/contracts/utils/Address.sol\":5045:5094  returndata.length == 0 && target.code.length == 0 */\n      dup1\n      iszero\n      tag_589\n      jumpi\n      pop\n      sub(shl(0xa0, 0x01), 0x01)\n        /* \"@openzeppelin/contracts/utils/Address.sol\":5071:5089  target.code.length */\n      dup5\n      and\n      extcodesize\n        /* \"@openzeppelin/contracts/utils/Address.sol\":5071:5094  target.code.length == 0 */\n      iszero\n        /* \"@openzeppelin/contracts/utils/Address.sol\":5045:5094  returndata.length == 0 && target.code.length == 0 */\n    tag_589:\n        /* \"@openzeppelin/contracts/utils/Address.sol\":5041:5160  if (returndata.length == 0 && target.code.length == 0) {... */\n      iszero\n      tag_590\n      jumpi\n        /* \"@openzeppelin/contracts/utils/Address.sol\":5121:5145  AddressEmptyCode(target) */\n      mload(0x40)\n      shl(0xe0, 0x9996b315)\n      dup2\n      mstore\n      sub(shl(0xa0, 0x01), 0x01)\n        /* \"#utility.yul\":5221:5253   */\n      dup6\n      and\n        /* \"@openzeppelin/contracts/utils/Address.sol\":5121:5145  AddressEmptyCode(target) */\n      0x04\n      dup3\n      add\n        /* \"#utility.yul\":5203:5254   */\n      mstore\n        /* \"#utility.yul\":5176:5194   */\n      0x24\n      add\n        /* \"@openzeppelin/contracts/utils/Address.sol\":5121:5145  AddressEmptyCode(target) */\n      tag_233\n        /* \"#utility.yul\":5057:5260   */\n      jump\n        /* \"@openzeppelin/contracts/utils/Address.sol\":5041:5160  if (returndata.length == 0 && target.code.length == 0) {... */\n    tag_590:\n      pop\n        /* \"@openzeppelin/contracts/utils/Address.sol\":5180:5190  returndata */\n      dup1\n        /* \"@openzeppelin/contracts/utils/Address.sol\":5173:5190  return returndata */\n      jump(tag_169)\n        /* \"@openzeppelin/contracts/utils/Address.sol\":5743:6259  function _revert(bytes memory returndata) private pure {... */\n    tag_587:\n        /* \"@openzeppelin/contracts/utils/Address.sol\":5874:5891  returndata.length */\n      dup1\n      mload\n        /* \"@openzeppelin/contracts/utils/Address.sol\":5874:5895  returndata.length > 0 */\n      iszero\n        /* \"@openzeppelin/contracts/utils/Address.sol\":5870:6253  if (returndata.length > 0) {... */\n      tag_593\n      jumpi\n        /* \"@openzeppelin/contracts/utils/Address.sol\":6102:6112  returndata */\n      dup1\n        /* \"@openzeppelin/contracts/utils/Address.sol\":6096:6113  mload(returndata) */\n      mload\n        /* \"@openzeppelin/contracts/utils/Address.sol\":6158:6173  returndata_size */\n      dup1\n        /* \"@openzeppelin/contracts/utils/Address.sol\":6145:6155  returndata */\n      dup3\n        /* \"@openzeppelin/contracts/utils/Address.sol\":6141:6143  32 */\n      0x20\n        /* \"@openzeppelin/contracts/utils/Address.sol\":6137:6156  add(32, returndata) */\n      add\n        /* \"@openzeppelin/contracts/utils/Address.sol\":6130:6174  revert(add(32, returndata), returndata_size) */\n      revert\n        /* \"@openzeppelin/contracts/utils/Address.sol\":5870:6253  if (returndata.length > 0) {... */\n    tag_593:\n        /* \"@openzeppelin/contracts/utils/Address.sol\":6225:6242  FailedInnerCall() */\n      mload(0x40)\n      shl(0xe1, 0x0a12f521)\n      dup2\n      mstore\n      0x04\n      add\n      mload(0x40)\n      dup1\n      swap2\n      sub\n      swap1\n      revert\n        /* \"#utility.yul\":14:264   */\n    tag_595:\n        /* \"#utility.yul\":99:100   */\n      0x00\n        /* \"#utility.yul\":109:222   */\n    tag_603:\n        /* \"#utility.yul\":123:129   */\n      dup4\n        /* \"#utility.yul\":120:121   */\n      dup2\n        /* \"#utility.yul\":117:130   */\n      lt\n        /* \"#utility.yul\":109:222   */\n      iszero\n      tag_605\n      jumpi\n        /* \"#utility.yul\":199:210   */\n      dup2\n      dup2\n      add\n        /* \"#utility.yul\":193:211   */\n      mload\n        /* \"#utility.yul\":180:191   */\n      dup4\n      dup3\n      add\n        /* \"#utility.yul\":173:212   */\n      mstore\n        /* \"#utility.yul\":145:147   */\n      0x20\n        /* \"#utility.yul\":138:148   */\n      add\n        /* \"#utility.yul\":109:222   */\n      jump(tag_603)\n    tag_605:\n      pop\n      pop\n        /* \"#utility.yul\":256:257   */\n      0x00\n        /* \"#utility.yul\":238:254   */\n      swap2\n      add\n        /* \"#utility.yul\":231:258   */\n      mstore\n        /* \"#utility.yul\":14:264   */\n      jump\t// out\n        /* \"#utility.yul\":269:540   */\n    tag_596:\n        /* \"#utility.yul\":311:314   */\n      0x00\n        /* \"#utility.yul\":349:354   */\n      dup2\n        /* \"#utility.yul\":343:355   */\n      mload\n        /* \"#utility.yul\":376:382   */\n      dup1\n        /* \"#utility.yul\":371:374   */\n      dup5\n        /* \"#utility.yul\":364:383   */\n      mstore\n        /* \"#utility.yul\":392:468   */\n      tag_607\n        /* \"#utility.yul\":461:467   */\n      dup2\n        /* \"#utility.yul\":454:458   */\n      0x20\n        /* \"#utility.yul\":449:452   */\n      dup7\n        /* \"#utility.yul\":445:459   */\n      add\n        /* \"#utility.yul\":438:442   */\n      0x20\n        /* \"#utility.yul\":431:436   */\n      dup7\n        /* \"#utility.yul\":427:443   */\n      add\n        /* \"#utility.yul\":392:468   */\n      tag_595\n      jump\t// in\n    tag_607:\n        /* \"#utility.yul\":522:524   */\n      0x1f\n        /* \"#utility.yul\":501:516   */\n      add\n      not(0x1f)\n        /* \"#utility.yul\":497:526   */\n      and\n        /* \"#utility.yul\":488:527   */\n      swap3\n      swap1\n      swap3\n      add\n        /* \"#utility.yul\":529:533   */\n      0x20\n        /* \"#utility.yul\":484:534   */\n      add\n      swap3\n        /* \"#utility.yul\":269:540   */\n      swap2\n      pop\n      pop\n      jump\t// out\n        /* \"#utility.yul\":545:765   */\n    tag_37:\n        /* \"#utility.yul\":694:696   */\n      0x20\n        /* \"#utility.yul\":683:692   */\n      dup2\n        /* \"#utility.yul\":676:697   */\n      mstore\n        /* \"#utility.yul\":657:661   */\n      0x00\n        /* \"#utility.yul\":714:759   */\n      tag_169\n        /* \"#utility.yul\":755:757   */\n      0x20\n        /* \"#utility.yul\":744:753   */\n      dup4\n        /* \"#utility.yul\":740:758   */\n      add\n        /* \"#utility.yul\":732:738   */\n      dup5\n        /* \"#utility.yul\":714:759   */\n      tag_596\n      jump\t// in\n        /* \"#utility.yul\":770:943   */\n    tag_597:\n        /* \"#utility.yul\":838:858   */\n      dup1\n      calldataload\n      sub(shl(0xa0, 0x01), 0x01)\n        /* \"#utility.yul\":887:918   */\n      dup2\n      and\n        /* \"#utility.yul\":877:919   */\n      dup2\n      eq\n        /* \"#utility.yul\":867:937   */\n      tag_611\n      jumpi\n        /* \"#utility.yul\":933:934   */\n      0x00\n        /* \"#utility.yul\":930:931   */\n      dup1\n        /* \"#utility.yul\":923:935   */\n      revert\n        /* \"#utility.yul\":867:937   */\n    tag_611:\n        /* \"#utility.yul\":770:943   */\n      swap2\n      swap1\n      pop\n      jump\t// out\n        /* \"#utility.yul\":948:1202   */\n    tag_41:\n        /* \"#utility.yul\":1016:1022   */\n      0x00\n        /* \"#utility.yul\":1024:1030   */\n      dup1\n        /* \"#utility.yul\":1077:1079   */\n      0x40\n        /* \"#utility.yul\":1065:1074   */\n      dup4\n        /* \"#utility.yul\":1056:1063   */\n      dup6\n        /* \"#utility.yul\":1052:1075   */\n      sub\n        /* \"#utility.yul\":1048:1080   */\n      slt\n        /* \"#utility.yul\":1045:1097   */\n      iszero\n      tag_613\n      jumpi\n        /* \"#utility.yul\":1093:1094   */\n      0x00\n        /* \"#utility.yul\":1090:1091   */\n      dup1\n        /* \"#utility.yul\":1083:1095   */\n      revert\n        /* \"#utility.yul\":1045:1097   */\n    tag_613:\n        /* \"#utility.yul\":1116:1145   */\n      tag_614\n        /* \"#utility.yul\":1135:1144   */\n      dup4\n        /* \"#utility.yul\":1116:1145   */\n      tag_597\n      jump\t// in\n    tag_614:\n        /* \"#utility.yul\":1106:1145   */\n      swap5\n        /* \"#utility.yul\":1192:1194   */\n      0x20\n        /* \"#utility.yul\":1177:1195   */\n      swap4\n      swap1\n      swap4\n      add\n        /* \"#utility.yul\":1164:1196   */\n      calldataload\n      swap4\n      pop\n      pop\n      pop\n        /* \"#utility.yul\":948:1202   */\n      jump\t// out\n        /* \"#utility.yul\":1581:1909   */\n    tag_53:\n        /* \"#utility.yul\":1658:1664   */\n      0x00\n        /* \"#utility.yul\":1666:1672   */\n      dup1\n        /* \"#utility.yul\":1674:1680   */\n      0x00\n        /* \"#utility.yul\":1727:1729   */\n      0x60\n        /* \"#utility.yul\":1715:1724   */\n      dup5\n        /* \"#utility.yul\":1706:1713   */\n      dup7\n        /* \"#utility.yul\":1702:1725   */\n      sub\n        /* \"#utility.yul\":1698:1730   */\n      slt\n        /* \"#utility.yul\":1695:1747   */\n      iszero\n      tag_618\n      jumpi\n        /* \"#utility.yul\":1743:1744   */\n      0x00\n        /* \"#utility.yul\":1740:1741   */\n      dup1\n        /* \"#utility.yul\":1733:1745   */\n      revert\n        /* \"#utility.yul\":1695:1747   */\n    tag_618:\n        /* \"#utility.yul\":1766:1795   */\n      tag_619\n        /* \"#utility.yul\":1785:1794   */\n      dup5\n        /* \"#utility.yul\":1766:1795   */\n      tag_597\n      jump\t// in\n    tag_619:\n        /* \"#utility.yul\":1756:1795   */\n      swap3\n      pop\n        /* \"#utility.yul\":1814:1852   */\n      tag_620\n        /* \"#utility.yul\":1848:1850   */\n      0x20\n        /* \"#utility.yul\":1837:1846   */\n      dup6\n        /* \"#utility.yul\":1833:1851   */\n      add\n        /* \"#utility.yul\":1814:1852   */\n      tag_597\n      jump\t// in\n    tag_620:\n        /* \"#utility.yul\":1804:1852   */\n      swap2\n      pop\n        /* \"#utility.yul\":1899:1901   */\n      0x40\n        /* \"#utility.yul\":1888:1897   */\n      dup5\n        /* \"#utility.yul\":1884:1902   */\n      add\n        /* \"#utility.yul\":1871:1903   */\n      calldataload\n        /* \"#utility.yul\":1861:1903   */\n      swap1\n      pop\n        /* \"#utility.yul\":1581:1909   */\n      swap3\n      pop\n      swap3\n      pop\n      swap3\n      jump\t// out\n        /* \"#utility.yul\":2285:2465   */\n    tag_76:\n        /* \"#utility.yul\":2344:2350   */\n      0x00\n        /* \"#utility.yul\":2397:2399   */\n      0x20\n        /* \"#utility.yul\":2385:2394   */\n      dup3\n        /* \"#utility.yul\":2376:2383   */\n      dup5\n        /* \"#utility.yul\":2372:2395   */\n      sub\n        /* \"#utility.yul\":2368:2400   */\n      slt\n        /* \"#utility.yul\":2365:2417   */\n      iszero\n      tag_624\n      jumpi\n        /* \"#utility.yul\":2413:2414   */\n      0x00\n        /* \"#utility.yul\":2410:2411   */\n      dup1\n        /* \"#utility.yul\":2403:2415   */\n      revert\n        /* \"#utility.yul\":2365:2417   */\n    tag_624:\n      pop\n        /* \"#utility.yul\":2436:2459   */\n      calldataload\n      swap2\n        /* \"#utility.yul\":2285:2465   */\n      swap1\n      pop\n      jump\t// out\n        /* \"#utility.yul\":2470:2597   */\n    tag_241:\n        /* \"#utility.yul\":2531:2541   */\n      0x4e487b71\n        /* \"#utility.yul\":2526:2529   */\n      0xe0\n        /* \"#utility.yul\":2522:2542   */\n      shl\n        /* \"#utility.yul\":2519:2520   */\n      0x00\n        /* \"#utility.yul\":2512:2543   */\n      mstore\n        /* \"#utility.yul\":2562:2566   */\n      0x41\n        /* \"#utility.yul\":2559:2560   */\n      0x04\n        /* \"#utility.yul\":2552:2567   */\n      mstore\n        /* \"#utility.yul\":2586:2590   */\n      0x24\n        /* \"#utility.yul\":2583:2584   */\n      0x00\n        /* \"#utility.yul\":2576:2591   */\n      revert\n        /* \"#utility.yul\":2602:3597   */\n    tag_80:\n        /* \"#utility.yul\":2679:2685   */\n      0x00\n        /* \"#utility.yul\":2687:2693   */\n      dup1\n        /* \"#utility.yul\":2740:2742   */\n      0x40\n        /* \"#utility.yul\":2728:2737   */\n      dup4\n        /* \"#utility.yul\":2719:2726   */\n      dup6\n        /* \"#utility.yul\":2715:2738   */\n      sub\n        /* \"#utility.yul\":2711:2743   */\n      slt\n        /* \"#utility.yul\":2708:2760   */\n      iszero\n      tag_627\n      jumpi\n        /* \"#utility.yul\":2756:2757   */\n      0x00\n        /* \"#utility.yul\":2753:2754   */\n      dup1\n        /* \"#utility.yul\":2746:2758   */\n      revert\n        /* \"#utility.yul\":2708:2760   */\n    tag_627:\n        /* \"#utility.yul\":2779:2808   */\n      tag_628\n        /* \"#utility.yul\":2798:2807   */\n      dup4\n        /* \"#utility.yul\":2779:2808   */\n      tag_597\n      jump\t// in\n    tag_628:\n        /* \"#utility.yul\":2769:2808   */\n      swap2\n      pop\n        /* \"#utility.yul\":2859:2861   */\n      0x20\n        /* \"#utility.yul\":2848:2857   */\n      dup4\n        /* \"#utility.yul\":2844:2862   */\n      add\n        /* \"#utility.yul\":2831:2863   */\n      calldataload\n        /* \"#utility.yul\":2882:2900   */\n      0xffffffffffffffff\n        /* \"#utility.yul\":2923:2925   */\n      dup1\n        /* \"#utility.yul\":2915:2921   */\n      dup3\n        /* \"#utility.yul\":2912:2926   */\n      gt\n        /* \"#utility.yul\":2909:2943   */\n      iszero\n      tag_629\n      jumpi\n        /* \"#utility.yul\":2939:2940   */\n      0x00\n        /* \"#utility.yul\":2936:2937   */\n      dup1\n        /* \"#utility.yul\":2929:2941   */\n      revert\n        /* \"#utility.yul\":2909:2943   */\n    tag_629:\n        /* \"#utility.yul\":2977:2983   */\n      dup2\n        /* \"#utility.yul\":2966:2975   */\n      dup6\n        /* \"#utility.yul\":2962:2984   */\n      add\n        /* \"#utility.yul\":2952:2984   */\n      swap2\n      pop\n        /* \"#utility.yul\":3022:3029   */\n      dup6\n        /* \"#utility.yul\":3015:3019   */\n      0x1f\n        /* \"#utility.yul\":3011:3013   */\n      dup4\n        /* \"#utility.yul\":3007:3020   */\n      add\n        /* \"#utility.yul\":3003:3030   */\n      slt\n        /* \"#utility.yul\":2993:3048   */\n      tag_630\n      jumpi\n        /* \"#utility.yul\":3044:3045   */\n      0x00\n        /* \"#utility.yul\":3041:3042   */\n      dup1\n        /* \"#utility.yul\":3034:3046   */\n      revert\n        /* \"#utility.yul\":2993:3048   */\n    tag_630:\n        /* \"#utility.yul\":3080:3082   */\n      dup2\n        /* \"#utility.yul\":3067:3083   */\n      calldataload\n        /* \"#utility.yul\":3102:3104   */\n      dup2\n        /* \"#utility.yul\":3098:3100   */\n      dup2\n        /* \"#utility.yul\":3095:3105   */\n      gt\n        /* \"#utility.yul\":3092:3128   */\n      iszero\n      tag_632\n      jumpi\n        /* \"#utility.yul\":3108:3126   */\n      tag_632\n      tag_241\n      jump\t// in\n    tag_632:\n        /* \"#utility.yul\":3183:3185   */\n      0x40\n        /* \"#utility.yul\":3177:3186   */\n      mload\n        /* \"#utility.yul\":3151:3153   */\n      0x1f\n        /* \"#utility.yul\":3237:3250   */\n      dup3\n      add\n      not(0x1f)\n        /* \"#utility.yul\":3233:3255   */\n      swap1\n      dup2\n      and\n        /* \"#utility.yul\":3257:3259   */\n      0x3f\n        /* \"#utility.yul\":3229:3260   */\n      add\n        /* \"#utility.yul\":3225:3265   */\n      and\n        /* \"#utility.yul\":3213:3266   */\n      dup2\n      add\n      swap1\n        /* \"#utility.yul\":3281:3299   */\n      dup4\n      dup3\n      gt\n        /* \"#utility.yul\":3301:3323   */\n      dup2\n      dup4\n      lt\n        /* \"#utility.yul\":3278:3324   */\n      or\n        /* \"#utility.yul\":3275:3347   */\n      iszero\n      tag_634\n      jumpi\n        /* \"#utility.yul\":3327:3345   */\n      tag_634\n      tag_241\n      jump\t// in\n    tag_634:\n        /* \"#utility.yul\":3367:3377   */\n      dup2\n        /* \"#utility.yul\":3363:3365   */\n      0x40\n        /* \"#utility.yul\":3356:3378   */\n      mstore\n        /* \"#utility.yul\":3402:3404   */\n      dup3\n        /* \"#utility.yul\":3394:3400   */\n      dup2\n        /* \"#utility.yul\":3387:3405   */\n      mstore\n        /* \"#utility.yul\":3442:3449   */\n      dup9\n        /* \"#utility.yul\":3437:3439   */\n      0x20\n        /* \"#utility.yul\":3432:3434   */\n      dup5\n        /* \"#utility.yul\":3428:3430   */\n      dup8\n        /* \"#utility.yul\":3424:3435   */\n      add\n        /* \"#utility.yul\":3420:3440   */\n      add\n        /* \"#utility.yul\":3417:3450   */\n      gt\n        /* \"#utility.yul\":3414:3467   */\n      iszero\n      tag_635\n      jumpi\n        /* \"#utility.yul\":3463:3464   */\n      0x00\n        /* \"#utility.yul\":3460:3461   */\n      dup1\n        /* \"#utility.yul\":3453:3465   */\n      revert\n        /* \"#utility.yul\":3414:3467   */\n    tag_635:\n        /* \"#utility.yul\":3519:3521   */\n      dup3\n        /* \"#utility.yul\":3514:3516   */\n      0x20\n        /* \"#utility.yul\":3510:3512   */\n      dup7\n        /* \"#utility.yul\":3506:3517   */\n      add\n        /* \"#utility.yul\":3501:3503   */\n      0x20\n        /* \"#utility.yul\":3493:3499   */\n      dup4\n        /* \"#utility.yul\":3489:3504   */\n      add\n        /* \"#utility.yul\":3476:3522   */\n      calldatacopy\n        /* \"#utility.yul\":3564:3565   */\n      0x00\n        /* \"#utility.yul\":3559:3561   */\n      0x20\n        /* \"#utility.yul\":3554:3556   */\n      dup5\n        /* \"#utility.yul\":3546:3552   */\n      dup4\n        /* \"#utility.yul\":3542:3557   */\n      add\n        /* \"#utility.yul\":3538:3562   */\n      add\n        /* \"#utility.yul\":3531:3566   */\n      mstore\n        /* \"#utility.yul\":3585:3591   */\n      dup1\n        /* \"#utility.yul\":3575:3591   */\n      swap6\n      pop\n      pop\n      pop\n      pop\n      pop\n      pop\n        /* \"#utility.yul\":2602:3597   */\n      swap3\n      pop\n      swap3\n      swap1\n      pop\n      jump\t// out\n        /* \"#utility.yul\":3602:3788   */\n    tag_93:\n        /* \"#utility.yul\":3661:3667   */\n      0x00\n        /* \"#utility.yul\":3714:3716   */\n      0x20\n        /* \"#utility.yul\":3702:3711   */\n      dup3\n        /* \"#utility.yul\":3693:3700   */\n      dup5\n        /* \"#utility.yul\":3689:3712   */\n      sub\n        /* \"#utility.yul\":3685:3717   */\n      slt\n        /* \"#utility.yul\":3682:3734   */\n      iszero\n      tag_637\n      jumpi\n        /* \"#utility.yul\":3730:3731   */\n      0x00\n        /* \"#utility.yul\":3727:3728   */\n      dup1\n        /* \"#utility.yul\":3720:3732   */\n      revert\n        /* \"#utility.yul\":3682:3734   */\n    tag_637:\n        /* \"#utility.yul\":3753:3782   */\n      tag_169\n        /* \"#utility.yul\":3772:3781   */\n      dup3\n        /* \"#utility.yul\":3753:3782   */\n      tag_597\n      jump\t// in\n        /* \"#utility.yul\":3793:5052   */\n    tag_115:\n        /* \"#utility.yul\":4199:4202   */\n      0xff\n        /* \"#utility.yul\":4194:4197   */\n      0xf8\n        /* \"#utility.yul\":4190:4203   */\n      shl\n        /* \"#utility.yul\":4182:4188   */\n      dup9\n        /* \"#utility.yul\":4178:4204   */\n      and\n        /* \"#utility.yul\":4167:4176   */\n      dup2\n        /* \"#utility.yul\":4160:4205   */\n      mstore\n        /* \"#utility.yul\":4141:4145   */\n      0x00\n        /* \"#utility.yul\":4224:4226   */\n      0x20\n        /* \"#utility.yul\":4262:4265   */\n      0xe0\n        /* \"#utility.yul\":4257:4259   */\n      dup2\n        /* \"#utility.yul\":4246:4255   */\n      dup5\n        /* \"#utility.yul\":4242:4260   */\n      add\n        /* \"#utility.yul\":4235:4266   */\n      mstore\n        /* \"#utility.yul\":4289:4335   */\n      tag_640\n        /* \"#utility.yul\":4330:4333   */\n      0xe0\n        /* \"#utility.yul\":4319:4328   */\n      dup5\n        /* \"#utility.yul\":4315:4334   */\n      add\n        /* \"#utility.yul\":4307:4313   */\n      dup11\n        /* \"#utility.yul\":4289:4335   */\n      tag_596\n      jump\t// in\n    tag_640:\n        /* \"#utility.yul\":4383:4392   */\n      dup4\n        /* \"#utility.yul\":4375:4381   */\n      dup2\n        /* \"#utility.yul\":4371:4393   */\n      sub\n        /* \"#utility.yul\":4366:4368   */\n      0x40\n        /* \"#utility.yul\":4355:4364   */\n      dup6\n        /* \"#utility.yul\":4351:4369   */\n      add\n        /* \"#utility.yul\":4344:4394   */\n      mstore\n        /* \"#utility.yul\":4417:4450   */\n      tag_641\n        /* \"#utility.yul\":4443:4449   */\n      dup2\n        /* \"#utility.yul\":4435:4441   */\n      dup11\n        /* \"#utility.yul\":4417:4450   */\n      tag_596\n      jump\t// in\n    tag_641:\n        /* \"#utility.yul\":4481:4483   */\n      0x60\n        /* \"#utility.yul\":4466:4484   */\n      dup6\n      add\n        /* \"#utility.yul\":4459:4493   */\n      dup10\n      swap1\n      mstore\n      sub(shl(0xa0, 0x01), 0x01)\n        /* \"#utility.yul\":4530:4562   */\n      dup9\n      and\n        /* \"#utility.yul\":4524:4527   */\n      0x80\n        /* \"#utility.yul\":4509:4528   */\n      dup7\n      add\n        /* \"#utility.yul\":4502:4563   */\n      mstore\n        /* \"#utility.yul\":4550:4553   */\n      0xa0\n        /* \"#utility.yul\":4579:4598   */\n      dup6\n      add\n        /* \"#utility.yul\":4572:4607   */\n      dup8\n      swap1\n      mstore\n        /* \"#utility.yul\":4644:4666   */\n      dup5\n      dup2\n      sub\n        /* \"#utility.yul\":4638:4641   */\n      0xc0\n        /* \"#utility.yul\":4623:4642   */\n      dup7\n      add\n        /* \"#utility.yul\":4616:4667   */\n      mstore\n        /* \"#utility.yul\":4716:4729   */\n      dup6\n      mload\n        /* \"#utility.yul\":4738:4760   */\n      dup1\n      dup3\n      mstore\n        /* \"#utility.yul\":4814:4829   */\n      dup4\n      dup8\n      add\n      swap3\n      pop\n        /* \"#utility.yul\":4776:4791   */\n      swap1\n      dup4\n      add\n      swap1\n      0x00\n        /* \"#utility.yul\":4857:5026   */\n    tag_642:\n        /* \"#utility.yul\":4871:4877   */\n      dup2\n        /* \"#utility.yul\":4868:4869   */\n      dup2\n        /* \"#utility.yul\":4865:4878   */\n      lt\n        /* \"#utility.yul\":4857:5026   */\n      iszero\n      tag_644\n      jumpi\n        /* \"#utility.yul\":4932:4945   */\n      dup4\n      mload\n        /* \"#utility.yul\":4920:4946   */\n      dup4\n      mstore\n        /* \"#utility.yul\":5001:5016   */\n      swap3\n      dup5\n      add\n      swap3\n        /* \"#utility.yul\":4966:4978   */\n      swap2\n      dup5\n      add\n      swap2\n        /* \"#utility.yul\":4893:4894   */\n      0x01\n        /* \"#utility.yul\":4886:4895   */\n      add\n        /* \"#utility.yul\":4857:5026   */\n      jump(tag_642)\n    tag_644:\n      pop\n        /* \"#utility.yul\":5043:5046   */\n      swap1\n      swap13\n        /* \"#utility.yul\":3793:5052   */\n      swap12\n      pop\n      pop\n      pop\n      pop\n      pop\n      pop\n      pop\n      pop\n      pop\n      pop\n      pop\n      pop\n      jump\t// out\n        /* \"#utility.yul\":5265:5958   */\n    tag_141:\n        /* \"#utility.yul\":5376:5382   */\n      0x00\n        /* \"#utility.yul\":5384:5390   */\n      dup1\n        /* \"#utility.yul\":5392:5398   */\n      0x00\n        /* \"#utility.yul\":5400:5406   */\n      dup1\n        /* \"#utility.yul\":5408:5414   */\n      0x00\n        /* \"#utility.yul\":5416:5422   */\n      dup1\n        /* \"#utility.yul\":5424:5430   */\n      0x00\n        /* \"#utility.yul\":5477:5480   */\n      0xe0\n        /* \"#utility.yul\":5465:5474   */\n      dup9\n        /* \"#utility.yul\":5456:5463   */\n      dup11\n        /* \"#utility.yul\":5452:5475   */\n      sub\n        /* \"#utility.yul\":5448:5481   */\n      slt\n        /* \"#utility.yul\":5445:5498   */\n      iszero\n      tag_647\n      jumpi\n        /* \"#utility.yul\":5494:5495   */\n      0x00\n        /* \"#utility.yul\":5491:5492   */\n      dup1\n        /* \"#utility.yul\":5484:5496   */\n      revert\n        /* \"#utility.yul\":5445:5498   */\n    tag_647:\n        /* \"#utility.yul\":5517:5546   */\n      tag_648\n        /* \"#utility.yul\":5536:5545   */\n      dup9\n        /* \"#utility.yul\":5517:5546   */\n      tag_597\n      jump\t// in\n    tag_648:\n        /* \"#utility.yul\":5507:5546   */\n      swap7\n      pop\n        /* \"#utility.yul\":5565:5603   */\n      tag_649\n        /* \"#utility.yul\":5599:5601   */\n      0x20\n        /* \"#utility.yul\":5588:5597   */\n      dup10\n        /* \"#utility.yul\":5584:5602   */\n      add\n        /* \"#utility.yul\":5565:5603   */\n      tag_597\n      jump\t// in\n    tag_649:\n        /* \"#utility.yul\":5555:5603   */\n      swap6\n      pop\n        /* \"#utility.yul\":5650:5652   */\n      0x40\n        /* \"#utility.yul\":5639:5648   */\n      dup9\n        /* \"#utility.yul\":5635:5653   */\n      add\n        /* \"#utility.yul\":5622:5654   */\n      calldataload\n        /* \"#utility.yul\":5612:5654   */\n      swap5\n      pop\n        /* \"#utility.yul\":5701:5703   */\n      0x60\n        /* \"#utility.yul\":5690:5699   */\n      dup9\n        /* \"#utility.yul\":5686:5704   */\n      add\n        /* \"#utility.yul\":5673:5705   */\n      calldataload\n        /* \"#utility.yul\":5663:5705   */\n      swap4\n      pop\n        /* \"#utility.yul\":5755:5758   */\n      0x80\n        /* \"#utility.yul\":5744:5753   */\n      dup9\n        /* \"#utility.yul\":5740:5759   */\n      add\n        /* \"#utility.yul\":5727:5760   */\n      calldataload\n        /* \"#utility.yul\":5800:5804   */\n      0xff\n        /* \"#utility.yul\":5793:5798   */\n      dup2\n        /* \"#utility.yul\":5789:5805   */\n      and\n        /* \"#utility.yul\":5782:5787   */\n      dup2\n        /* \"#utility.yul\":5779:5806   */\n      eq\n        /* \"#utility.yul\":5769:5824   */\n      tag_650\n      jumpi\n        /* \"#utility.yul\":5820:5821   */\n      0x00\n        /* \"#utility.yul\":5817:5818   */\n      dup1\n        /* \"#utility.yul\":5810:5822   */\n      revert\n        /* \"#utility.yul\":5769:5824   */\n    tag_650:\n        /* \"#utility.yul\":5265:5958   */\n      swap7\n      swap10\n      swap6\n      swap9\n      pop\n      swap4\n      swap7\n      swap3\n      swap6\n        /* \"#utility.yul\":5843:5848   */\n      swap5\n        /* \"#utility.yul\":5895:5898   */\n      0xa0\n        /* \"#utility.yul\":5880:5899   */\n      dup5\n      add\n        /* \"#utility.yul\":5867:5900   */\n      calldataload\n      swap5\n      pop\n        /* \"#utility.yul\":5947:5950   */\n      0xc0\n        /* \"#utility.yul\":5932:5951   */\n      swap1\n      swap4\n      add\n        /* \"#utility.yul\":5919:5952   */\n      calldataload\n      swap3\n        /* \"#utility.yul\":5265:5958   */\n      swap2\n      pop\n      pop\n      jump\t// out\n        /* \"#utility.yul\":5963:6223   */\n    tag_146:\n        /* \"#utility.yul\":6031:6037   */\n      0x00\n        /* \"#utility.yul\":6039:6045   */\n      dup1\n        /* \"#utility.yul\":6092:6094   */\n      0x40\n        /* \"#utility.yul\":6080:6089   */\n      dup4\n        /* \"#utility.yul\":6071:6078   */\n      dup6\n        /* \"#utility.yul\":6067:6090   */\n      sub\n        /* \"#utility.yul\":6063:6095   */\n      slt\n        /* \"#utility.yul\":6060:6112   */\n      iszero\n      tag_652\n      jumpi\n        /* \"#utility.yul\":6108:6109   */\n      0x00\n        /* \"#utility.yul\":6105:6106   */\n      dup1\n        /* \"#utility.yul\":6098:6110   */\n      revert\n        /* \"#utility.yul\":6060:6112   */\n    tag_652:\n        /* \"#utility.yul\":6131:6160   */\n      tag_653\n        /* \"#utility.yul\":6150:6159   */\n      dup4\n        /* \"#utility.yul\":6131:6160   */\n      tag_597\n      jump\t// in\n    tag_653:\n        /* \"#utility.yul\":6121:6160   */\n      swap2\n      pop\n        /* \"#utility.yul\":6179:6217   */\n      tag_654\n        /* \"#utility.yul\":6213:6215   */\n      0x20\n        /* \"#utility.yul\":6202:6211   */\n      dup5\n        /* \"#utility.yul\":6198:6216   */\n      add\n        /* \"#utility.yul\":6179:6217   */\n      tag_597\n      jump\t// in\n    tag_654:\n        /* \"#utility.yul\":6169:6217   */\n      swap1\n      pop\n        /* \"#utility.yul\":5963:6223   */\n      swap3\n      pop\n      swap3\n      swap1\n      pop\n      jump\t// out\n        /* \"#utility.yul\":6228:6608   */\n    tag_157:\n        /* \"#utility.yul\":6307:6308   */\n      0x01\n        /* \"#utility.yul\":6303:6315   */\n      dup2\n      dup2\n      shr\n      swap1\n        /* \"#utility.yul\":6350:6362   */\n      dup3\n      and\n      dup1\n        /* \"#utility.yul\":6371:6432   */\n      tag_656\n      jumpi\n        /* \"#utility.yul\":6425:6429   */\n      0x7f\n        /* \"#utility.yul\":6417:6423   */\n      dup3\n        /* \"#utility.yul\":6413:6430   */\n      and\n        /* \"#utility.yul\":6403:6430   */\n      swap2\n      pop\n        /* \"#utility.yul\":6371:6432   */\n    tag_656:\n        /* \"#utility.yul\":6478:6480   */\n      0x20\n        /* \"#utility.yul\":6470:6476   */\n      dup3\n        /* \"#utility.yul\":6467:6481   */\n      lt\n        /* \"#utility.yul\":6447:6465   */\n      dup2\n        /* \"#utility.yul\":6444:6482   */\n      sub\n        /* \"#utility.yul\":6441:6602   */\n      tag_657\n      jumpi\n        /* \"#utility.yul\":6524:6534   */\n      0x4e487b71\n        /* \"#utility.yul\":6519:6522   */\n      0xe0\n        /* \"#utility.yul\":6515:6535   */\n      shl\n        /* \"#utility.yul\":6512:6513   */\n      0x00\n        /* \"#utility.yul\":6505:6536   */\n      mstore\n        /* \"#utility.yul\":6559:6563   */\n      0x22\n        /* \"#utility.yul\":6556:6557   */\n      0x04\n        /* \"#utility.yul\":6549:6564   */\n      mstore\n        /* \"#utility.yul\":6587:6591   */\n      0x24\n        /* \"#utility.yul\":6584:6585   */\n      0x00\n        /* \"#utility.yul\":6577:6592   */\n      revert\n        /* \"#utility.yul\":6441:6602   */\n    tag_657:\n      pop\n        /* \"#utility.yul\":6228:6608   */\n      swap2\n      swap1\n      pop\n      jump\t// out\n        /* \"#utility.yul\":8432:8616   */\n    tag_357:\n        /* \"#utility.yul\":8502:8508   */\n      0x00\n        /* \"#utility.yul\":8555:8557   */\n      0x20\n        /* \"#utility.yul\":8543:8552   */\n      dup3\n        /* \"#utility.yul\":8534:8541   */\n      dup5\n        /* \"#utility.yul\":8530:8553   */\n      sub\n        /* \"#utility.yul\":8526:8558   */\n      slt\n        /* \"#utility.yul\":8523:8575   */\n      iszero\n      tag_664\n      jumpi\n        /* \"#utility.yul\":8571:8572   */\n      0x00\n        /* \"#utility.yul\":8568:8569   */\n      dup1\n        /* \"#utility.yul\":8561:8573   */\n      revert\n        /* \"#utility.yul\":8523:8575   */\n    tag_664:\n      pop\n        /* \"#utility.yul\":8594:8610   */\n      mload\n      swap2\n        /* \"#utility.yul\":8432:8616   */\n      swap1\n      pop\n      jump\t// out\n        /* \"#utility.yul\":9241:9786   */\n    tag_599:\n        /* \"#utility.yul\":9343:9345   */\n      0x1f\n        /* \"#utility.yul\":9338:9341   */\n      dup3\n        /* \"#utility.yul\":9335:9346   */\n      gt\n        /* \"#utility.yul\":9332:9780   */\n      iszero\n      tag_306\n      jumpi\n        /* \"#utility.yul\":9379:9380   */\n      0x00\n        /* \"#utility.yul\":9404:9409   */\n      dup2\n        /* \"#utility.yul\":9400:9402   */\n      dup2\n        /* \"#utility.yul\":9393:9410   */\n      mstore\n        /* \"#utility.yul\":9449:9453   */\n      0x20\n        /* \"#utility.yul\":9445:9447   */\n      dup2\n        /* \"#utility.yul\":9435:9454   */\n      keccak256\n        /* \"#utility.yul\":9519:9521   */\n      0x1f\n        /* \"#utility.yul\":9507:9517   */\n      dup6\n        /* \"#utility.yul\":9503:9522   */\n      add\n        /* \"#utility.yul\":9500:9501   */\n      0x05\n        /* \"#utility.yul\":9496:9523   */\n      shr\n        /* \"#utility.yul\":9490:9494   */\n      dup2\n        /* \"#utility.yul\":9486:9524   */\n      add\n        /* \"#utility.yul\":9555:9559   */\n      0x20\n        /* \"#utility.yul\":9543:9553   */\n      dup7\n        /* \"#utility.yul\":9540:9560   */\n      lt\n        /* \"#utility.yul\":9537:9584   */\n      iszero\n      tag_669\n      jumpi\n      pop\n        /* \"#utility.yul\":9578:9582   */\n      dup1\n        /* \"#utility.yul\":9537:9584   */\n    tag_669:\n        /* \"#utility.yul\":9633:9635   */\n      0x1f\n        /* \"#utility.yul\":9628:9631   */\n      dup6\n        /* \"#utility.yul\":9624:9636   */\n      add\n        /* \"#utility.yul\":9621:9622   */\n      0x05\n        /* \"#utility.yul\":9617:9637   */\n      shr\n        /* \"#utility.yul\":9611:9615   */\n      dup3\n        /* \"#utility.yul\":9607:9638   */\n      add\n        /* \"#utility.yul\":9597:9638   */\n      swap2\n      pop\n        /* \"#utility.yul\":9688:9770   */\n    tag_670:\n        /* \"#utility.yul\":9706:9708   */\n      dup2\n        /* \"#utility.yul\":9699:9704   */\n      dup2\n        /* \"#utility.yul\":9696:9709   */\n      lt\n        /* \"#utility.yul\":9688:9770   */\n      iszero\n      tag_277\n      jumpi\n        /* \"#utility.yul\":9751:9768   */\n      dup3\n      dup2\n      sstore\n        /* \"#utility.yul\":9732:9733   */\n      0x01\n        /* \"#utility.yul\":9721:9734   */\n      add\n        /* \"#utility.yul\":9688:9770   */\n      jump(tag_670)\n        /* \"#utility.yul\":9962:11314   */\n    tag_484:\n        /* \"#utility.yul\":10088:10091   */\n      dup2\n        /* \"#utility.yul\":10082:10092   */\n      mload\n        /* \"#utility.yul\":10115:10133   */\n      0xffffffffffffffff\n        /* \"#utility.yul\":10107:10113   */\n      dup2\n        /* \"#utility.yul\":10104:10134   */\n      gt\n        /* \"#utility.yul\":10101:10157   */\n      iszero\n      tag_676\n      jumpi\n        /* \"#utility.yul\":10137:10155   */\n      tag_676\n      tag_241\n      jump\t// in\n    tag_676:\n        /* \"#utility.yul\":10166:10263   */\n      tag_677\n        /* \"#utility.yul\":10256:10262   */\n      dup2\n        /* \"#utility.yul\":10216:10254   */\n      tag_678\n        /* \"#utility.yul\":10248:10252   */\n      dup5\n        /* \"#utility.yul\":10242:10253   */\n      sload\n        /* \"#utility.yul\":10216:10254   */\n      tag_157\n      jump\t// in\n    tag_678:\n        /* \"#utility.yul\":10210:10214   */\n      dup5\n        /* \"#utility.yul\":10166:10263   */\n      tag_599\n      jump\t// in\n    tag_677:\n        /* \"#utility.yul\":10318:10322   */\n      0x20\n      dup1\n        /* \"#utility.yul\":10382:10384   */\n      0x1f\n        /* \"#utility.yul\":10371:10385   */\n      dup4\n      gt\n        /* \"#utility.yul\":10399:10400   */\n      0x01\n        /* \"#utility.yul\":10394:11057   */\n      dup2\n      eq\n      tag_680\n      jumpi\n        /* \"#utility.yul\":11101:11102   */\n      0x00\n        /* \"#utility.yul\":11118:11124   */\n      dup5\n        /* \"#utility.yul\":11115:11204   */\n      iszero\n      tag_681\n      jumpi\n      pop\n        /* \"#utility.yul\":11170:11189   */\n      dup6\n      dup4\n      add\n        /* \"#utility.yul\":11164:11190   */\n      mload\n        /* \"#utility.yul\":11115:11204   */\n    tag_681:\n      not(0x00)\n        /* \"#utility.yul\":9919:9920   */\n      0x03\n        /* \"#utility.yul\":9915:9926   */\n      dup7\n      swap1\n      shl\n        /* \"#utility.yul\":9911:9935   */\n      shr\n        /* \"#utility.yul\":9907:9936   */\n      not\n        /* \"#utility.yul\":9897:9937   */\n      and\n        /* \"#utility.yul\":9943:9944   */\n      0x01\n        /* \"#utility.yul\":9939:9950   */\n      dup6\n      swap1\n      shl\n        /* \"#utility.yul\":9894:9951   */\n      or\n        /* \"#utility.yul\":11217:11298   */\n      dup6\n      sstore\n        /* \"#utility.yul\":10364:11308   */\n      jump(tag_277)\n        /* \"#utility.yul\":10394:11057   */\n    tag_680:\n        /* \"#utility.yul\":9188:9189   */\n      0x00\n        /* \"#utility.yul\":9181:9195   */\n      dup6\n      dup2\n      mstore\n        /* \"#utility.yul\":9225:9229   */\n      0x20\n        /* \"#utility.yul\":9212:9230   */\n      dup2\n      keccak256\n      not(0x1f)\n        /* \"#utility.yul\":10430:10450   */\n      dup7\n      and\n      swap2\n        /* \"#utility.yul\":10548:10784   */\n    tag_684:\n        /* \"#utility.yul\":10562:10569   */\n      dup3\n        /* \"#utility.yul\":10559:10560   */\n      dup2\n        /* \"#utility.yul\":10556:10570   */\n      lt\n        /* \"#utility.yul\":10548:10784   */\n      iszero\n      tag_686\n      jumpi\n        /* \"#utility.yul\":10651:10670   */\n      dup9\n      dup7\n      add\n        /* \"#utility.yul\":10645:10671   */\n      mload\n        /* \"#utility.yul\":10630:10672   */\n      dup3\n      sstore\n        /* \"#utility.yul\":10743:10770   */\n      swap5\n      dup5\n      add\n      swap5\n        /* \"#utility.yul\":10711:10712   */\n      0x01\n        /* \"#utility.yul\":10699:10713   */\n      swap1\n      swap2\n      add\n      swap1\n        /* \"#utility.yul\":10578:10597   */\n      dup5\n      add\n        /* \"#utility.yul\":10548:10784   */\n      jump(tag_684)\n    tag_686:\n        /* \"#utility.yul\":10552:10555   */\n      pop\n        /* \"#utility.yul\":10812:10818   */\n      dup6\n        /* \"#utility.yul\":10803:10810   */\n      dup3\n        /* \"#utility.yul\":10800:10819   */\n      lt\n        /* \"#utility.yul\":10797:10998   */\n      iszero\n      tag_687\n      jumpi\n        /* \"#utility.yul\":10873:10892   */\n      dup8\n      dup6\n      add\n        /* \"#utility.yul\":10867:10893   */\n      mload\n      not(0x00)\n        /* \"#utility.yul\":10956:10957   */\n      0x03\n        /* \"#utility.yul\":10952:10966   */\n      dup9\n      swap1\n      shl\n        /* \"#utility.yul\":10968:10971   */\n      0xf8\n        /* \"#utility.yul\":10948:10972   */\n      and\n        /* \"#utility.yul\":10944:10981   */\n      shr\n        /* \"#utility.yul\":10940:10982   */\n      not\n        /* \"#utility.yul\":10925:10983   */\n      and\n        /* \"#utility.yul\":10910:10984   */\n      dup2\n      sstore\n        /* \"#utility.yul\":10797:10998   */\n    tag_687:\n      pop\n      pop\n      pop\n      pop\n      pop\n        /* \"#utility.yul\":11044:11045   */\n      0x01\n        /* \"#utility.yul\":11028:11042   */\n      swap1\n      dup2\n      shl\n        /* \"#utility.yul\":11024:11046   */\n      add\n        /* \"#utility.yul\":11011:11047   */\n      swap1\n      sstore\n      pop\n        /* \"#utility.yul\":9962:11314   */\n      jump\t// out\n        /* \"#utility.yul\":11722:11849   */\n    tag_513:\n        /* \"#utility.yul\":11783:11793   */\n      0x4e487b71\n        /* \"#utility.yul\":11778:11781   */\n      0xe0\n        /* \"#utility.yul\":11774:11794   */\n      shl\n        /* \"#utility.yul\":11771:11772   */\n      0x00\n        /* \"#utility.yul\":11764:11795   */\n      mstore\n        /* \"#utility.yul\":11814:11818   */\n      0x21\n        /* \"#utility.yul\":11811:11812   */\n      0x04\n        /* \"#utility.yul\":11804:11819   */\n      mstore\n        /* \"#utility.yul\":11838:11842   */\n      0x24\n        /* \"#utility.yul\":11835:11836   */\n      0x00\n        /* \"#utility.yul\":11828:11843   */\n      revert\n        /* \"#utility.yul\":11854:12141   */\n    tag_563:\n        /* \"#utility.yul\":11983:11986   */\n      0x00\n        /* \"#utility.yul\":12021:12027   */\n      dup3\n        /* \"#utility.yul\":12015:12028   */\n      mload\n        /* \"#utility.yul\":12037:12103   */\n      tag_691\n        /* \"#utility.yul\":12096:12102   */\n      dup2\n        /* \"#utility.yul\":12091:12094   */\n      dup5\n        /* \"#utility.yul\":12084:12088   */\n      0x20\n        /* \"#utility.yul\":12076:12082   */\n      dup8\n        /* \"#utility.yul\":12072:12089   */\n      add\n        /* \"#utility.yul\":12037:12103   */\n      tag_595\n      jump\t// in\n    tag_691:\n        /* \"#utility.yul\":12119:12135   */\n      swap2\n      swap1\n      swap2\n      add\n      swap3\n        /* \"#utility.yul\":11854:12141   */\n      swap2\n      pop\n      pop\n      jump\t// out\n        /* \"#utility.yul\":12146:12368   */\n    tag_577:\n        /* \"#utility.yul\":12211:12220   */\n      dup1\n      dup3\n      add\n        /* \"#utility.yul\":12232:12242   */\n      dup1\n      dup3\n      gt\n        /* \"#utility.yul\":12229:12362   */\n      iszero\n      tag_162\n      jumpi\n        /* \"#utility.yul\":12284:12294   */\n      0x4e487b71\n        /* \"#utility.yul\":12279:12282   */\n      0xe0\n        /* \"#utility.yul\":12275:12295   */\n      shl\n        /* \"#utility.yul\":12272:12273   */\n      0x00\n        /* \"#utility.yul\":12265:12296   */\n      mstore\n        /* \"#utility.yul\":12319:12323   */\n      0x11\n        /* \"#utility.yul\":12316:12317   */\n      0x04\n        /* \"#utility.yul\":12309:12324   */\n      mstore\n        /* \"#utility.yul\":12347:12351   */\n      0x24\n        /* \"#utility.yul\":12344:12345   */\n      0x00\n        /* \"#utility.yul\":12337:12352   */\n      revert\n    stop\n    data_3874827173e8df9f34323b12b251d1d3c53926ce129e30a0d69f1d47c277041b 52c63247e1f47db19d5ce0460030c497f067ca4cebf71ba98eeadabe20bace00\n    data_60016240b4caf95ce61ff2092e1488b3d1aff76bee1c89f54239447d6827d736 a16a46d94261c7517cc8ff89f61c0ce93598e3c849801011dee649a6a557d100\n    data_75b20eef8615de99c108b05f0dbda081c91897128caa336d75dffb97c4132b4d 360894a13ba1a3210667c828492db98dca3e2076cc3735a920a3ca505d382bbc\n    data_c0c65a3718f3702d917c44106b91645b509d2e2d0979b70495c3babce192339f cd5ed15c6e187e77e9aee88184c21f4f2182ab5827cb3b7e07fbedcd63f03300\n\n    auxdata: 0xa2646970667358221220265303c841a3900d0174c77d8a022b9bf5ac62ff6d01db4955392b369ac4817264736f6c63430008140033\n}\n",
				"bytecode": {
					"linkReferences": {},
					"object": "60a060405230608052348015610013575f80fd5b5061001c610021565b6100d3565b7ff0c57e16840df040f15088dc2f81fe391c3923bec73e23a9662efc9c229c6a00805468010000000000000000900460ff16156100715760405163f92ee8a960e01b815260040160405180910390fd5b80546001600160401b03908116146100d05780546001600160401b0319166001600160401b0390811782556040519081527fc7f505b2f371ae2175ee4913f4499e1f2633a7b5936321eed1cdaeb6115181d29060200160405180910390a15b50565b608051611e276100f95f395f8181610d0901528181610d320152610e710152611e275ff3fe60806040526004361061017b575f3560e01c8063715018a6116100cd57806395d89b4111610087578063c4d66de811610062578063c4d66de814610456578063d505accf14610475578063dd62ed3e14610494578063f2fde38b146104b3575f80fd5b806395d89b41146103f3578063a9059cbb14610407578063ad3cb1cc14610426575f80fd5b8063715018a61461032057806379cc6790146103345780637ecebe00146103535780638456cb591461037257806384b0196e146103865780638da5cb5b146103ad575f80fd5b80633f4ba83a116101385780634f1ef286116101135780634f1ef286146102b757806352d1902d146102ca5780635c975abb146102de57806370a0823114610301575f80fd5b80633f4ba83a1461026357806340c10f191461027957806342966c6814610298575f80fd5b806306fdde031461017f578063095ea7b3146101a957806318160ddd146101d857806323b872dd14610215578063313ce567146102345780633644e5151461024f575b5f80fd5b34801561018a575f80fd5b506101936104d2565b6040516101a09190611913565b60405180910390f35b3480156101b4575f80fd5b506101c86101c3366004611940565b610577565b60405190151581526020016101a0565b3480156101e3575f80fd5b507f52c63247e1f47db19d5ce0460030c497f067ca4cebf71ba98eeadabe20bace02545b6040519081526020016101a0565b348015610220575f80fd5b506101c861022f366004611968565b610590565b34801561023f575f80fd5b50604051601281526020016101a0565b34801561025a575f80fd5b506102076105b5565b34801561026e575f80fd5b506102776105c3565b005b348015610284575f80fd5b50610277610293366004611940565b6105d5565b3480156102a3575f80fd5b506102776102b23660046119a1565b6105eb565b6102776102c53660046119cc565b6105f8565b3480156102d5575f80fd5b50610207610613565b3480156102e9575f80fd5b505f80516020611dd28339815191525460ff166101c8565b34801561030c575f80fd5b5061020761031b366004611a88565b61062e565b34801561032b575f80fd5b5061027761065e565b34801561033f575f80fd5b5061027761034e366004611940565b61066f565b34801561035e575f80fd5b5061020761036d366004611a88565b610684565b34801561037d575f80fd5b5061027761068e565b348015610391575f80fd5b5061039a61069e565b6040516101a09796959493929190611aa1565b3480156103b8575f80fd5b507f9016d09d72d40fdae2fd8ceac6b6234c7706214fd39c1cd1e609a0528c199300546040516001600160a01b0390911681526020016101a0565b3480156103fe575f80fd5b5061019361074c565b348015610412575f80fd5b506101c8610421366004611940565b61078a565b348015610431575f80fd5b50610193604051806040016040528060058152602001640352e302e360dc1b81525081565b348015610461575f80fd5b50610277610470366004611a88565b610797565b348015610480575f80fd5b5061027761048f366004611b35565b610929565b34801561049f575f80fd5b506102076104ae366004611ba2565b610a7e565b3480156104be575f80fd5b506102776104cd366004611a88565b610ac7565b60605f5f80516020611d728339815191525b90508060030180546104f590611bd3565b80601f016020809104026020016040519081016040528092919081815260200182805461052190611bd3565b801561056c5780601f106105435761010080835404028352916020019161056c565b820191905f5260205f20905b81548152906001019060200180831161054f57829003601f168201915b505050505091505090565b5f33610584818585610b01565b60019150505b92915050565b5f3361059d858285610b13565b6105a8858585610b76565b60019150505b9392505050565b5f6105be610bd3565b905090565b6105cb610bdc565b6105d3610c37565b565b6105dd610bdc565b6105e78282610c96565b5050565b6105f53382610cca565b50565b610600610cfe565b61060982610da2565b6105e78282610daa565b5f61061c610e66565b505f80516020611db283398151915290565b5f805f80516020611d728339815191525b6001600160a01b039093165f9081526020939093525050604090205490565b610666610bdc565b6105d35f610eaf565b61067a823383610b13565b6105e78282610cca565b5f61058a82610f1f565b610696610bdc565b6105d3610f47565b5f60608082808083815f80516020611d9283398151915280549091501580156106c957506001810154155b6107125760405162461bcd60e51b81526020600482015260156024820152741152540dcc4c8e88155b9a5b9a5d1a585b1a5e9959605a1b60448201526064015b60405180910390fd5b61071a610f8f565b610722610fcd565b604080515f80825260208201909252600f60f81b9c939b5091995046985030975095509350915050565b7f52c63247e1f47db19d5ce0460030c497f067ca4cebf71ba98eeadabe20bace0480546060915f80516020611d72833981519152916104f590611bd3565b5f33610584818585610b76565b7ff0c57e16840df040f15088dc2f81fe391c3923bec73e23a9662efc9c229c6a008054600160401b810460ff16159067ffffffffffffffff165f811580156107dc5750825b90505f8267ffffffffffffffff1660011480156107f85750303b155b905081158015610806575080155b156108245760405163f92ee8a960e01b815260040160405180910390fd5b845467ffffffffffffffff19166001178555831561084e57845460ff60401b1916600160401b1785555b6108926040518060400160405280600781526020016626bcaa37b5b2b760c91b815250604051806040016040528060038152602001624d544b60e81b815250610fe3565b61089a610ff5565b6108a2610ffd565b6108ab8661100d565b6108d36040518060400160405280600781526020016626bcaa37b5b2b760c91b81525061101e565b6108db610ff5565b831561092157845460ff60401b19168555604051600181527fc7f505b2f371ae2175ee4913f4499e1f2633a7b5936321eed1cdaeb6115181d29060200160405180910390a15b505050505050565b8342111561094d5760405163313c898160e11b815260048101859052602401610709565b5f7f6e71edae12b1b97f4d1f60370fef10105fa2faae0126114a169c64845d6126c98888886109b78c6001600160a01b03165f9081527f5ab42ced628888259c08ac98db1eb0cf702fc1501344311d8b100cd1bfe4bb006020526040902080546001810190915590565b6040805160208101969096526001600160a01b0394851690860152929091166060840152608083015260a082015260c0810186905260e0016040516020818303038152906040528051906020012090505f610a1182611049565b90505f610a2082878787611075565b9050896001600160a01b0316816001600160a01b031614610a67576040516325c0072360e11b81526001600160a01b0380831660048301528b166024820152604401610709565b610a728a8a8a610b01565b50505050505050505050565b6001600160a01b039182165f9081527f52c63247e1f47db19d5ce0460030c497f067ca4cebf71ba98eeadabe20bace016020908152604080832093909416825291909152205490565b610acf610bdc565b6001600160a01b038116610af857604051631e4fbdf760e01b81525f6004820152602401610709565b6105f581610eaf565b610b0e83838360016110a1565b505050565b5f610b1e8484610a7e565b90505f198114610b705781811015610b6257604051637dc7a0d960e11b81526001600160a01b03841660048201526024810182905260448101839052606401610709565b610b7084848484035f6110a1565b50505050565b6001600160a01b038316610b9f57604051634b637e8f60e11b81525f6004820152602401610709565b6001600160a01b038216610bc85760405163ec442f0560e01b81525f6004820152602401610709565b610b0e838383611185565b5f6105be611190565b33610c0e7f9016d09d72d40fdae2fd8ceac6b6234c7706214fd39c1cd1e609a0528c199300546001600160a01b031690565b6001600160a01b0316146105d35760405163118cdaa760e01b8152336004820152602401610709565b610c3f611203565b5f80516020611dd2833981519152805460ff191681557f5db9ee0a495bf2e6ff9c91a7834c1ba4fdd244a5e8aa4e537bd38aeae4b073aa335b6040516001600160a01b03909116815260200160405180910390a150565b6001600160a01b038216610cbf5760405163ec442f0560e01b81525f6004820152602401610709565b6105e75f8383611185565b6001600160a01b038216610cf357604051634b637e8f60e11b81525f6004820152602401610709565b6105e7825f83611185565b306001600160a01b037f0000000000000000000000000000000000000000000000000000000000000000161480610d8457507f00000000000000000000000000000000000000000000000000000000000000006001600160a01b0316610d785f80516020611db2833981519152546001600160a01b031690565b6001600160a01b031614155b156105d35760405163703e46dd60e11b815260040160405180910390fd5b6105f5610bdc565b816001600160a01b03166352d1902d6040518163ffffffff1660e01b8152600401602060405180830381865afa925050508015610e04575060408051601f3d908101601f19168201909252610e0191810190611c0b565b60015b610e2c57604051634c9c8ce360e01b81526001600160a01b0383166004820152602401610709565b5f80516020611db28339815191528114610e5c57604051632a87526960e21b815260048101829052602401610709565b610b0e8383611232565b306001600160a01b037f000000000000000000000000000000000000000000000000000000000000000016146105d35760405163703e46dd60e11b815260040160405180910390fd5b7f9016d09d72d40fdae2fd8ceac6b6234c7706214fd39c1cd1e609a0528c19930080546001600160a01b031981166001600160a01b03848116918217845560405192169182907f8be0079c531659141344cd1fd0a4f28419497f9722a3daafe3b4186f6b6457e0905f90a3505050565b5f807f5ab42ced628888259c08ac98db1eb0cf702fc1501344311d8b100cd1bfe4bb0061063f565b610f4f611287565b5f80516020611dd2833981519152805460ff191660011781557f62e78cea01bee320cd4e420270b5ea74000d11b0c9f74754ebdbfc544b05a25833610c78565b7fa16a46d94261c7517cc8ff89f61c0ce93598e3c849801011dee649a6a557d10280546060915f80516020611d92833981519152916104f590611bd3565b60605f5f80516020611d928339815191526104e4565b610feb6112b7565b6105e78282611300565b6105d36112b7565b6110056112b7565b6105d3611350565b6110156112b7565b6105f581611370565b6110266112b7565b6105f581604051806040016040528060018152602001603160f81b815250611378565b5f61058a611055610bd3565b8360405161190160f01b8152600281019290925260228201526042902090565b5f805f80611085888888886113d7565b925092509250611095828261149f565b50909695505050505050565b5f80516020611d728339815191526001600160a01b0385166110d85760405163e602df0560e01b81525f6004820152602401610709565b6001600160a01b03841661110157604051634a1406b160e11b81525f6004820152602401610709565b6001600160a01b038086165f9081526001830160209081526040808320938816835292905220839055811561117e57836001600160a01b0316856001600160a01b03167f8c5be1e5ebec7d5bd14f71427d1e84f3dd0314c0f7b2291e5b200ac8c7c3b9258560405161117591815260200190565b60405180910390a35b5050505050565b610b0e838383611557565b5f7f8b73c3c69bb8fe3d512ecc4cf759cc79239f7b179b0ffacaa9a75d522b39400f6111ba61156a565b6111c26115d2565b60408051602081019490945283019190915260608201524660808201523060a082015260c00160405160208183030381529060405280519060200120905090565b5f80516020611dd28339815191525460ff166105d357604051638dfc202b60e01b815260040160405180910390fd5b61123b82611614565b6040516001600160a01b038316907fbc7cd75a20ee27fd9adebab32041f755214dbc6bffa90cc0225b39da2e5c2d3b905f90a280511561127f57610b0e8282611677565b6105e76116e9565b5f80516020611dd28339815191525460ff16156105d35760405163d93c066560e01b815260040160405180910390fd5b7ff0c57e16840df040f15088dc2f81fe391c3923bec73e23a9662efc9c229c6a0054600160401b900460ff166105d357604051631afcd79f60e31b815260040160405180910390fd5b6113086112b7565b5f80516020611d728339815191527f52c63247e1f47db19d5ce0460030c497f067ca4cebf71ba98eeadabe20bace036113418482611c67565b5060048101610b708382611c67565b6113586112b7565b5f80516020611dd2833981519152805460ff19169055565b610acf6112b7565b6113806112b7565b5f80516020611d928339815191527fa16a46d94261c7517cc8ff89f61c0ce93598e3c849801011dee649a6a557d1026113b98482611c67565b50600381016113c88382611c67565b505f8082556001909101555050565b5f80807f7fffffffffffffffffffffffffffffff5d576e7357a4501ddfe92f46681b20a084111561141057505f91506003905082611495565b604080515f808252602082018084528a905260ff891692820192909252606081018790526080810186905260019060a0016020604051602081039080840390855afa158015611461573d5f803e3d5ffd5b5050604051601f1901519150506001600160a01b03811661148c57505f925060019150829050611495565b92505f91508190505b9450945094915050565b5f8260038111156114b2576114b2611d23565b036114bb575050565b60018260038111156114cf576114cf611d23565b036114ed5760405163f645eedf60e01b815260040160405180910390fd5b600282600381111561150157611501611d23565b036115225760405163fce698f760e01b815260048101829052602401610709565b600382600381111561153657611536611d23565b036105e7576040516335e2f38360e21b815260048101829052602401610709565b61155f611287565b610b0e838383611708565b5f5f80516020611d9283398151915281611582610f8f565b80519091501561159a57805160209091012092915050565b815480156115a9579392505050565b7fc5d2460186f7233c927e7db2dcc703c0e500b653ca82273b7bfad8045d85a470935050505090565b5f5f80516020611d92833981519152816115ea610fcd565b80519091501561160257805160209091012092915050565b600182015480156115a9579392505050565b806001600160a01b03163b5f0361164957604051634c9c8ce360e01b81526001600160a01b0382166004820152602401610709565b5f80516020611db283398151915280546001600160a01b0319166001600160a01b0392909216919091179055565b60605f80846001600160a01b0316846040516116939190611d37565b5f60405180830381855af49150503d805f81146116cb576040519150601f19603f3d011682016040523d82523d5f602084013e6116d0565b606091505b50915091506116e0858383611841565b95945050505050565b34156105d35760405163b398979f60e01b815260040160405180910390fd5b5f80516020611d728339815191526001600160a01b0384166117425781816002015f8282546117379190611d52565b909155506117b29050565b6001600160a01b0384165f90815260208290526040902054828110156117945760405163391434e360e21b81526001600160a01b03861660048201526024810182905260448101849052606401610709565b6001600160a01b0385165f9081526020839052604090209083900390555b6001600160a01b0383166117d05760028101805483900390556117ee565b6001600160a01b0383165f9081526020829052604090208054830190555b826001600160a01b0316846001600160a01b03167fddf252ad1be2c89b69c2b068fc378daa952ba7f163c4a11628f55a4df523b3ef8460405161183391815260200190565b60405180910390a350505050565b606082611856576118518261189d565b6105ae565b815115801561186d57506001600160a01b0384163b155b1561189657604051639996b31560e01b81526001600160a01b0385166004820152602401610709565b50806105ae565b8051156118ad5780518082602001fd5b604051630a12f52160e11b815260040160405180910390fd5b5f5b838110156118e05781810151838201526020016118c8565b50505f910152565b5f81518084526118ff8160208601602086016118c6565b601f01601f19169290920160200192915050565b602081525f6105ae60208301846118e8565b80356001600160a01b038116811461193b575f80fd5b919050565b5f8060408385031215611951575f80fd5b61195a83611925565b946020939093013593505050565b5f805f6060848603121561197a575f80fd5b61198384611925565b925061199160208501611925565b9150604084013590509250925092565b5f602082840312156119b1575f80fd5b5035919050565b634e487b7160e01b5f52604160045260245ffd5b5f80604083850312156119dd575f80fd5b6119e683611925565b9150602083013567ffffffffffffffff80821115611a02575f80fd5b818501915085601f830112611a15575f80fd5b813581811115611a2757611a276119b8565b604051601f8201601f19908116603f01168101908382118183101715611a4f57611a4f6119b8565b81604052828152886020848701011115611a67575f80fd5b826020860160208301375f6020848301015280955050505050509250929050565b5f60208284031215611a98575f80fd5b6105ae82611925565b60ff60f81b881681525f602060e081840152611ac060e084018a6118e8565b8381036040850152611ad2818a6118e8565b606085018990526001600160a01b038816608086015260a0850187905284810360c086015285518082528387019250908301905f5b81811015611b2357835183529284019291840191600101611b07565b50909c9b505050505050505050505050565b5f805f805f805f60e0888a031215611b4b575f80fd5b611b5488611925565b9650611b6260208901611925565b95506040880135945060608801359350608088013560ff81168114611b85575f80fd5b9699959850939692959460a0840135945060c09093013592915050565b5f8060408385031215611bb3575f80fd5b611bbc83611925565b9150611bca60208401611925565b90509250929050565b600181811c90821680611be757607f821691505b602082108103611c0557634e487b7160e01b5f52602260045260245ffd5b50919050565b5f60208284031215611c1b575f80fd5b5051919050565b601f821115610b0e575f81815260208120601f850160051c81016020861015611c485750805b601f850160051c820191505b8181101561092157828155600101611c54565b815167ffffffffffffffff811115611c8157611c816119b8565b611c9581611c8f8454611bd3565b84611c22565b602080601f831160018114611cc8575f8415611cb15750858301515b5f19600386901b1c1916600185901b178555610921565b5f85815260208120601f198616915b82811015611cf657888601518255948401946001909101908401611cd7565b5085821015611d1357878501515f19600388901b60f8161c191681555b5050505050600190811b01905550565b634e487b7160e01b5f52602160045260245ffd5b5f8251611d488184602087016118c6565b9190910192915050565b8082018082111561058a57634e487b7160e01b5f52601160045260245ffdfe52c63247e1f47db19d5ce0460030c497f067ca4cebf71ba98eeadabe20bace00a16a46d94261c7517cc8ff89f61c0ce93598e3c849801011dee649a6a557d100360894a13ba1a3210667c828492db98dca3e2076cc3735a920a3ca505d382bbccd5ed15c6e187e77e9aee88184c21f4f2182ab5827cb3b7e07fbedcd63f03300a2646970667358221220265303c841a3900d0174c77d8a022b9bf5ac62ff6d01db4955392b369ac4817264736f6c63430008140033",
					"opcodes": "PUSH1 0xA0 PUSH1 0x40 MSTORE ADDRESS PUSH1 0x80 MSTORE CALLVALUE DUP1 ISZERO PUSH2 0x13 JUMPI PUSH0 DUP1 REVERT JUMPDEST POP PUSH2 0x1C PUSH2 0x21 JUMP JUMPDEST PUSH2 0xD3 JUMP JUMPDEST PUSH32 0xF0C57E16840DF040F15088DC2F81FE391C3923BEC73E23A9662EFC9C229C6A00 DUP1 SLOAD PUSH9 0x10000000000000000 SWAP1 DIV PUSH1 0xFF AND ISZERO PUSH2 0x71 JUMPI PUSH1 0x40 MLOAD PUSH4 0xF92EE8A9 PUSH1 0xE0 SHL DUP2 MSTORE PUSH1 0x4 ADD PUSH1 0x40 MLOAD DUP1 SWAP2 SUB SWAP1 REVERT JUMPDEST DUP1 SLOAD PUSH1 0x1 PUSH1 0x1 PUSH1 0x40 SHL SUB SWAP1 DUP2 AND EQ PUSH2 0xD0 JUMPI DUP1 SLOAD PUSH1 0x1 PUSH1 0x1 PUSH1 0x40 SHL SUB NOT AND PUSH1 0x1 PUSH1 0x1 PUSH1 0x40 SHL SUB SWAP1 DUP2 OR DUP3 SSTORE PUSH1 0x40 MLOAD SWAP1 DUP2 MSTORE PUSH32 0xC7F505B2F371AE2175EE4913F4499E1F2633A7B5936321EED1CDAEB6115181D2 SWAP1 PUSH1 0x20 ADD PUSH1 0x40 MLOAD DUP1 SWAP2 SUB SWAP1 LOG1 JUMPDEST POP JUMP JUMPDEST PUSH1 0x80 MLOAD PUSH2 0x1E27 PUSH2 0xF9 PUSH0 CODECOPY PUSH0 DUP2 DUP2 PUSH2 0xD09 ADD MSTORE DUP2 DUP2 PUSH2 0xD32 ADD MSTORE PUSH2 0xE71 ADD MSTORE PUSH2 0x1E27 PUSH0 RETURN INVALID PUSH1 0x80 PUSH1 0x40 MSTORE PUSH1 0x4 CALLDATASIZE LT PUSH2 0x17B JUMPI PUSH0 CALLDATALOAD PUSH1 0xE0 SHR DUP1 PUSH4 0x715018A6 GT PUSH2 0xCD JUMPI DUP1 PUSH4 0x95D89B41 GT PUSH2 0x87 JUMPI DUP1 PUSH4 0xC4D66DE8 GT PUSH2 0x62 JUMPI DUP1 PUSH4 0xC4D66DE8 EQ PUSH2 0x456 JUMPI DUP1 PUSH4 0xD505ACCF EQ PUSH2 0x475 JUMPI DUP1 PUSH4 0xDD62ED3E EQ PUSH2 0x494 JUMPI DUP1 PUSH4 0xF2FDE38B EQ PUSH2 0x4B3 JUMPI PUSH0 DUP1 REVERT JUMPDEST DUP1 PUSH4 0x95D89B41 EQ PUSH2 0x3F3 JUMPI DUP1 PUSH4 0xA9059CBB EQ PUSH2 0x407 JUMPI DUP1 PUSH4 0xAD3CB1CC EQ PUSH2 0x426 JUMPI PUSH0 DUP1 REVERT JUMPDEST DUP1 PUSH4 0x715018A6 EQ PUSH2 0x320 JUMPI DUP1 PUSH4 0x79CC6790 EQ PUSH2 0x334 JUMPI DUP1 PUSH4 0x7ECEBE00 EQ PUSH2 0x353 JUMPI DUP1 PUSH4 0x8456CB59 EQ PUSH2 0x372 JUMPI DUP1 PUSH4 0x84B0196E EQ PUSH2 0x386 JUMPI DUP1 PUSH4 0x8DA5CB5B EQ PUSH2 0x3AD JUMPI PUSH0 DUP1 REVERT JUMPDEST DUP1 PUSH4 0x3F4BA83A GT PUSH2 0x138 JUMPI DUP1 PUSH4 0x4F1EF286 GT PUSH2 0x113 JUMPI DUP1 PUSH4 0x4F1EF286 EQ PUSH2 0x2B7 JUMPI DUP1 PUSH4 0x52D1902D EQ PUSH2 0x2CA JUMPI DUP1 PUSH4 0x5C975ABB EQ PUSH2 0x2DE JUMPI DUP1 PUSH4 0x70A08231 EQ PUSH2 0x301 JUMPI PUSH0 DUP1 REVERT JUMPDEST DUP1 PUSH4 0x3F4BA83A EQ PUSH2 0x263 JUMPI DUP1 PUSH4 0x40C10F19 EQ PUSH2 0x279 JUMPI DUP1 PUSH4 0x42966C68 EQ PUSH2 0x298 JUMPI PUSH0 DUP1 REVERT JUMPDEST DUP1 PUSH4 0x6FDDE03 EQ PUSH2 0x17F JUMPI DUP1 PUSH4 0x95EA7B3 EQ PUSH2 0x1A9 JUMPI DUP1 PUSH4 0x18160DDD EQ PUSH2 0x1D8 JUMPI DUP1 PUSH4 0x23B872DD EQ PUSH2 0x215 JUMPI DUP1 PUSH4 0x313CE567 EQ PUSH2 0x234 JUMPI DUP1 PUSH4 0x3644E515 EQ PUSH2 0x24F JUMPI JUMPDEST PUSH0 DUP1 REVERT JUMPDEST CALLVALUE DUP1 ISZERO PUSH2 0x18A JUMPI PUSH0 DUP1 REVERT JUMPDEST POP PUSH2 0x193 PUSH2 0x4D2 JUMP JUMPDEST PUSH1 0x40 MLOAD PUSH2 0x1A0 SWAP2 SWAP1 PUSH2 0x1913 JUMP JUMPDEST PUSH1 0x40 MLOAD DUP1 SWAP2 SUB SWAP1 RETURN JUMPDEST CALLVALUE DUP1 ISZERO PUSH2 0x1B4 JUMPI PUSH0 DUP1 REVERT JUMPDEST POP PUSH2 0x1C8 PUSH2 0x1C3 CALLDATASIZE PUSH1 0x4 PUSH2 0x1940 JUMP JUMPDEST PUSH2 0x577 JUMP JUMPDEST PUSH1 0x40 MLOAD SWAP1 ISZERO ISZERO DUP2 MSTORE PUSH1 0x20 ADD PUSH2 0x1A0 JUMP JUMPDEST CALLVALUE DUP1 ISZERO PUSH2 0x1E3 JUMPI PUSH0 DUP1 REVERT JUMPDEST POP PUSH32 0x52C63247E1F47DB19D5CE0460030C497F067CA4CEBF71BA98EEADABE20BACE02 SLOAD JUMPDEST PUSH1 0x40 MLOAD SWAP1 DUP2 MSTORE PUSH1 0x20 ADD PUSH2 0x1A0 JUMP JUMPDEST CALLVALUE DUP1 ISZERO PUSH2 0x220 JUMPI PUSH0 DUP1 REVERT JUMPDEST POP PUSH2 0x1C8 PUSH2 0x22F CALLDATASIZE PUSH1 0x4 PUSH2 0x1968 JUMP JUMPDEST PUSH2 0x590 JUMP JUMPDEST CALLVALUE DUP1 ISZERO PUSH2 0x23F JUMPI PUSH0 DUP1 REVERT JUMPDEST POP PUSH1 0x40 MLOAD PUSH1 0x12 DUP2 MSTORE PUSH1 0x20 ADD PUSH2 0x1A0 JUMP JUMPDEST CALLVALUE DUP1 ISZERO PUSH2 0x25A JUMPI PUSH0 DUP1 REVERT JUMPDEST POP PUSH2 0x207 PUSH2 0x5B5 JUMP JUMPDEST CALLVALUE DUP1 ISZERO PUSH2 0x26E JUMPI PUSH0 DUP1 REVERT JUMPDEST POP PUSH2 0x277 PUSH2 0x5C3 JUMP JUMPDEST STOP JUMPDEST CALLVALUE DUP1 ISZERO PUSH2 0x284 JUMPI PUSH0 DUP1 REVERT JUMPDEST POP PUSH2 0x277 PUSH2 0x293 CALLDATASIZE PUSH1 0x4 PUSH2 0x1940 JUMP JUMPDEST PUSH2 0x5D5 JUMP JUMPDEST CALLVALUE DUP1 ISZERO PUSH2 0x2A3 JUMPI PUSH0 DUP1 REVERT JUMPDEST POP PUSH2 0x277 PUSH2 0x2B2 CALLDATASIZE PUSH1 0x4 PUSH2 0x19A1 JUMP JUMPDEST PUSH2 0x5EB JUMP JUMPDEST PUSH2 0x277 PUSH2 0x2C5 CALLDATASIZE PUSH1 0x4 PUSH2 0x19CC JUMP JUMPDEST PUSH2 0x5F8 JUMP JUMPDEST CALLVALUE DUP1 ISZERO PUSH2 0x2D5 JUMPI PUSH0 DUP1 REVERT JUMPDEST POP PUSH2 0x207 PUSH2 0x613 JUMP JUMPDEST CALLVALUE DUP1 ISZERO PUSH2 0x2E9 JUMPI PUSH0 DUP1 REVERT JUMPDEST POP PUSH0 DUP1 MLOAD PUSH1 0x20 PUSH2 0x1DD2 DUP4 CODECOPY DUP2 MLOAD SWAP2 MSTORE SLOAD PUSH1 0xFF AND PUSH2 0x1C8 JUMP JUMPDEST CALLVALUE DUP1 ISZERO PUSH2 0x30C JUMPI PUSH0 DUP1 REVERT JUMPDEST POP PUSH2 0x207 PUSH2 0x31B CALLDATASIZE PUSH1 0x4 PUSH2 0x1A88 JUMP JUMPDEST PUSH2 0x62E JUMP JUMPDEST CALLVALUE DUP1 ISZERO PUSH2 0x32B JUMPI PUSH0 DUP1 REVERT JUMPDEST POP PUSH2 0x277 PUSH2 0x65E JUMP JUMPDEST CALLVALUE DUP1 ISZERO PUSH2 0x33F JUMPI PUSH0 DUP1 REVERT JUMPDEST POP PUSH2 0x277 PUSH2 0x34E CALLDATASIZE PUSH1 0x4 PUSH2 0x1940 JUMP JUMPDEST PUSH2 0x66F JUMP JUMPDEST CALLVALUE DUP1 ISZERO PUSH2 0x35E JUMPI PUSH0 DUP1 REVERT JUMPDEST POP PUSH2 0x207 PUSH2 0x36D CALLDATASIZE PUSH1 0x4 PUSH2 0x1A88 JUMP JUMPDEST PUSH2 0x684 JUMP JUMPDEST CALLVALUE DUP1 ISZERO PUSH2 0x37D JUMPI PUSH0 DUP1 REVERT JUMPDEST POP PUSH2 0x277 PUSH2 0x68E JUMP JUMPDEST CALLVALUE DUP1 ISZERO PUSH2 0x391 JUMPI PUSH0 DUP1 REVERT JUMPDEST POP PUSH2 0x39A PUSH2 0x69E JUMP JUMPDEST PUSH1 0x40 MLOAD PUSH2 0x1A0 SWAP8 SWAP7 SWAP6 SWAP5 SWAP4 SWAP3 SWAP2 SWAP1 PUSH2 0x1AA1 JUMP JUMPDEST CALLVALUE DUP1 ISZERO PUSH2 0x3B8 JUMPI PUSH0 DUP1 REVERT JUMPDEST POP PUSH32 0x9016D09D72D40FDAE2FD8CEAC6B6234C7706214FD39C1CD1E609A0528C199300 SLOAD PUSH1 0x40 MLOAD PUSH1 0x1 PUSH1 0x1 PUSH1 0xA0 SHL SUB SWAP1 SWAP2 AND DUP2 MSTORE PUSH1 0x20 ADD PUSH2 0x1A0 JUMP JUMPDEST CALLVALUE DUP1 ISZERO PUSH2 0x3FE JUMPI PUSH0 DUP1 REVERT JUMPDEST POP PUSH2 0x193 PUSH2 0x74C JUMP JUMPDEST CALLVALUE DUP1 ISZERO PUSH2 0x412 JUMPI PUSH0 DUP1 REVERT JUMPDEST POP PUSH2 0x1C8 PUSH2 0x421 CALLDATASIZE PUSH1 0x4 PUSH2 0x1940 JUMP JUMPDEST PUSH2 0x78A JUMP JUMPDEST CALLVALUE DUP1 ISZERO PUSH2 0x431 JUMPI PUSH0 DUP1 REVERT JUMPDEST POP PUSH2 0x193 PUSH1 0x40 MLOAD DUP1 PUSH1 0x40 ADD PUSH1 0x40 MSTORE DUP1 PUSH1 0x5 DUP2 MSTORE PUSH1 0x20 ADD PUSH5 0x352E302E3 PUSH1 0xDC SHL DUP2 MSTORE POP DUP2 JUMP JUMPDEST CALLVALUE DUP1 ISZERO PUSH2 0x461 JUMPI PUSH0 DUP1 REVERT JUMPDEST POP PUSH2 0x277 PUSH2 0x470 CALLDATASIZE PUSH1 0x4 PUSH2 0x1A88 JUMP JUMPDEST PUSH2 0x797 JUMP JUMPDEST CALLVALUE DUP1 ISZERO PUSH2 0x480 JUMPI PUSH0 DUP1 REVERT JUMPDEST POP PUSH2 0x277 PUSH2 0x48F CALLDATASIZE PUSH1 0x4 PUSH2 0x1B35 JUMP JUMPDEST PUSH2 0x929 JUMP JUMPDEST CALLVALUE DUP1 ISZERO PUSH2 0x49F JUMPI PUSH0 DUP1 REVERT JUMPDEST POP PUSH2 0x207 PUSH2 0x4AE CALLDATASIZE PUSH1 0x4 PUSH2 0x1BA2 JUMP JUMPDEST PUSH2 0xA7E JUMP JUMPDEST CALLVALUE DUP1 ISZERO PUSH2 0x4BE JUMPI PUSH0 DUP1 REVERT JUMPDEST POP PUSH2 0x277 PUSH2 0x4CD CALLDATASIZE PUSH1 0x4 PUSH2 0x1A88 JUMP JUMPDEST PUSH2 0xAC7 JUMP JUMPDEST PUSH1 0x60 PUSH0 PUSH0 DUP1 MLOAD PUSH1 0x20 PUSH2 0x1D72 DUP4 CODECOPY DUP2 MLOAD SWAP2 MSTORE JUMPDEST SWAP1 POP DUP1 PUSH1 0x3 ADD DUP1 SLOAD PUSH2 0x4F5 SWAP1 PUSH2 0x1BD3 JUMP JUMPDEST DUP1 PUSH1 0x1F ADD PUSH1 0x20 DUP1 SWAP2 DIV MUL PUSH1 0x20 ADD PUSH1 0x40 MLOAD SWAP1 DUP2 ADD PUSH1 0x40 MSTORE DUP1 SWAP3 SWAP2 SWAP1 DUP2 DUP2 MSTORE PUSH1 0x20 ADD DUP3 DUP1 SLOAD PUSH2 0x521 SWAP1 PUSH2 0x1BD3 JUMP JUMPDEST DUP1 ISZERO PUSH2 0x56C JUMPI DUP1 PUSH1 0x1F LT PUSH2 0x543 JUMPI PUSH2 0x100 DUP1 DUP4 SLOAD DIV MUL DUP4 MSTORE SWAP2 PUSH1 0x20 ADD SWAP2 PUSH2 0x56C JUMP JUMPDEST DUP3 ADD SWAP2 SWAP1 PUSH0 MSTORE PUSH1 0x20 PUSH0 KECCAK256 SWAP1 JUMPDEST DUP2 SLOAD DUP2 MSTORE SWAP1 PUSH1 0x1 ADD SWAP1 PUSH1 0x20 ADD DUP1 DUP4 GT PUSH2 0x54F JUMPI DUP3 SWAP1 SUB PUSH1 0x1F AND DUP3 ADD SWAP2 JUMPDEST POP POP POP POP POP SWAP2 POP POP SWAP1 JUMP JUMPDEST PUSH0 CALLER PUSH2 0x584 DUP2 DUP6 DUP6 PUSH2 0xB01 JUMP JUMPDEST PUSH1 0x1 SWAP2 POP POP JUMPDEST SWAP3 SWAP2 POP POP JUMP JUMPDEST PUSH0 CALLER PUSH2 0x59D DUP6 DUP3 DUP6 PUSH2 0xB13 JUMP JUMPDEST PUSH2 0x5A8 DUP6 DUP6 DUP6 PUSH2 0xB76 JUMP JUMPDEST PUSH1 0x1 SWAP2 POP POP JUMPDEST SWAP4 SWAP3 POP POP POP JUMP JUMPDEST PUSH0 PUSH2 0x5BE PUSH2 0xBD3 JUMP JUMPDEST SWAP1 POP SWAP1 JUMP JUMPDEST PUSH2 0x5CB PUSH2 0xBDC JUMP JUMPDEST PUSH2 0x5D3 PUSH2 0xC37 JUMP JUMPDEST JUMP JUMPDEST PUSH2 0x5DD PUSH2 0xBDC JUMP JUMPDEST PUSH2 0x5E7 DUP3 DUP3 PUSH2 0xC96 JUMP JUMPDEST POP POP JUMP JUMPDEST PUSH2 0x5F5 CALLER DUP3 PUSH2 0xCCA JUMP JUMPDEST POP JUMP JUMPDEST PUSH2 0x600 PUSH2 0xCFE JUMP JUMPDEST PUSH2 0x609 DUP3 PUSH2 0xDA2 JUMP JUMPDEST PUSH2 0x5E7 DUP3 DUP3 PUSH2 0xDAA JUMP JUMPDEST PUSH0 PUSH2 0x61C PUSH2 0xE66 JUMP JUMPDEST POP PUSH0 DUP1 MLOAD PUSH1 0x20 PUSH2 0x1DB2 DUP4 CODECOPY DUP2 MLOAD SWAP2 MSTORE SWAP1 JUMP JUMPDEST PUSH0 DUP1 PUSH0 DUP1 MLOAD PUSH1 0x20 PUSH2 0x1D72 DUP4 CODECOPY DUP2 MLOAD SWAP2 MSTORE JUMPDEST PUSH1 0x1 PUSH1 0x1 PUSH1 0xA0 SHL SUB SWAP1 SWAP4 AND PUSH0 SWAP1 DUP2 MSTORE PUSH1 0x20 SWAP4 SWAP1 SWAP4 MSTORE POP POP PUSH1 0x40 SWAP1 KECCAK256 SLOAD SWAP1 JUMP JUMPDEST PUSH2 0x666 PUSH2 0xBDC JUMP JUMPDEST PUSH2 0x5D3 PUSH0 PUSH2 0xEAF JUMP JUMPDEST PUSH2 0x67A DUP3 CALLER DUP4 PUSH2 0xB13 JUMP JUMPDEST PUSH2 0x5E7 DUP3 DUP3 PUSH2 0xCCA JUMP JUMPDEST PUSH0 PUSH2 0x58A DUP3 PUSH2 0xF1F JUMP JUMPDEST PUSH2 0x696 PUSH2 0xBDC JUMP JUMPDEST PUSH2 0x5D3 PUSH2 0xF47 JUMP JUMPDEST PUSH0 PUSH1 0x60 DUP1 DUP3 DUP1 DUP1 DUP4 DUP2 PUSH0 DUP1 MLOAD PUSH1 0x20 PUSH2 0x1D92 DUP4 CODECOPY DUP2 MLOAD SWAP2 MSTORE DUP1 SLOAD SWAP1 SWAP2 POP ISZERO DUP1 ISZERO PUSH2 0x6C9 JUMPI POP PUSH1 0x1 DUP2 ADD SLOAD ISZERO JUMPDEST PUSH2 0x712 JUMPI PUSH1 0x40 MLOAD PUSH3 0x461BCD PUSH1 0xE5 SHL DUP2 MSTORE PUSH1 0x20 PUSH1 0x4 DUP3 ADD MSTORE PUSH1 0x15 PUSH1 0x24 DUP3 ADD MSTORE PUSH21 0x1152540DCC4C8E88155B9A5B9A5D1A585B1A5E9959 PUSH1 0x5A SHL PUSH1 0x44 DUP3 ADD MSTORE PUSH1 0x64 ADD JUMPDEST PUSH1 0x40 MLOAD DUP1 SWAP2 SUB SWAP1 REVERT JUMPDEST PUSH2 0x71A PUSH2 0xF8F JUMP JUMPDEST PUSH2 0x722 PUSH2 0xFCD JUMP JUMPDEST PUSH1 0x40 DUP1 MLOAD PUSH0 DUP1 DUP3 MSTORE PUSH1 0x20 DUP3 ADD SWAP1 SWAP3 MSTORE PUSH1 0xF PUSH1 0xF8 SHL SWAP13 SWAP4 SWAP12 POP SWAP2 SWAP10 POP CHAINID SWAP9 POP ADDRESS SWAP8 POP SWAP6 POP SWAP4 POP SWAP2 POP POP JUMP JUMPDEST PUSH32 0x52C63247E1F47DB19D5CE0460030C497F067CA4CEBF71BA98EEADABE20BACE04 DUP1 SLOAD PUSH1 0x60 SWAP2 PUSH0 DUP1 MLOAD PUSH1 0x20 PUSH2 0x1D72 DUP4 CODECOPY DUP2 MLOAD SWAP2 MSTORE SWAP2 PUSH2 0x4F5 SWAP1 PUSH2 0x1BD3 JUMP JUMPDEST PUSH0 CALLER PUSH2 0x584 DUP2 DUP6 DUP6 PUSH2 0xB76 JUMP JUMPDEST PUSH32 0xF0C57E16840DF040F15088DC2F81FE391C3923BEC73E23A9662EFC9C229C6A00 DUP1 SLOAD PUSH1 0x1 PUSH1 0x40 SHL DUP2 DIV PUSH1 0xFF AND ISZERO SWAP1 PUSH8 0xFFFFFFFFFFFFFFFF AND PUSH0 DUP2 ISZERO DUP1 ISZERO PUSH2 0x7DC JUMPI POP DUP3 JUMPDEST SWAP1 POP PUSH0 DUP3 PUSH8 0xFFFFFFFFFFFFFFFF AND PUSH1 0x1 EQ DUP1 ISZERO PUSH2 0x7F8 JUMPI POP ADDRESS EXTCODESIZE ISZERO JUMPDEST SWAP1 POP DUP2 ISZERO DUP1 ISZERO PUSH2 0x806 JUMPI POP DUP1 ISZERO JUMPDEST ISZERO PUSH2 0x824 JUMPI PUSH1 0x40 MLOAD PUSH4 0xF92EE8A9 PUSH1 0xE0 SHL DUP2 MSTORE PUSH1 0x4 ADD PUSH1 0x40 MLOAD DUP1 SWAP2 SUB SWAP1 REVERT JUMPDEST DUP5 SLOAD PUSH8 0xFFFFFFFFFFFFFFFF NOT AND PUSH1 0x1 OR DUP6 SSTORE DUP4 ISZERO PUSH2 0x84E JUMPI DUP5 SLOAD PUSH1 0xFF PUSH1 0x40 SHL NOT AND PUSH1 0x1 PUSH1 0x40 SHL OR DUP6 SSTORE JUMPDEST PUSH2 0x892 PUSH1 0x40 MLOAD DUP1 PUSH1 0x40 ADD PUSH1 0x40 MSTORE DUP1 PUSH1 0x7 DUP2 MSTORE PUSH1 0x20 ADD PUSH7 0x26BCAA37B5B2B7 PUSH1 0xC9 SHL DUP2 MSTORE POP PUSH1 0x40 MLOAD DUP1 PUSH1 0x40 ADD PUSH1 0x40 MSTORE DUP1 PUSH1 0x3 DUP2 MSTORE PUSH1 0x20 ADD PUSH3 0x4D544B PUSH1 0xE8 SHL DUP2 MSTORE POP PUSH2 0xFE3 JUMP JUMPDEST PUSH2 0x89A PUSH2 0xFF5 JUMP JUMPDEST PUSH2 0x8A2 PUSH2 0xFFD JUMP JUMPDEST PUSH2 0x8AB DUP7 PUSH2 0x100D JUMP JUMPDEST PUSH2 0x8D3 PUSH1 0x40 MLOAD DUP1 PUSH1 0x40 ADD PUSH1 0x40 MSTORE DUP1 PUSH1 0x7 DUP2 MSTORE PUSH1 0x20 ADD PUSH7 0x26BCAA37B5B2B7 PUSH1 0xC9 SHL DUP2 MSTORE POP PUSH2 0x101E JUMP JUMPDEST PUSH2 0x8DB PUSH2 0xFF5 JUMP JUMPDEST DUP4 ISZERO PUSH2 0x921 JUMPI DUP5 SLOAD PUSH1 0xFF PUSH1 0x40 SHL NOT AND DUP6 SSTORE PUSH1 0x40 MLOAD PUSH1 0x1 DUP2 MSTORE PUSH32 0xC7F505B2F371AE2175EE4913F4499E1F2633A7B5936321EED1CDAEB6115181D2 SWAP1 PUSH1 0x20 ADD PUSH1 0x40 MLOAD DUP1 SWAP2 SUB SWAP1 LOG1 JUMPDEST POP POP POP POP POP POP JUMP JUMPDEST DUP4 TIMESTAMP GT ISZERO PUSH2 0x94D JUMPI PUSH1 0x40 MLOAD PUSH4 0x313C8981 PUSH1 0xE1 SHL DUP2 MSTORE PUSH1 0x4 DUP2 ADD DUP6 SWAP1 MSTORE PUSH1 0x24 ADD PUSH2 0x709 JUMP JUMPDEST PUSH0 PUSH32 0x6E71EDAE12B1B97F4D1F60370FEF10105FA2FAAE0126114A169C64845D6126C9 DUP9 DUP9 DUP9 PUSH2 0x9B7 DUP13 PUSH1 0x1 PUSH1 0x1 PUSH1 0xA0 SHL SUB AND PUSH0 SWAP1 DUP2 MSTORE PUSH32 0x5AB42CED628888259C08AC98DB1EB0CF702FC1501344311D8B100CD1BFE4BB00 PUSH1 0x20 MSTORE PUSH1 0x40 SWAP1 KECCAK256 DUP1 SLOAD PUSH1 0x1 DUP2 ADD SWAP1 SWAP2 SSTORE SWAP1 JUMP JUMPDEST PUSH1 0x40 DUP1 MLOAD PUSH1 0x20 DUP2 ADD SWAP7 SWAP1 SWAP7 MSTORE PUSH1 0x1 PUSH1 0x1 PUSH1 0xA0 SHL SUB SWAP5 DUP6 AND SWAP1 DUP7 ADD MSTORE SWAP3 SWAP1 SWAP2 AND PUSH1 0x60 DUP5 ADD MSTORE PUSH1 0x80 DUP4 ADD MSTORE PUSH1 0xA0 DUP3 ADD MSTORE PUSH1 0xC0 DUP2 ADD DUP7 SWAP1 MSTORE PUSH1 0xE0 ADD PUSH1 0x40 MLOAD PUSH1 0x20 DUP2 DUP4 SUB SUB DUP2 MSTORE SWAP1 PUSH1 0x40 MSTORE DUP1 MLOAD SWAP1 PUSH1 0x20 ADD KECCAK256 SWAP1 POP PUSH0 PUSH2 0xA11 DUP3 PUSH2 0x1049 JUMP JUMPDEST SWAP1 POP PUSH0 PUSH2 0xA20 DUP3 DUP8 DUP8 DUP8 PUSH2 0x1075 JUMP JUMPDEST SWAP1 POP DUP10 PUSH1 0x1 PUSH1 0x1 PUSH1 0xA0 SHL SUB AND DUP2 PUSH1 0x1 PUSH1 0x1 PUSH1 0xA0 SHL SUB AND EQ PUSH2 0xA67 JUMPI PUSH1 0x40 MLOAD PUSH4 0x25C00723 PUSH1 0xE1 SHL DUP2 MSTORE PUSH1 0x1 PUSH1 0x1 PUSH1 0xA0 SHL SUB DUP1 DUP4 AND PUSH1 0x4 DUP4 ADD MSTORE DUP12 AND PUSH1 0x24 DUP3 ADD MSTORE PUSH1 0x44 ADD PUSH2 0x709 JUMP JUMPDEST PUSH2 0xA72 DUP11 DUP11 DUP11 PUSH2 0xB01 JUMP JUMPDEST POP POP POP POP POP POP POP POP POP POP JUMP JUMPDEST PUSH1 0x1 PUSH1 0x1 PUSH1 0xA0 SHL SUB SWAP2 DUP3 AND PUSH0 SWAP1 DUP2 MSTORE PUSH32 0x52C63247E1F47DB19D5CE0460030C497F067CA4CEBF71BA98EEADABE20BACE01 PUSH1 0x20 SWAP1 DUP2 MSTORE PUSH1 0x40 DUP1 DUP4 KECCAK256 SWAP4 SWAP1 SWAP5 AND DUP3 MSTORE SWAP2 SWAP1 SWAP2 MSTORE KECCAK256 SLOAD SWAP1 JUMP JUMPDEST PUSH2 0xACF PUSH2 0xBDC JUMP JUMPDEST PUSH1 0x1 PUSH1 0x1 PUSH1 0xA0 SHL SUB DUP2 AND PUSH2 0xAF8 JUMPI PUSH1 0x40 MLOAD PUSH4 0x1E4FBDF7 PUSH1 0xE0 SHL DUP2 MSTORE PUSH0 PUSH1 0x4 DUP3 ADD MSTORE PUSH1 0x24 ADD PUSH2 0x709 JUMP JUMPDEST PUSH2 0x5F5 DUP2 PUSH2 0xEAF JUMP JUMPDEST PUSH2 0xB0E DUP4 DUP4 DUP4 PUSH1 0x1 PUSH2 0x10A1 JUMP JUMPDEST POP POP POP JUMP JUMPDEST PUSH0 PUSH2 0xB1E DUP5 DUP5 PUSH2 0xA7E JUMP JUMPDEST SWAP1 POP PUSH0 NOT DUP2 EQ PUSH2 0xB70 JUMPI DUP2 DUP2 LT ISZERO PUSH2 0xB62 JUMPI PUSH1 0x40 MLOAD PUSH4 0x7DC7A0D9 PUSH1 0xE1 SHL DUP2 MSTORE PUSH1 0x1 PUSH1 0x1 PUSH1 0xA0 SHL SUB DUP5 AND PUSH1 0x4 DUP3 ADD MSTORE PUSH1 0x24 DUP2 ADD DUP3 SWAP1 MSTORE PUSH1 0x44 DUP2 ADD DUP4 SWAP1 MSTORE PUSH1 0x64 ADD PUSH2 0x709 JUMP JUMPDEST PUSH2 0xB70 DUP5 DUP5 DUP5 DUP5 SUB PUSH0 PUSH2 0x10A1 JUMP JUMPDEST POP POP POP POP JUMP JUMPDEST PUSH1 0x1 PUSH1 0x1 PUSH1 0xA0 SHL SUB DUP4 AND PUSH2 0xB9F JUMPI PUSH1 0x40 MLOAD PUSH4 0x4B637E8F PUSH1 0xE1 SHL DUP2 MSTORE PUSH0 PUSH1 0x4 DUP3 ADD MSTORE PUSH1 0x24 ADD PUSH2 0x709 JUMP JUMPDEST PUSH1 0x1 PUSH1 0x1 PUSH1 0xA0 SHL SUB DUP3 AND PUSH2 0xBC8 JUMPI PUSH1 0x40 MLOAD PUSH4 0xEC442F05 PUSH1 0xE0 SHL DUP2 MSTORE PUSH0 PUSH1 0x4 DUP3 ADD MSTORE PUSH1 0x24 ADD PUSH2 0x709 JUMP JUMPDEST PUSH2 0xB0E DUP4 DUP4 DUP4 PUSH2 0x1185 JUMP JUMPDEST PUSH0 PUSH2 0x5BE PUSH2 0x1190 JUMP JUMPDEST CALLER PUSH2 0xC0E PUSH32 0x9016D09D72D40FDAE2FD8CEAC6B6234C7706214FD39C1CD1E609A0528C199300 SLOAD PUSH1 0x1 PUSH1 0x1 PUSH1 0xA0 SHL SUB AND SWAP1 JUMP JUMPDEST PUSH1 0x1 PUSH1 0x1 PUSH1 0xA0 SHL SUB AND EQ PUSH2 0x5D3 JUMPI PUSH1 0x40 MLOAD PUSH4 0x118CDAA7 PUSH1 0xE0 SHL DUP2 MSTORE CALLER PUSH1 0x4 DUP3 ADD MSTORE PUSH1 0x24 ADD PUSH2 0x709 JUMP JUMPDEST PUSH2 0xC3F PUSH2 0x1203 JUMP JUMPDEST PUSH0 DUP1 MLOAD PUSH1 0x20 PUSH2 0x1DD2 DUP4 CODECOPY DUP2 MLOAD SWAP2 MSTORE DUP1 SLOAD PUSH1 0xFF NOT AND DUP2 SSTORE PUSH32 0x5DB9EE0A495BF2E6FF9C91A7834C1BA4FDD244A5E8AA4E537BD38AEAE4B073AA CALLER JUMPDEST PUSH1 0x40 MLOAD PUSH1 0x1 PUSH1 0x1 PUSH1 0xA0 SHL SUB SWAP1 SWAP2 AND DUP2 MSTORE PUSH1 0x20 ADD PUSH1 0x40 MLOAD DUP1 SWAP2 SUB SWAP1 LOG1 POP JUMP JUMPDEST PUSH1 0x1 PUSH1 0x1 PUSH1 0xA0 SHL SUB DUP3 AND PUSH2 0xCBF JUMPI PUSH1 0x40 MLOAD PUSH4 0xEC442F05 PUSH1 0xE0 SHL DUP2 MSTORE PUSH0 PUSH1 0x4 DUP3 ADD MSTORE PUSH1 0x24 ADD PUSH2 0x709 JUMP JUMPDEST PUSH2 0x5E7 PUSH0 DUP4 DUP4 PUSH2 0x1185 JUMP JUMPDEST PUSH1 0x1 PUSH1 0x1 PUSH1 0xA0 SHL SUB DUP3 AND PUSH2 0xCF3 JUMPI PUSH1 0x40 MLOAD PUSH4 0x4B637E8F PUSH1 0xE1 SHL DUP2 MSTORE PUSH0 PUSH1 0x4 DUP3 ADD MSTORE PUSH1 0x24 ADD PUSH2 0x709 JUMP JUMPDEST PUSH2 0x5E7 DUP3 PUSH0 DUP4 PUSH2 0x1185 JUMP JUMPDEST ADDRESS PUSH1 0x1 PUSH1 0x1 PUSH1 0xA0 SHL SUB PUSH32 0x0 AND EQ DUP1 PUSH2 0xD84 JUMPI POP PUSH32 0x0 PUSH1 0x1 PUSH1 0x1 PUSH1 0xA0 SHL SUB AND PUSH2 0xD78 PUSH0 DUP1 MLOAD PUSH1 0x20 PUSH2 0x1DB2 DUP4 CODECOPY DUP2 MLOAD SWAP2 MSTORE SLOAD PUSH1 0x1 PUSH1 0x1 PUSH1 0xA0 SHL SUB AND SWAP1 JUMP JUMPDEST PUSH1 0x1 PUSH1 0x1 PUSH1 0xA0 SHL SUB AND EQ ISZERO JUMPDEST ISZERO PUSH2 0x5D3 JUMPI PUSH1 0x40 MLOAD PUSH4 0x703E46DD PUSH1 0xE1 SHL DUP2 MSTORE PUSH1 0x4 ADD PUSH1 0x40 MLOAD DUP1 SWAP2 SUB SWAP1 REVERT JUMPDEST PUSH2 0x5F5 PUSH2 0xBDC JUMP JUMPDEST DUP2 PUSH1 0x1 PUSH1 0x1 PUSH1 0xA0 SHL SUB AND PUSH4 0x52D1902D PUSH1 0x40 MLOAD DUP2 PUSH4 0xFFFFFFFF AND PUSH1 0xE0 SHL DUP2 MSTORE PUSH1 0x4 ADD PUSH1 0x20 PUSH1 0x40 MLOAD DUP1 DUP4 SUB DUP2 DUP7 GAS STATICCALL SWAP3 POP POP POP DUP1 ISZERO PUSH2 0xE04 JUMPI POP PUSH1 0x40 DUP1 MLOAD PUSH1 0x1F RETURNDATASIZE SWAP1 DUP2 ADD PUSH1 0x1F NOT AND DUP3 ADD SWAP1 SWAP3 MSTORE PUSH2 0xE01 SWAP2 DUP2 ADD SWAP1 PUSH2 0x1C0B JUMP JUMPDEST PUSH1 0x1 JUMPDEST PUSH2 0xE2C JUMPI PUSH1 0x40 MLOAD PUSH4 0x4C9C8CE3 PUSH1 0xE0 SHL DUP2 MSTORE PUSH1 0x1 PUSH1 0x1 PUSH1 0xA0 SHL SUB DUP4 AND PUSH1 0x4 DUP3 ADD MSTORE PUSH1 0x24 ADD PUSH2 0x709 JUMP JUMPDEST PUSH0 DUP1 MLOAD PUSH1 0x20 PUSH2 0x1DB2 DUP4 CODECOPY DUP2 MLOAD SWAP2 MSTORE DUP2 EQ PUSH2 0xE5C JUMPI PUSH1 0x40 MLOAD PUSH4 0x2A875269 PUSH1 0xE2 SHL DUP2 MSTORE PUSH1 0x4 DUP2 ADD DUP3 SWAP1 MSTORE PUSH1 0x24 ADD PUSH2 0x709 JUMP JUMPDEST PUSH2 0xB0E DUP4 DUP4 PUSH2 0x1232 JUMP JUMPDEST ADDRESS PUSH1 0x1 PUSH1 0x1 PUSH1 0xA0 SHL SUB PUSH32 0x0 AND EQ PUSH2 0x5D3 JUMPI PUSH1 0x40 MLOAD PUSH4 0x703E46DD PUSH1 0xE1 SHL DUP2 MSTORE PUSH1 0x4 ADD PUSH1 0x40 MLOAD DUP1 SWAP2 SUB SWAP1 REVERT JUMPDEST PUSH32 0x9016D09D72D40FDAE2FD8CEAC6B6234C7706214FD39C1CD1E609A0528C199300 DUP1 SLOAD PUSH1 0x1 PUSH1 0x1 PUSH1 0xA0 SHL SUB NOT DUP2 AND PUSH1 0x1 PUSH1 0x1 PUSH1 0xA0 SHL SUB DUP5 DUP2 AND SWAP2 DUP3 OR DUP5 SSTORE PUSH1 0x40 MLOAD SWAP3 AND SWAP2 DUP3 SWAP1 PUSH32 0x8BE0079C531659141344CD1FD0A4F28419497F9722A3DAAFE3B4186F6B6457E0 SWAP1 PUSH0 SWAP1 LOG3 POP POP POP JUMP JUMPDEST PUSH0 DUP1 PUSH32 0x5AB42CED628888259C08AC98DB1EB0CF702FC1501344311D8B100CD1BFE4BB00 PUSH2 0x63F JUMP JUMPDEST PUSH2 0xF4F PUSH2 0x1287 JUMP JUMPDEST PUSH0 DUP1 MLOAD PUSH1 0x20 PUSH2 0x1DD2 DUP4 CODECOPY DUP2 MLOAD SWAP2 MSTORE DUP1 SLOAD PUSH1 0xFF NOT AND PUSH1 0x1 OR DUP2 SSTORE PUSH32 0x62E78CEA01BEE320CD4E420270B5EA74000D11B0C9F74754EBDBFC544B05A258 CALLER PUSH2 0xC78 JUMP JUMPDEST PUSH32 0xA16A46D94261C7517CC8FF89F61C0CE93598E3C849801011DEE649A6A557D102 DUP1 SLOAD PUSH1 0x60 SWAP2 PUSH0 DUP1 MLOAD PUSH1 0x20 PUSH2 0x1D92 DUP4 CODECOPY DUP2 MLOAD SWAP2 MSTORE SWAP2 PUSH2 0x4F5 SWAP1 PUSH2 0x1BD3 JUMP JUMPDEST PUSH1 0x60 PUSH0 PUSH0 DUP1 MLOAD PUSH1 0x20 PUSH2 0x1D92 DUP4 CODECOPY DUP2 MLOAD SWAP2 MSTORE PUSH2 0x4E4 JUMP JUMPDEST PUSH2 0xFEB PUSH2 0x12B7 JUMP JUMPDEST PUSH2 0x5E7 DUP3 DUP3 PUSH2 0x1300 JUMP JUMPDEST PUSH2 0x5D3 PUSH2 0x12B7 JUMP JUMPDEST PUSH2 0x1005 PUSH2 0x12B7 JUMP JUMPDEST PUSH2 0x5D3 PUSH2 0x1350 JUMP JUMPDEST PUSH2 0x1015 PUSH2 0x12B7 JUMP JUMPDEST PUSH2 0x5F5 DUP2 PUSH2 0x1370 JUMP JUMPDEST PUSH2 0x1026 PUSH2 0x12B7 JUMP JUMPDEST PUSH2 0x5F5 DUP2 PUSH1 0x40 MLOAD DUP1 PUSH1 0x40 ADD PUSH1 0x40 MSTORE DUP1 PUSH1 0x1 DUP2 MSTORE PUSH1 0x20 ADD PUSH1 0x31 PUSH1 0xF8 SHL DUP2 MSTORE POP PUSH2 0x1378 JUMP JUMPDEST PUSH0 PUSH2 0x58A PUSH2 0x1055 PUSH2 0xBD3 JUMP JUMPDEST DUP4 PUSH1 0x40 MLOAD PUSH2 0x1901 PUSH1 0xF0 SHL DUP2 MSTORE PUSH1 0x2 DUP2 ADD SWAP3 SWAP1 SWAP3 MSTORE PUSH1 0x22 DUP3 ADD MSTORE PUSH1 0x42 SWAP1 KECCAK256 SWAP1 JUMP JUMPDEST PUSH0 DUP1 PUSH0 DUP1 PUSH2 0x1085 DUP9 DUP9 DUP9 DUP9 PUSH2 0x13D7 JUMP JUMPDEST SWAP3 POP SWAP3 POP SWAP3 POP PUSH2 0x1095 DUP3 DUP3 PUSH2 0x149F JUMP JUMPDEST POP SWAP1 SWAP7 SWAP6 POP POP POP POP POP POP JUMP JUMPDEST PUSH0 DUP1 MLOAD PUSH1 0x20 PUSH2 0x1D72 DUP4 CODECOPY DUP2 MLOAD SWAP2 MSTORE PUSH1 0x1 PUSH1 0x1 PUSH1 0xA0 SHL SUB DUP6 AND PUSH2 0x10D8 JUMPI PUSH1 0x40 MLOAD PUSH4 0xE602DF05 PUSH1 0xE0 SHL DUP2 MSTORE PUSH0 PUSH1 0x4 DUP3 ADD MSTORE PUSH1 0x24 ADD PUSH2 0x709 JUMP JUMPDEST PUSH1 0x1 PUSH1 0x1 PUSH1 0xA0 SHL SUB DUP5 AND PUSH2 0x1101 JUMPI PUSH1 0x40 MLOAD PUSH4 0x4A1406B1 PUSH1 0xE1 SHL DUP2 MSTORE PUSH0 PUSH1 0x4 DUP3 ADD MSTORE PUSH1 0x24 ADD PUSH2 0x709 JUMP JUMPDEST PUSH1 0x1 PUSH1 0x1 PUSH1 0xA0 SHL SUB DUP1 DUP7 AND PUSH0 SWAP1 DUP2 MSTORE PUSH1 0x1 DUP4 ADD PUSH1 0x20 SWAP1 DUP2 MSTORE PUSH1 0x40 DUP1 DUP4 KECCAK256 SWAP4 DUP9 AND DUP4 MSTORE SWAP3 SWAP1 MSTORE KECCAK256 DUP4 SWAP1 SSTORE DUP2 ISZERO PUSH2 0x117E JUMPI DUP4 PUSH1 0x1 PUSH1 0x1 PUSH1 0xA0 SHL SUB AND DUP6 PUSH1 0x1 PUSH1 0x1 PUSH1 0xA0 SHL SUB AND PUSH32 0x8C5BE1E5EBEC7D5BD14F71427D1E84F3DD0314C0F7B2291E5B200AC8C7C3B925 DUP6 PUSH1 0x40 MLOAD PUSH2 0x1175 SWAP2 DUP2 MSTORE PUSH1 0x20 ADD SWAP1 JUMP JUMPDEST PUSH1 0x40 MLOAD DUP1 SWAP2 SUB SWAP1 LOG3 JUMPDEST POP POP POP POP POP JUMP JUMPDEST PUSH2 0xB0E DUP4 DUP4 DUP4 PUSH2 0x1557 JUMP JUMPDEST PUSH0 PUSH32 0x8B73C3C69BB8FE3D512ECC4CF759CC79239F7B179B0FFACAA9A75D522B39400F PUSH2 0x11BA PUSH2 0x156A JUMP JUMPDEST PUSH2 0x11C2 PUSH2 0x15D2 JUMP JUMPDEST PUSH1 0x40 DUP1 MLOAD PUSH1 0x20 DUP2 ADD SWAP5 SWAP1 SWAP5 MSTORE DUP4 ADD SWAP2 SWAP1 SWAP2 MSTORE PUSH1 0x60 DUP3 ADD MSTORE CHAINID PUSH1 0x80 DUP3 ADD MSTORE ADDRESS PUSH1 0xA0 DUP3 ADD MSTORE PUSH1 0xC0 ADD PUSH1 0x40 MLOAD PUSH1 0x20 DUP2 DUP4 SUB SUB DUP2 MSTORE SWAP1 PUSH1 0x40 MSTORE DUP1 MLOAD SWAP1 PUSH1 0x20 ADD KECCAK256 SWAP1 POP SWAP1 JUMP JUMPDEST PUSH0 DUP1 MLOAD PUSH1 0x20 PUSH2 0x1DD2 DUP4 CODECOPY DUP2 MLOAD SWAP2 MSTORE SLOAD PUSH1 0xFF AND PUSH2 0x5D3 JUMPI PUSH1 0x40 MLOAD PUSH4 0x8DFC202B PUSH1 0xE0 SHL DUP2 MSTORE PUSH1 0x4 ADD PUSH1 0x40 MLOAD DUP1 SWAP2 SUB SWAP1 REVERT JUMPDEST PUSH2 0x123B DUP3 PUSH2 0x1614 JUMP JUMPDEST PUSH1 0x40 MLOAD PUSH1 0x1 PUSH1 0x1 PUSH1 0xA0 SHL SUB DUP4 AND SWAP1 PUSH32 0xBC7CD75A20EE27FD9ADEBAB32041F755214DBC6BFFA90CC0225B39DA2E5C2D3B SWAP1 PUSH0 SWAP1 LOG2 DUP1 MLOAD ISZERO PUSH2 0x127F JUMPI PUSH2 0xB0E DUP3 DUP3 PUSH2 0x1677 JUMP JUMPDEST PUSH2 0x5E7 PUSH2 0x16E9 JUMP JUMPDEST PUSH0 DUP1 MLOAD PUSH1 0x20 PUSH2 0x1DD2 DUP4 CODECOPY DUP2 MLOAD SWAP2 MSTORE SLOAD PUSH1 0xFF AND ISZERO PUSH2 0x5D3 JUMPI PUSH1 0x40 MLOAD PUSH4 0xD93C0665 PUSH1 0xE0 SHL DUP2 MSTORE PUSH1 0x4 ADD PUSH1 0x40 MLOAD DUP1 SWAP2 SUB SWAP1 REVERT JUMPDEST PUSH32 0xF0C57E16840DF040F15088DC2F81FE391C3923BEC73E23A9662EFC9C229C6A00 SLOAD PUSH1 0x1 PUSH1 0x40 SHL SWAP1 DIV PUSH1 0xFF AND PUSH2 0x5D3 JUMPI PUSH1 0x40 MLOAD PUSH4 0x1AFCD79F PUSH1 0xE3 SHL DUP2 MSTORE PUSH1 0x4 ADD PUSH1 0x40 MLOAD DUP1 SWAP2 SUB SWAP1 REVERT JUMPDEST PUSH2 0x1308 PUSH2 0x12B7 JUMP JUMPDEST PUSH0 DUP1 MLOAD PUSH1 0x20 PUSH2 0x1D72 DUP4 CODECOPY DUP2 MLOAD SWAP2 MSTORE PUSH32 0x52C63247E1F47DB19D5CE0460030C497F067CA4CEBF71BA98EEADABE20BACE03 PUSH2 0x1341 DUP5 DUP3 PUSH2 0x1C67 JUMP JUMPDEST POP PUSH1 0x4 DUP2 ADD PUSH2 0xB70 DUP4 DUP3 PUSH2 0x1C67 JUMP JUMPDEST PUSH2 0x1358 PUSH2 0x12B7 JUMP JUMPDEST PUSH0 DUP1 MLOAD PUSH1 0x20 PUSH2 0x1DD2 DUP4 CODECOPY DUP2 MLOAD SWAP2 MSTORE DUP1 SLOAD PUSH1 0xFF NOT AND SWAP1 SSTORE JUMP JUMPDEST PUSH2 0xACF PUSH2 0x12B7 JUMP JUMPDEST PUSH2 0x1380 PUSH2 0x12B7 JUMP JUMPDEST PUSH0 DUP1 MLOAD PUSH1 0x20 PUSH2 0x1D92 DUP4 CODECOPY DUP2 MLOAD SWAP2 MSTORE PUSH32 0xA16A46D94261C7517CC8FF89F61C0CE93598E3C849801011DEE649A6A557D102 PUSH2 0x13B9 DUP5 DUP3 PUSH2 0x1C67 JUMP JUMPDEST POP PUSH1 0x3 DUP2 ADD PUSH2 0x13C8 DUP4 DUP3 PUSH2 0x1C67 JUMP JUMPDEST POP PUSH0 DUP1 DUP3 SSTORE PUSH1 0x1 SWAP1 SWAP2 ADD SSTORE POP POP JUMP JUMPDEST PUSH0 DUP1 DUP1 PUSH32 0x7FFFFFFFFFFFFFFFFFFFFFFFFFFFFFFF5D576E7357A4501DDFE92F46681B20A0 DUP5 GT ISZERO PUSH2 0x1410 JUMPI POP PUSH0 SWAP2 POP PUSH1 0x3 SWAP1 POP DUP3 PUSH2 0x1495 JUMP JUMPDEST PUSH1 0x40 DUP1 MLOAD PUSH0 DUP1 DUP3 MSTORE PUSH1 0x20 DUP3 ADD DUP1 DUP5 MSTORE DUP11 SWAP1 MSTORE PUSH1 0xFF DUP10 AND SWAP3 DUP3 ADD SWAP3 SWAP1 SWAP3 MSTORE PUSH1 0x60 DUP2 ADD DUP8 SWAP1 MSTORE PUSH1 0x80 DUP2 ADD DUP7 SWAP1 MSTORE PUSH1 0x1 SWAP1 PUSH1 0xA0 ADD PUSH1 0x20 PUSH1 0x40 MLOAD PUSH1 0x20 DUP2 SUB SWAP1 DUP1 DUP5 SUB SWAP1 DUP6 GAS STATICCALL ISZERO DUP1 ISZERO PUSH2 0x1461 JUMPI RETURNDATASIZE PUSH0 DUP1 RETURNDATACOPY RETURNDATASIZE PUSH0 REVERT JUMPDEST POP POP PUSH1 0x40 MLOAD PUSH1 0x1F NOT ADD MLOAD SWAP2 POP POP PUSH1 0x1 PUSH1 0x1 PUSH1 0xA0 SHL SUB DUP2 AND PUSH2 0x148C JUMPI POP PUSH0 SWAP3 POP PUSH1 0x1 SWAP2 POP DUP3 SWAP1 POP PUSH2 0x1495 JUMP JUMPDEST SWAP3 POP PUSH0 SWAP2 POP DUP2 SWAP1 POP JUMPDEST SWAP5 POP SWAP5 POP SWAP5 SWAP2 POP POP JUMP JUMPDEST PUSH0 DUP3 PUSH1 0x3 DUP2 GT ISZERO PUSH2 0x14B2 JUMPI PUSH2 0x14B2 PUSH2 0x1D23 JUMP JUMPDEST SUB PUSH2 0x14BB JUMPI POP POP JUMP JUMPDEST PUSH1 0x1 DUP3 PUSH1 0x3 DUP2 GT ISZERO PUSH2 0x14CF JUMPI PUSH2 0x14CF PUSH2 0x1D23 JUMP JUMPDEST SUB PUSH2 0x14ED JUMPI PUSH1 0x40 MLOAD PUSH4 0xF645EEDF PUSH1 0xE0 SHL DUP2 MSTORE PUSH1 0x4 ADD PUSH1 0x40 MLOAD DUP1 SWAP2 SUB SWAP1 REVERT JUMPDEST PUSH1 0x2 DUP3 PUSH1 0x3 DUP2 GT ISZERO PUSH2 0x1501 JUMPI PUSH2 0x1501 PUSH2 0x1D23 JUMP JUMPDEST SUB PUSH2 0x1522 JUMPI PUSH1 0x40 MLOAD PUSH4 0xFCE698F7 PUSH1 0xE0 SHL DUP2 MSTORE PUSH1 0x4 DUP2 ADD DUP3 SWAP1 MSTORE PUSH1 0x24 ADD PUSH2 0x709 JUMP JUMPDEST PUSH1 0x3 DUP3 PUSH1 0x3 DUP2 GT ISZERO PUSH2 0x1536 JUMPI PUSH2 0x1536 PUSH2 0x1D23 JUMP JUMPDEST SUB PUSH2 0x5E7 JUMPI PUSH1 0x40 MLOAD PUSH4 0x35E2F383 PUSH1 0xE2 SHL DUP2 MSTORE PUSH1 0x4 DUP2 ADD DUP3 SWAP1 MSTORE PUSH1 0x24 ADD PUSH2 0x709 JUMP JUMPDEST PUSH2 0x155F PUSH2 0x1287 JUMP JUMPDEST PUSH2 0xB0E DUP4 DUP4 DUP4 PUSH2 0x1708 JUMP JUMPDEST PUSH0 PUSH0 DUP1 MLOAD PUSH1 0x20 PUSH2 0x1D92 DUP4 CODECOPY DUP2 MLOAD SWAP2 MSTORE DUP2 PUSH2 0x1582 PUSH2 0xF8F JUMP JUMPDEST DUP1 MLOAD SWAP1 SWAP2 POP ISZERO PUSH2 0x159A JUMPI DUP1 MLOAD PUSH1 0x20 SWAP1 SWAP2 ADD KECCAK256 SWAP3 SWAP2 POP POP JUMP JUMPDEST DUP2 SLOAD DUP1 ISZERO PUSH2 0x15A9 JUMPI SWAP4 SWAP3 POP POP POP JUMP JUMPDEST PUSH32 0xC5D2460186F7233C927E7DB2DCC703C0E500B653CA82273B7BFAD8045D85A470 SWAP4 POP POP POP POP SWAP1 JUMP JUMPDEST PUSH0 PUSH0 DUP1 MLOAD PUSH1 0x20 PUSH2 0x1D92 DUP4 CODECOPY DUP2 MLOAD SWAP2 MSTORE DUP2 PUSH2 0x15EA PUSH2 0xFCD JUMP JUMPDEST DUP1 MLOAD SWAP1 SWAP2 POP ISZERO PUSH2 0x1602 JUMPI DUP1 MLOAD PUSH1 0x20 SWAP1 SWAP2 ADD KECCAK256 SWAP3 SWAP2 POP POP JUMP JUMPDEST PUSH1 0x1 DUP3 ADD SLOAD DUP1 ISZERO PUSH2 0x15A9 JUMPI SWAP4 SWAP3 POP POP POP JUMP JUMPDEST DUP1 PUSH1 0x1 PUSH1 0x1 PUSH1 0xA0 SHL SUB AND EXTCODESIZE PUSH0 SUB PUSH2 0x1649 JUMPI PUSH1 0x40 MLOAD PUSH4 0x4C9C8CE3 PUSH1 0xE0 SHL DUP2 MSTORE PUSH1 0x1 PUSH1 0x1 PUSH1 0xA0 SHL SUB DUP3 AND PUSH1 0x4 DUP3 ADD MSTORE PUSH1 0x24 ADD PUSH2 0x709 JUMP JUMPDEST PUSH0 DUP1 MLOAD PUSH1 0x20 PUSH2 0x1DB2 DUP4 CODECOPY DUP2 MLOAD SWAP2 MSTORE DUP1 SLOAD PUSH1 0x1 PUSH1 0x1 PUSH1 0xA0 SHL SUB NOT AND PUSH1 0x1 PUSH1 0x1 PUSH1 0xA0 SHL SUB SWAP3 SWAP1 SWAP3 AND SWAP2 SWAP1 SWAP2 OR SWAP1 SSTORE JUMP JUMPDEST PUSH1 0x60 PUSH0 DUP1 DUP5 PUSH1 0x1 PUSH1 0x1 PUSH1 0xA0 SHL SUB AND DUP5 PUSH1 0x40 MLOAD PUSH2 0x1693 SWAP2 SWAP1 PUSH2 0x1D37 JUMP JUMPDEST PUSH0 PUSH1 0x40 MLOAD DUP1 DUP4 SUB DUP2 DUP6 GAS DELEGATECALL SWAP2 POP POP RETURNDATASIZE DUP1 PUSH0 DUP2 EQ PUSH2 0x16CB JUMPI PUSH1 0x40 MLOAD SWAP2 POP PUSH1 0x1F NOT PUSH1 0x3F RETURNDATASIZE ADD AND DUP3 ADD PUSH1 0x40 MSTORE RETURNDATASIZE DUP3 MSTORE RETURNDATASIZE PUSH0 PUSH1 0x20 DUP5 ADD RETURNDATACOPY PUSH2 0x16D0 JUMP JUMPDEST PUSH1 0x60 SWAP2 POP JUMPDEST POP SWAP2 POP SWAP2 POP PUSH2 0x16E0 DUP6 DUP4 DUP4 PUSH2 0x1841 JUMP JUMPDEST SWAP6 SWAP5 POP POP POP POP POP JUMP JUMPDEST CALLVALUE ISZERO PUSH2 0x5D3 JUMPI PUSH1 0x40 MLOAD PUSH4 0xB398979F PUSH1 0xE0 SHL DUP2 MSTORE PUSH1 0x4 ADD PUSH1 0x40 MLOAD DUP1 SWAP2 SUB SWAP1 REVERT JUMPDEST PUSH0 DUP1 MLOAD PUSH1 0x20 PUSH2 0x1D72 DUP4 CODECOPY DUP2 MLOAD SWAP2 MSTORE PUSH1 0x1 PUSH1 0x1 PUSH1 0xA0 SHL SUB DUP5 AND PUSH2 0x1742 JUMPI DUP2 DUP2 PUSH1 0x2 ADD PUSH0 DUP3 DUP3 SLOAD PUSH2 0x1737 SWAP2 SWAP1 PUSH2 0x1D52 JUMP JUMPDEST SWAP1 SWAP2 SSTORE POP PUSH2 0x17B2 SWAP1 POP JUMP JUMPDEST PUSH1 0x1 PUSH1 0x1 PUSH1 0xA0 SHL SUB DUP5 AND PUSH0 SWAP1 DUP2 MSTORE PUSH1 0x20 DUP3 SWAP1 MSTORE PUSH1 0x40 SWAP1 KECCAK256 SLOAD DUP3 DUP2 LT ISZERO PUSH2 0x1794 JUMPI PUSH1 0x40 MLOAD PUSH4 0x391434E3 PUSH1 0xE2 SHL DUP2 MSTORE PUSH1 0x1 PUSH1 0x1 PUSH1 0xA0 SHL SUB DUP7 AND PUSH1 0x4 DUP3 ADD MSTORE PUSH1 0x24 DUP2 ADD DUP3 SWAP1 MSTORE PUSH1 0x44 DUP2 ADD DUP5 SWAP1 MSTORE PUSH1 0x64 ADD PUSH2 0x709 JUMP JUMPDEST PUSH1 0x1 PUSH1 0x1 PUSH1 0xA0 SHL SUB DUP6 AND PUSH0 SWAP1 DUP2 MSTORE PUSH1 0x20 DUP4 SWAP1 MSTORE PUSH1 0x40 SWAP1 KECCAK256 SWAP1 DUP4 SWAP1 SUB SWAP1 SSTORE JUMPDEST PUSH1 0x1 PUSH1 0x1 PUSH1 0xA0 SHL SUB DUP4 AND PUSH2 0x17D0 JUMPI PUSH1 0x2 DUP2 ADD DUP1 SLOAD DUP4 SWAP1 SUB SWAP1 SSTORE PUSH2 0x17EE JUMP JUMPDEST PUSH1 0x1 PUSH1 0x1 PUSH1 0xA0 SHL SUB DUP4 AND PUSH0 SWAP1 DUP2 MSTORE PUSH1 0x20 DUP3 SWAP1 MSTORE PUSH1 0x40 SWAP1 KECCAK256 DUP1 SLOAD DUP4 ADD SWAP1 SSTORE JUMPDEST DUP3 PUSH1 0x1 PUSH1 0x1 PUSH1 0xA0 SHL SUB AND DUP5 PUSH1 0x1 PUSH1 0x1 PUSH1 0xA0 SHL SUB AND PUSH32 0xDDF252AD1BE2C89B69C2B068FC378DAA952BA7F163C4A11628F55A4DF523B3EF DUP5 PUSH1 0x40 MLOAD PUSH2 0x1833 SWAP2 DUP2 MSTORE PUSH1 0x20 ADD SWAP1 JUMP JUMPDEST PUSH1 0x40 MLOAD DUP1 SWAP2 SUB SWAP1 LOG3 POP POP POP POP JUMP JUMPDEST PUSH1 0x60 DUP3 PUSH2 0x1856 JUMPI PUSH2 0x1851 DUP3 PUSH2 0x189D JUMP JUMPDEST PUSH2 0x5AE JUMP JUMPDEST DUP2 MLOAD ISZERO DUP1 ISZERO PUSH2 0x186D JUMPI POP PUSH1 0x1 PUSH1 0x1 PUSH1 0xA0 SHL SUB DUP5 AND EXTCODESIZE ISZERO JUMPDEST ISZERO PUSH2 0x1896 JUMPI PUSH1 0x40 MLOAD PUSH4 0x9996B315 PUSH1 0xE0 SHL DUP2 MSTORE PUSH1 0x1 PUSH1 0x1 PUSH1 0xA0 SHL SUB DUP6 AND PUSH1 0x4 DUP3 ADD MSTORE PUSH1 0x24 ADD PUSH2 0x709 JUMP JUMPDEST POP DUP1 PUSH2 0x5AE JUMP JUMPDEST DUP1 MLOAD ISZERO PUSH2 0x18AD JUMPI DUP1 MLOAD DUP1 DUP3 PUSH1 0x20 ADD REVERT JUMPDEST PUSH1 0x40 MLOAD PUSH4 0xA12F521 PUSH1 0xE1 SHL DUP2 MSTORE PUSH1 0x4 ADD PUSH1 0x40 MLOAD DUP1 SWAP2 SUB SWAP1 REVERT JUMPDEST PUSH0 JUMPDEST DUP4 DUP2 LT ISZERO PUSH2 0x18E0 JUMPI DUP2 DUP2 ADD MLOAD DUP4 DUP3 ADD MSTORE PUSH1 0x20 ADD PUSH2 0x18C8 JUMP JUMPDEST POP POP PUSH0 SWAP2 ADD MSTORE JUMP JUMPDEST PUSH0 DUP2 MLOAD DUP1 DUP5 MSTORE PUSH2 0x18FF DUP2 PUSH1 0x20 DUP7 ADD PUSH1 0x20 DUP7 ADD PUSH2 0x18C6 JUMP JUMPDEST PUSH1 0x1F ADD PUSH1 0x1F NOT AND SWAP3 SWAP1 SWAP3 ADD PUSH1 0x20 ADD SWAP3 SWAP2 POP POP JUMP JUMPDEST PUSH1 0x20 DUP2 MSTORE PUSH0 PUSH2 0x5AE PUSH1 0x20 DUP4 ADD DUP5 PUSH2 0x18E8 JUMP JUMPDEST DUP1 CALLDATALOAD PUSH1 0x1 PUSH1 0x1 PUSH1 0xA0 SHL SUB DUP2 AND DUP2 EQ PUSH2 0x193B JUMPI PUSH0 DUP1 REVERT JUMPDEST SWAP2 SWAP1 POP JUMP JUMPDEST PUSH0 DUP1 PUSH1 0x40 DUP4 DUP6 SUB SLT ISZERO PUSH2 0x1951 JUMPI PUSH0 DUP1 REVERT JUMPDEST PUSH2 0x195A DUP4 PUSH2 0x1925 JUMP JUMPDEST SWAP5 PUSH1 0x20 SWAP4 SWAP1 SWAP4 ADD CALLDATALOAD SWAP4 POP POP POP JUMP JUMPDEST PUSH0 DUP1 PUSH0 PUSH1 0x60 DUP5 DUP7 SUB SLT ISZERO PUSH2 0x197A JUMPI PUSH0 DUP1 REVERT JUMPDEST PUSH2 0x1983 DUP5 PUSH2 0x1925 JUMP JUMPDEST SWAP3 POP PUSH2 0x1991 PUSH1 0x20 DUP6 ADD PUSH2 0x1925 JUMP JUMPDEST SWAP2 POP PUSH1 0x40 DUP5 ADD CALLDATALOAD SWAP1 POP SWAP3 POP SWAP3 POP SWAP3 JUMP JUMPDEST PUSH0 PUSH1 0x20 DUP3 DUP5 SUB SLT ISZERO PUSH2 0x19B1 JUMPI PUSH0 DUP1 REVERT JUMPDEST POP CALLDATALOAD SWAP2 SWAP1 POP JUMP JUMPDEST PUSH4 0x4E487B71 PUSH1 0xE0 SHL PUSH0 MSTORE PUSH1 0x41 PUSH1 0x4 MSTORE PUSH1 0x24 PUSH0 REVERT JUMPDEST PUSH0 DUP1 PUSH1 0x40 DUP4 DUP6 SUB SLT ISZERO PUSH2 0x19DD JUMPI PUSH0 DUP1 REVERT JUMPDEST PUSH2 0x19E6 DUP4 PUSH2 0x1925 JUMP JUMPDEST SWAP2 POP PUSH1 0x20 DUP4 ADD CALLDATALOAD PUSH8 0xFFFFFFFFFFFFFFFF DUP1 DUP3 GT ISZERO PUSH2 0x1A02 JUMPI PUSH0 DUP1 REVERT JUMPDEST DUP2 DUP6 ADD SWAP2 POP DUP6 PUSH1 0x1F DUP4 ADD SLT PUSH2 0x1A15 JUMPI PUSH0 DUP1 REVERT JUMPDEST DUP2 CALLDATALOAD DUP2 DUP2 GT ISZERO PUSH2 0x1A27 JUMPI PUSH2 0x1A27 PUSH2 0x19B8 JUMP JUMPDEST PUSH1 0x40 MLOAD PUSH1 0x1F DUP3 ADD PUSH1 0x1F NOT SWAP1 DUP2 AND PUSH1 0x3F ADD AND DUP2 ADD SWAP1 DUP4 DUP3 GT DUP2 DUP4 LT OR ISZERO PUSH2 0x1A4F JUMPI PUSH2 0x1A4F PUSH2 0x19B8 JUMP JUMPDEST DUP2 PUSH1 0x40 MSTORE DUP3 DUP2 MSTORE DUP9 PUSH1 0x20 DUP5 DUP8 ADD ADD GT ISZERO PUSH2 0x1A67 JUMPI PUSH0 DUP1 REVERT JUMPDEST DUP3 PUSH1 0x20 DUP7 ADD PUSH1 0x20 DUP4 ADD CALLDATACOPY PUSH0 PUSH1 0x20 DUP5 DUP4 ADD ADD MSTORE DUP1 SWAP6 POP POP POP POP POP POP SWAP3 POP SWAP3 SWAP1 POP JUMP JUMPDEST PUSH0 PUSH1 0x20 DUP3 DUP5 SUB SLT ISZERO PUSH2 0x1A98 JUMPI PUSH0 DUP1 REVERT JUMPDEST PUSH2 0x5AE DUP3 PUSH2 0x1925 JUMP JUMPDEST PUSH1 0xFF PUSH1 0xF8 SHL DUP9 AND DUP2 MSTORE PUSH0 PUSH1 0x20 PUSH1 0xE0 DUP2 DUP5 ADD MSTORE PUSH2 0x1AC0 PUSH1 0xE0 DUP5 ADD DUP11 PUSH2 0x18E8 JUMP JUMPDEST DUP4 DUP2 SUB PUSH1 0x40 DUP6 ADD MSTORE PUSH2 0x1AD2 DUP2 DUP11 PUSH2 0x18E8 JUMP JUMPDEST PUSH1 0x60 DUP6 ADD DUP10 SWAP1 MSTORE PUSH1 0x1 PUSH1 0x1 PUSH1 0xA0 SHL SUB DUP9 AND PUSH1 0x80 DUP7 ADD MSTORE PUSH1 0xA0 DUP6 ADD DUP8 SWAP1 MSTORE DUP5 DUP2 SUB PUSH1 0xC0 DUP7 ADD MSTORE DUP6 MLOAD DUP1 DUP3 MSTORE DUP4 DUP8 ADD SWAP3 POP SWAP1 DUP4 ADD SWAP1 PUSH0 JUMPDEST DUP2 DUP2 LT ISZERO PUSH2 0x1B23 JUMPI DUP4 MLOAD DUP4 MSTORE SWAP3 DUP5 ADD SWAP3 SWAP2 DUP5 ADD SWAP2 PUSH1 0x1 ADD PUSH2 0x1B07 JUMP JUMPDEST POP SWAP1 SWAP13 SWAP12 POP POP POP POP POP POP POP POP POP POP POP POP JUMP JUMPDEST PUSH0 DUP1 PUSH0 DUP1 PUSH0 DUP1 PUSH0 PUSH1 0xE0 DUP9 DUP11 SUB SLT ISZERO PUSH2 0x1B4B JUMPI PUSH0 DUP1 REVERT JUMPDEST PUSH2 0x1B54 DUP9 PUSH2 0x1925 JUMP JUMPDEST SWAP7 POP PUSH2 0x1B62 PUSH1 0x20 DUP10 ADD PUSH2 0x1925 JUMP JUMPDEST SWAP6 POP PUSH1 0x40 DUP9 ADD CALLDATALOAD SWAP5 POP PUSH1 0x60 DUP9 ADD CALLDATALOAD SWAP4 POP PUSH1 0x80 DUP9 ADD CALLDATALOAD PUSH1 0xFF DUP2 AND DUP2 EQ PUSH2 0x1B85 JUMPI PUSH0 DUP1 REVERT JUMPDEST SWAP7 SWAP10 SWAP6 SWAP9 POP SWAP4 SWAP7 SWAP3 SWAP6 SWAP5 PUSH1 0xA0 DUP5 ADD CALLDATALOAD SWAP5 POP PUSH1 0xC0 SWAP1 SWAP4 ADD CALLDATALOAD SWAP3 SWAP2 POP POP JUMP JUMPDEST PUSH0 DUP1 PUSH1 0x40 DUP4 DUP6 SUB SLT ISZERO PUSH2 0x1BB3 JUMPI PUSH0 DUP1 REVERT JUMPDEST PUSH2 0x1BBC DUP4 PUSH2 0x1925 JUMP JUMPDEST SWAP2 POP PUSH2 0x1BCA PUSH1 0x20 DUP5 ADD PUSH2 0x1925 JUMP JUMPDEST SWAP1 POP SWAP3 POP SWAP3 SWAP1 POP JUMP JUMPDEST PUSH1 0x1 DUP2 DUP2 SHR SWAP1 DUP3 AND DUP1 PUSH2 0x1BE7 JUMPI PUSH1 0x7F DUP3 AND SWAP2 POP JUMPDEST PUSH1 0x20 DUP3 LT DUP2 SUB PUSH2 0x1C05 JUMPI PUSH4 0x4E487B71 PUSH1 0xE0 SHL PUSH0 MSTORE PUSH1 0x22 PUSH1 0x4 MSTORE PUSH1 0x24 PUSH0 REVERT JUMPDEST POP SWAP2 SWAP1 POP JUMP JUMPDEST PUSH0 PUSH1 0x20 DUP3 DUP5 SUB SLT ISZERO PUSH2 0x1C1B JUMPI PUSH0 DUP1 REVERT JUMPDEST POP MLOAD SWAP2 SWAP1 POP JUMP JUMPDEST PUSH1 0x1F DUP3 GT ISZERO PUSH2 0xB0E JUMPI PUSH0 DUP2 DUP2 MSTORE PUSH1 0x20 DUP2 KECCAK256 PUSH1 0x1F DUP6 ADD PUSH1 0x5 SHR DUP2 ADD PUSH1 0x20 DUP7 LT ISZERO PUSH2 0x1C48 JUMPI POP DUP1 JUMPDEST PUSH1 0x1F DUP6 ADD PUSH1 0x5 SHR DUP3 ADD SWAP2 POP JUMPDEST DUP2 DUP2 LT ISZERO PUSH2 0x921 JUMPI DUP3 DUP2 SSTORE PUSH1 0x1 ADD PUSH2 0x1C54 JUMP JUMPDEST DUP2 MLOAD PUSH8 0xFFFFFFFFFFFFFFFF DUP2 GT ISZERO PUSH2 0x1C81 JUMPI PUSH2 0x1C81 PUSH2 0x19B8 JUMP JUMPDEST PUSH2 0x1C95 DUP2 PUSH2 0x1C8F DUP5 SLOAD PUSH2 0x1BD3 JUMP JUMPDEST DUP5 PUSH2 0x1C22 JUMP JUMPDEST PUSH1 0x20 DUP1 PUSH1 0x1F DUP4 GT PUSH1 0x1 DUP2 EQ PUSH2 0x1CC8 JUMPI PUSH0 DUP5 ISZERO PUSH2 0x1CB1 JUMPI POP DUP6 DUP4 ADD MLOAD JUMPDEST PUSH0 NOT PUSH1 0x3 DUP7 SWAP1 SHL SHR NOT AND PUSH1 0x1 DUP6 SWAP1 SHL OR DUP6 SSTORE PUSH2 0x921 JUMP JUMPDEST PUSH0 DUP6 DUP2 MSTORE PUSH1 0x20 DUP2 KECCAK256 PUSH1 0x1F NOT DUP7 AND SWAP2 JUMPDEST DUP3 DUP2 LT ISZERO PUSH2 0x1CF6 JUMPI DUP9 DUP7 ADD MLOAD DUP3 SSTORE SWAP5 DUP5 ADD SWAP5 PUSH1 0x1 SWAP1 SWAP2 ADD SWAP1 DUP5 ADD PUSH2 0x1CD7 JUMP JUMPDEST POP DUP6 DUP3 LT ISZERO PUSH2 0x1D13 JUMPI DUP8 DUP6 ADD MLOAD PUSH0 NOT PUSH1 0x3 DUP9 SWAP1 SHL PUSH1 0xF8 AND SHR NOT AND DUP2 SSTORE JUMPDEST POP POP POP POP POP PUSH1 0x1 SWAP1 DUP2 SHL ADD SWAP1 SSTORE POP JUMP JUMPDEST PUSH4 0x4E487B71 PUSH1 0xE0 SHL PUSH0 MSTORE PUSH1 0x21 PUSH1 0x4 MSTORE PUSH1 0x24 PUSH0 REVERT JUMPDEST PUSH0 DUP3 MLOAD PUSH2 0x1D48 DUP2 DUP5 PUSH1 0x20 DUP8 ADD PUSH2 0x18C6 JUMP JUMPDEST SWAP2 SWAP1 SWAP2 ADD SWAP3 SWAP2 POP POP JUMP JUMPDEST DUP1 DUP3 ADD DUP1 DUP3 GT ISZERO PUSH2 0x58A JUMPI PUSH4 0x4E487B71 PUSH1 0xE0 SHL PUSH0 MSTORE PUSH1 0x11 PUSH1 0x4 MSTORE PUSH1 0x24 PUSH0 REVERT INVALID MSTORE 0xC6 ORIGIN SELFBALANCE 0xE1 DELEGATECALL PUSH30 0xB19D5CE0460030C497F067CA4CEBF71BA98EEADABE20BACE00A16A46D942 PUSH2 0xC751 PUSH29 0xC8FF89F61C0CE93598E3C849801011DEE649A6A557D100360894A13BA1 LOG3 0x21 MOD PUSH8 0xC828492DB98DCA3E KECCAK256 PUSH23 0xCC3735A920A3CA505D382BBCCD5ED15C6E187E77E9AEE8 DUP2 DUP5 0xC2 0x1F 0x4F 0x21 DUP3 0xAB PC 0x27 0xCB EXTCODESIZE PUSH31 0x7FBEDCD63F03300A2646970667358221220265303C841A3900D0174C77D8A MUL 0x2B SWAP12 CREATE2 0xAC PUSH3 0xFF6D01 0xDB 0x49 SSTORE CODECOPY 0x2B CALLDATASIZE SWAP11 0xC4 DUP2 PUSH19 0x64736F6C634300081400330000000000000000 "
				},
				"gasEstimates": {
					"creation": {
						"codeDepositCost": "1543800",
						"executionCost": "infinite",
						"totalCost": "infinite"
					},
					"external": {
						"DOMAIN_SEPARATOR()": "infinite",
						"UPGRADE_INTERFACE_VERSION()": "infinite",
						"allowance(address,address)": "infinite",
						"approve(address,uint256)": "infinite",
						"balanceOf(address)": "infinite",
						"burn(uint256)": "infinite",
						"burnFrom(address,uint256)": "infinite",
						"decimals()": "288",
						"eip712Domain()": "infinite",
						"initialize(address)": "infinite",
						"mint(address,uint256)": "infinite",
						"name()": "infinite",
						"nonces(address)": "2688",
						"owner()": "2433",
						"pause()": "infinite",
						"paused()": "infinite",
						"permit(address,address,uint256,uint256,uint8,bytes32,bytes32)": "infinite",
						"proxiableUUID()": "infinite",
						"renounceOwnership()": "infinite",
						"symbol()": "infinite",
						"totalSupply()": "2348",
						"transfer(address,uint256)": "infinite",
						"transferFrom(address,address,uint256)": "infinite",
						"transferOwnership(address)": "28475",
						"unpause()": "infinite",
						"upgradeToAndCall(address,bytes)": "infinite"
					},
					"internal": {
						"_authorizeUpgrade(address)": "infinite",
						"_update(address,address,uint256)": "infinite"
					}
				},
				"methodIdentifiers": {
					"DOMAIN_SEPARATOR()": "3644e515",
					"UPGRADE_INTERFACE_VERSION()": "ad3cb1cc",
					"allowance(address,address)": "dd62ed3e",
					"approve(address,uint256)": "095ea7b3",
					"balanceOf(address)": "70a08231",
					"burn(uint256)": "42966c68",
					"burnFrom(address,uint256)": "79cc6790",
					"decimals()": "313ce567",
					"eip712Domain()": "84b0196e",
					"initialize(address)": "c4d66de8",
					"mint(address,uint256)": "40c10f19",
					"name()": "06fdde03",
					"nonces(address)": "7ecebe00",
					"owner()": "8da5cb5b",
					"pause()": "8456cb59",
					"paused()": "5c975abb",
					"permit(address,address,uint256,uint256,uint8,bytes32,bytes32)": "d505accf",
					"proxiableUUID()": "52d1902d",
					"renounceOwnership()": "715018a6",
					"symbol()": "95d89b41",
					"totalSupply()": "18160ddd",
					"transfer(address,uint256)": "a9059cbb",
					"transferFrom(address,address,uint256)": "23b872dd",
					"transferOwnership(address)": "f2fde38b",
					"unpause()": "3f4ba83a",
					"upgradeToAndCall(address,bytes)": "4f1ef286"
				}
			},
			"storageLayout": {
				"storage": [],
				"types": null
			},
			"userdoc": {
				"kind": "user",
				"methods": {},
				"version": 1
			}
		}
	}
}